{
  "_format": "hh-sol-artifact-1",
  "contractName": "SportsDapp1",
  "sourceName": "contracts/sportsdapp/Sportsdapp1.sol",
  "abi": [
    {
      "inputs": [
        {
          "internalType": "address",
          "name": "_admin",
          "type": "address"
        }
      ],
      "stateMutability": "nonpayable",
      "type": "constructor"
    },
    {
      "anonymous": false,
      "inputs": [
        {
          "indexed": false,
          "internalType": "address",
          "name": "backer",
          "type": "address"
        },
        {
          "indexed": false,
          "internalType": "uint256",
          "name": "amount",
          "type": "uint256"
        },
        {
          "indexed": false,
          "internalType": "bool",
          "name": "isContribution",
          "type": "bool"
        }
      ],
      "name": "FundTransfer",
      "type": "event"
    },
    {
      "anonymous": false,
      "inputs": [
        {
          "indexed": false,
          "internalType": "address",
          "name": "backer",
          "type": "address"
        },
        {
          "indexed": false,
          "internalType": "uint256",
          "name": "qid",
          "type": "uint256"
        },
        {
          "indexed": false,
          "internalType": "uint256",
          "name": "_type",
          "type": "uint256"
        }
      ],
      "name": "QuestionCreation",
      "type": "event"
    },
    {
      "anonymous": false,
      "inputs": [
        {
          "indexed": false,
          "internalType": "address",
          "name": "backer",
          "type": "address"
        },
        {
          "indexed": false,
          "internalType": "uint256",
          "name": "qid",
          "type": "uint256"
        },
        {
          "indexed": false,
          "internalType": "uint256",
          "name": "ansid",
          "type": "uint256"
        }
      ],
      "name": "VotingDone",
      "type": "event"
    },
    {
      "anonymous": false,
      "inputs": [
        {
          "indexed": false,
          "internalType": "uint256",
          "name": "qid",
          "type": "uint256"
        },
        {
          "indexed": false,
          "internalType": "string",
          "name": "name",
          "type": "string"
        },
        {
          "indexed": false,
          "internalType": "address",
          "name": "winner",
          "type": "address"
        },
        {
          "indexed": false,
          "internalType": "uint256",
          "name": "rewardamt",
          "type": "uint256"
        },
        {
          "indexed": false,
          "internalType": "uint256",
          "name": "ans",
          "type": "uint256"
        },
        {
          "indexed": false,
          "internalType": "uint256",
          "name": "_type",
          "type": "uint256"
        }
      ],
      "name": "WinnerDeclared",
      "type": "event"
    },
    {
      "inputs": [],
      "name": "admin",
      "outputs": [
        {
          "internalType": "address",
          "name": "",
          "type": "address"
        }
      ],
      "stateMutability": "view",
      "type": "function"
    },
    {
      "inputs": [
        {
          "internalType": "address",
          "name": "",
          "type": "address"
        }
      ],
      "name": "balanceOf",
      "outputs": [
        {
          "internalType": "uint256",
          "name": "",
          "type": "uint256"
        }
      ],
      "stateMutability": "view",
      "type": "function"
    },
    {
      "inputs": [],
      "name": "feeAddress",
      "outputs": [
        {
          "internalType": "address payable",
          "name": "",
          "type": "address"
        }
      ],
      "stateMutability": "view",
      "type": "function"
    },
    {
      "inputs": [
        {
          "internalType": "address",
          "name": "from",
          "type": "address"
        }
      ],
      "name": "getBalance",
      "outputs": [
        {
          "internalType": "uint256",
          "name": "",
          "type": "uint256"
        }
      ],
      "stateMutability": "view",
      "type": "function"
    },
    {
      "inputs": [
        {
          "internalType": "uint256",
          "name": "_qid",
          "type": "uint256"
        }
      ],
      "name": "getQcontent",
      "outputs": [
        {
          "internalType": "string",
          "name": "",
          "type": "string"
        }
      ],
      "stateMutability": "view",
      "type": "function"
    },
    {
      "inputs": [
        {
          "internalType": "uint256",
          "name": "_qid",
          "type": "uint256"
        }
      ],
      "name": "getRate",
      "outputs": [
        {
          "internalType": "uint256",
          "name": "",
          "type": "uint256"
        }
      ],
      "stateMutability": "view",
      "type": "function"
    },
    {
      "inputs": [
        {
          "internalType": "uint256",
          "name": "_qid",
          "type": "uint256"
        }
      ],
      "name": "getWinners",
      "outputs": [
        {
          "internalType": "address[]",
          "name": "",
          "type": "address[]"
        }
      ],
      "stateMutability": "view",
      "type": "function"
    },
    {
      "inputs": [
        {
          "internalType": "uint256",
          "name": "_qid",
          "type": "uint256"
        }
      ],
      "name": "getWinnersAnsReason",
      "outputs": [
        {
          "internalType": "string",
          "name": "",
          "type": "string"
        }
      ],
      "stateMutability": "view",
      "type": "function"
    },
    {
      "inputs": [
        {
          "internalType": "uint256",
          "name": "_qid",
          "type": "uint256"
        }
      ],
      "name": "getWinnersAnsStr",
      "outputs": [
        {
          "internalType": "string",
          "name": "",
          "type": "string"
        }
      ],
      "stateMutability": "view",
      "type": "function"
    },
    {
      "inputs": [
        {
          "internalType": "uint256",
          "name": "_qid",
          "type": "uint256"
        }
      ],
      "name": "getWinnersDist",
      "outputs": [
        {
          "internalType": "uint256",
          "name": "",
          "type": "uint256"
        }
      ],
      "stateMutability": "view",
      "type": "function"
    },
    {
      "inputs": [
        {
          "internalType": "uint256",
          "name": "_qid",
          "type": "uint256"
        }
      ],
      "name": "getWinnersno",
      "outputs": [
        {
          "internalType": "uint256",
          "name": "",
          "type": "uint256"
        }
      ],
      "stateMutability": "view",
      "type": "function"
    },
    {
      "inputs": [
        {
          "internalType": "address",
          "name": "rewardee",
          "type": "address"
        }
      ],
      "name": "getWinnings",
      "outputs": [],
      "stateMutability": "payable",
      "type": "function"
    },
    {
      "inputs": [
        {
          "internalType": "address",
          "name": "from",
          "type": "address"
        }
      ],
      "name": "getWinnningBalance",
      "outputs": [
        {
          "internalType": "uint256",
          "name": "",
          "type": "uint256"
        }
      ],
      "stateMutability": "view",
      "type": "function"
    },
    {
      "inputs": [
        {
          "internalType": "address",
          "name": "forwarder",
          "type": "address"
        }
      ],
      "name": "isTrustedForwarder",
      "outputs": [
        {
          "internalType": "bool",
          "name": "",
          "type": "bool"
        }
      ],
      "stateMutability": "view",
      "type": "function"
    },
    {
      "inputs": [
        {
          "internalType": "uint256",
          "name": "_qid",
          "type": "uint256"
        },
        {
          "internalType": "string",
          "name": "_qcontent",
          "type": "string"
        },
        {
          "internalType": "uint256",
          "name": "_vote_price",
          "type": "uint256"
        },
        {
          "internalType": "uint8",
          "name": "_optionslength",
          "type": "uint8"
        },
        {
          "internalType": "uint256",
          "name": "_type",
          "type": "uint256"
        },
        {
          "internalType": "string",
          "name": "name",
          "type": "string"
        }
      ],
      "name": "postQuestion",
      "outputs": [],
      "stateMutability": "nonpayable",
      "type": "function"
    },
    {
      "inputs": [
        {
          "internalType": "uint256",
          "name": "_qid",
          "type": "uint256"
        }
      ],
      "name": "stopVoting",
      "outputs": [],
      "stateMutability": "nonpayable",
      "type": "function"
    },
    {
      "inputs": [
        {
          "internalType": "uint256",
          "name": "_qid",
          "type": "uint256"
        },
        {
          "internalType": "uint256",
          "name": "_ansid",
          "type": "uint256"
        },
        {
          "internalType": "string",
          "name": "_correct_answer_str",
          "type": "string"
        },
        {
          "internalType": "string",
          "name": "_correct_ans_reason",
          "type": "string"
        }
      ],
      "name": "submitRightSolution",
      "outputs": [],
      "stateMutability": "nonpayable",
      "type": "function"
    },
    {
      "inputs": [],
      "name": "trustedForwarder",
      "outputs": [
        {
          "internalType": "address",
          "name": "",
          "type": "address"
        }
      ],
      "stateMutability": "view",
      "type": "function"
    },
    {
      "inputs": [
        {
          "internalType": "uint256",
          "name": "_qid",
          "type": "uint256"
        },
        {
          "internalType": "uint256",
          "name": "ansid",
          "type": "uint256"
        },
        {
          "internalType": "uint256",
          "name": "_amount",
          "type": "uint256"
        },
        {
          "internalType": "string",
          "name": "name",
          "type": "string"
        }
      ],
      "name": "vote",
      "outputs": [],
      "stateMutability": "payable",
      "type": "function"
    }
  ],
  "bytecode": "0x6080604052600080546001600160a01b0319908116732b99251ec9650e507936fa9530d11de4d6c9c05c179091556002805490911673af7ebf3480b5684e4f40ae435074c09e6dc0d2a917905534801561005857600080fd5b50604051612a00380380612a008339818101604052602081101561007b57600080fd5b5051600180546001600160a01b0319166001600160a01b03909216919091179055612955806100ab6000396000f3fe6080604052600436106101145760003560e01c806370a08231116100a0578063d57bb39711610064578063d57bb3971461071f578063d9079d4314610752578063dbc450501461077c578063f851a440146107a6578063f8b2cb4f146107bb57610114565b806370a08231146104a45780637da0a877146104d7578063a034b6cb146104ec578063ae316cb0146105a3578063b3859989146105cd57610114565b806341275358116100e757806341275358146102e957806344d0574e1461031a578063572b6c05146103b957806357764094146104005780636b1426a41461042a57610114565b80632858eff11461011957806335c49a95146101415780633cb2c7fc1461016b5780633e0f9017146102ad575b600080fd5b61013f6004803603602081101561012f57600080fd5b50356001600160a01b03166107ee565b005b34801561014d57600080fd5b5061013f6004803603602081101561016457600080fd5b50356108ad565b34801561017757600080fd5b5061013f6004803603608081101561018e57600080fd5b813591602081013591810190606081016040820135600160201b8111156101b457600080fd5b8201836020820111156101c657600080fd5b803590602001918460018302840111600160201b831117156101e757600080fd5b91908080601f0160208091040260200160405190810160405280939291908181526020018383808284376000920191909152509295949360208101935035915050600160201b81111561023957600080fd5b82018360208201111561024b57600080fd5b803590602001918460018302840111600160201b8311171561026c57600080fd5b91908080601f016020809104026020016040519081016040528093929190818152602001838380828437600092019190915250929550610996945050505050565b3480156102b957600080fd5b506102d7600480360360208110156102d057600080fd5b5035611e9b565b60408051918252519081900360200190f35b3480156102f557600080fd5b506102fe611eb0565b604080516001600160a01b039092168252519081900360200190f35b34801561032657600080fd5b506103446004803603602081101561033d57600080fd5b5035611ebf565b6040805160208082528351818301528351919283929083019185019080838360005b8381101561037e578181015183820152602001610366565b50505050905090810190601f1680156103ab5780820380516001836020036101000a031916815260200191505b509250505060405180910390f35b3480156103c557600080fd5b506103ec600480360360208110156103dc57600080fd5b50356001600160a01b0316611f63565b604080519115158252519081900360200190f35b34801561040c57600080fd5b506102d76004803603602081101561042357600080fd5b5035611f77565b34801561043657600080fd5b506104546004803603602081101561044d57600080fd5b5035611f8c565b60408051602080825283518183015283519192839290830191858101910280838360005b83811015610490578181015183820152602001610478565b505050509050019250505060405180910390f35b3480156104b057600080fd5b506102d7600480360360208110156104c757600080fd5b50356001600160a01b0316611ffa565b3480156104e357600080fd5b506102fe61200c565b61013f6004803603608081101561050257600080fd5b81359160208101359160408201359190810190608081016060820135600160201b81111561052f57600080fd5b82018360208201111561054157600080fd5b803590602001918460018302840111600160201b8311171561056257600080fd5b91908080601f01602080910402602001604051908101604052809392919081815260200183838082843760009201919091525092955061201b945050505050565b3480156105af57600080fd5b506102d7600480360360208110156105c657600080fd5b5035612380565b3480156105d957600080fd5b5061013f600480360360c08110156105f057600080fd5b81359190810190604081016020820135600160201b81111561061157600080fd5b82018360208201111561062357600080fd5b803590602001918460018302840111600160201b8311171561064457600080fd5b91908080601f016020809104026020016040519081016040528093929190818152602001838380828437600092019190915250929584359560ff60208701351695604081013595509193509150608081019060600135600160201b8111156106ab57600080fd5b8201836020820111156106bd57600080fd5b803590602001918460018302840111600160201b831117156106de57600080fd5b91908080601f016020809104026020016040519081016040528093929190818152602001838380828437600092019190915250929550612395945050505050565b34801561072b57600080fd5b506102d76004803603602081101561074257600080fd5b50356001600160a01b031661259b565b34801561075e57600080fd5b506103446004803603602081101561077557600080fd5b50356125b6565b34801561078857600080fd5b506103446004803603602081101561079f57600080fd5b5035612626565b3480156107b257600080fd5b506102fe612693565b3480156107c757600080fd5b506102d7600480360360208110156107de57600080fd5b50356001600160a01b03166126a2565b60405173ce11f26849e17a4d1378149365bbd5af26926e409081903480156108fc02916000818181858888f19350505050158015610830573d6000803e3d6000fd5b50346003600061083e6126af565b6001600160a01b039081168252602080830193909352604091820160009081208054959095039094558151908616815234928101929092528181019290925290517fe842aea7a5f1b01049d752008c53c52890b1a6daf660cf39e8eec506112bbdf69181900360600190a15050565b6001546001600160a01b03166108c16126af565b6001600160a01b03161461091c576040805162461bcd60e51b815260206004820152601e60248201527f4f6e6c792061646d696e2063616e2073746f702074686520766f74696e670000604482015290519081900360640190fd5b6000818152600460205260409020601e015460ff61010090910416600114156109765760405162461bcd60e51b81526004018080602001828103825260278152602001806128f96027913960400191505060405180910390fd5b6000908152600460205260409020601e01805461ff001916610100179055565b6001546001600160a01b03166109aa6126af565b6001600160a01b0316146109ef5760405162461bcd60e51b81526004018080602001828103825260288152602001806128d16028913960400191505060405180910390fd5b6000848152600460205260409020601e015462010000900460ff1660011415610a5f576040805162461bcd60e51b815260206004820152601f60248201527f526967687420736f6c7574696f6e206465636c6172656420616c726561647900604482015290519081900360640190fd5b6000848152600460208181526040909220908101859055601e8101805461ff001962ff0000199091166201000017166101001790558351610aa892601a909201918501906126e0565b5060008481526004602090815260409091208251610ace92601b909201918401906126e0565b5060008481526004602090815260409182902060018101546017909101548351600a80825261016082019095529193909288928892606092820161014080368337019050509050846001141561187d57816103e7141561134b57600083815260046020526040812060030154905b600085815260046020526040902060070154811015610d3b576000858152600460205260409020600701805482908110610b7257fe5b9060005260206000200160009054906101000a90046001600160a01b0316838281518110610b9c57fe5b60200260200101906001600160a01b031690816001600160a01b0316815250506000829050838281518110610bcd57fe5b60200260200101516001600160a01b03166108fc829081150290604051600060405180830381858888f19350505050158015610c0d573d6000803e3d6000fd5b506000805160206128b18339815191528660056000878681518110610c2e57fe5b60200260200101516001600160a01b03166001600160a01b03168152602001908152602001600020868581518110610c6257fe5b602002602001015186896103e76040518087815260200180602001866001600160a01b03168152602001858152602001848152602001838152602001828103825287818154600181600116156101000203166002900481526020019150805460018160011615610100020316600290048015610d1f5780601f10610cf457610100808354040283529160200191610d1f565b820191906000526020600020905b815481529060010190602001808311610d0257829003601f168201915b505097505050505050505060405180910390a150600101610b3c565b5060005b6000858152600460205260409020600a0154811015610f3e576000858152600460205260409020600a01805482908110610d7557fe5b9060005260206000200160009054906101000a90046001600160a01b0316838281518110610d9f57fe5b60200260200101906001600160a01b031690816001600160a01b0316815250506000829050838281518110610dd057fe5b60200260200101516001600160a01b03166108fc829081150290604051600060405180830381858888f19350505050158015610e10573d6000803e3d6000fd5b506000805160206128b18339815191528660056000878681518110610e3157fe5b60200260200101516001600160a01b03166001600160a01b03168152602001908152602001600020868581518110610e6557fe5b602002602001015186896103e76040518087815260200180602001866001600160a01b03168152602001858152602001848152602001838152602001828103825287818154600181600116156101000203166002900481526020019150805460018160011615610100020316600290048015610f225780601f10610ef757610100808354040283529160200191610f22565b820191906000526020600020905b815481529060010190602001808311610f0557829003601f168201915b505097505050505050505060405180910390a150600101610d3f565b5060005b6000858152600460205260409020600d0154811015611141576000858152600460205260409020600d01805482908110610f7857fe5b9060005260206000200160009054906101000a90046001600160a01b0316838281518110610fa257fe5b60200260200101906001600160a01b031690816001600160a01b0316815250506000829050838281518110610fd357fe5b60200260200101516001600160a01b03166108fc829081150290604051600060405180830381858888f19350505050158015611013573d6000803e3d6000fd5b506000805160206128b1833981519152866005600087868151811061103457fe5b60200260200101516001600160a01b03166001600160a01b0316815260200190815260200160002086858151811061106857fe5b602002602001015186896103e76040518087815260200180602001866001600160a01b031681526020018581526020018481526020018381526020018281038252878181546001816001161561010002031660029004815260200191508054600181600116156101000203166002900480156111255780601f106110fa57610100808354040283529160200191611125565b820191906000526020600020905b81548152906001019060200180831161110857829003601f168201915b505097505050505050505060405180910390a150600101610f42565b5060005b60008581526004602052604090206010015481101561134457600085815260046020526040902060100180548290811061117b57fe5b9060005260206000200160009054906101000a90046001600160a01b03168382815181106111a557fe5b60200260200101906001600160a01b031690816001600160a01b03168152505060008290508382815181106111d657fe5b60200260200101516001600160a01b03166108fc829081150290604051600060405180830381858888f19350505050158015611216573d6000803e3d6000fd5b506000805160206128b1833981519152866005600087868151811061123757fe5b60200260200101516001600160a01b03166001600160a01b0316815260200190815260200160002086858151811061126b57fe5b602002602001015186896103e76040518087815260200180602001866001600160a01b031681526020018581526020018481526020018381526020018281038252878181546001816001161561010002031660029004815260200191508054600181600116156101000203166002900480156113285780601f106112fd57610100808354040283529160200191611328565b820191906000526020600020905b81548152906001019060200180831161130b57829003601f168201915b505097505050505050505060405180910390a150600101611145565b5050611878565b6000898152600460205260408120600501836006811061136757fe5b6003020160010154905080600460008c8152602001908152602001600020601d0181905550600081868161139757fe5b6000878152600460205260409020600381015492909104918202601c820181905591925060050185600681106113c957fe5b6003020160020180549050600114156115cb57600086815260046020526040902060050185600681106113f857fe5b6003020160020160008154811061140b57fe5b600091825260208220015485516001600160a01b0390911691869161142c57fe5b60200260200101906001600160a01b031690816001600160a01b03168152505060008190508460008151811061145e57fe5b60200260200101516001600160a01b03166108fc829081150290604051600060405180830381858888f1935050505015801561149e573d6000803e3d6000fd5b506000805160206128b18339815191528760056000886000815181106114c057fe5b60200260200101516001600160a01b03166001600160a01b03168152602001908152602001600020876000815181106114f557fe5b6020026020010151858a61014d6040518087815260200180602001866001600160a01b031681526020018581526020018481526020018381526020018281038252878181546001816001161561010002031660029004815260200191508054600181600116156101000203166002900480156115b25780601f10611587576101008083540402835291602001916115b2565b820191906000526020600020905b81548152906001019060200180831161159557829003601f168201915b505097505050505050505060405180910390a150611874565b6002546040516028830491828403916001600160a01b03909116906108fc8415029084906000818181858888f1935050505015801561160e573d6000803e3d6000fd5b5060005b6000898152600460205260409020600501886006811061162e57fe5b6003020160020180549050811015611870576000898152600460205260409020600501886006811061165c57fe5b60030201600201818154811061166e57fe5b9060005260206000200160009054906101000a90046001600160a01b031687828151811061169857fe5b60200260200101906001600160a01b031690816001600160a01b03168152505083600360008984815181106116c957fe5b6020908102919091018101516001600160a01b03168252810191909152604001600020805490910190558651829088908390811061170357fe5b60200260200101516001600160a01b03166108fc829081150290604051600060405180830381858888f19350505050158015611743573d6000803e3d6000fd5b506000805160206128b18339815191528a600560008b868151811061176457fe5b60200260200101516001600160a01b03166001600160a01b031681526020019081526020016000208a858151811061179857fe5b6020026020010151888d60016040518087815260200180602001866001600160a01b031681526020018581526020018481526020018381526020018281038252878181546001816001161561010002031660029004815260200191508054600181600116156101000203166002900480156118545780601f1061182957610100808354040283529160200191611854565b820191906000526020600020905b81548152906001019060200180831161183757829003601f168201915b505097505050505050505060405180910390a150600101611612565b5050505b5050505b611c97565b8460021415611c9757600089815260046020908152604080832060030154868452600690925282208054918702929182906118b457fe5b90600052602060002090600202016001015490506000818510156118db57508381036118e0565b508084035b60015b6000878152600660205260409020548110156119e157600087815260066020526040812080548390811061191357fe5b9060005260206000209060020201600101549050600087600660008b8152602001908152602001600020848154811061194857fe5b906000526020600020906002020160010154111561199757600089815260066020526040902080548991908590811061197d57fe5b9060005260206000209060020201600101540390506119c8565b60008981526006602052604090208054849081106119b157fe5b906000526020600020906002020160010154880390505b838110156119d7578093508194505b50506001016118e3565b506000805b600088815260066020526040902054811015611a9f576000888152600660205260408120805483908110611a1657fe5b906000526020600020906002020160010154905084811415611a96576000898152600660205260409020805483908110611a4c57fe5b600091825260209091206002909102015487516001600160a01b0390911690889085908110611a7757fe5b6001600160a01b03909216602092830291909101909101526001909201915b506001016119e6565b506000818581611aab57fe5b60008a8152600460205260408120601d810186905592909104601c9092018290559091505b82811015611c90578160036000898481518110611ae957fe5b6020908102919091018101516001600160a01b031682528101919091526040016000208054909101905586518290889083908110611b2357fe5b60200260200101516001600160a01b03166108fc829081150290604051600060405180830381858888f19350505050158015611b63573d6000803e3d6000fd5b506000805160206128b18339815191528a600560008b8681518110611b8457fe5b60200260200101516001600160a01b03166001600160a01b031681526020019081526020016000208a8581518110611bb857fe5b6020026020010151868a60026040518087815260200180602001866001600160a01b03168152602001858152602001848152602001838152602001828103825287818154600181600116156101000203166002900481526020019150805460018160011615610100020316600290048015611c745780601f10611c4957610100808354040283529160200191611c74565b820191906000526020600020905b815481529060010190602001808311611c5757829003601f168201915b505097505050505050505060405180910390a150600101611ad0565b5050505050505b60008981526004602090815260409091208251611cbc9260189092019184019061275e565b5060408051600a8082526101608201909252606091816020015b6060815260200190600190039081611cd657905050905060005b600085815260046020526040902060180154811015611e68576000858152600460205260409020601801805482908110611d2657fe5b6000918252602090912001546001600160a01b031615611e2d5760008581526004602052604081206018018054600592919084908110611d6257fe5b6000918252602080832091909101546001600160a01b0316835282810193909352604091820190208054825160026101006001841615026000190190921691909104601f810185900485028201850190935282815292909190830182828015611e0c5780601f10611de157610100808354040283529160200191611e0c565b820191906000526020600020905b815481529060010190602001808311611def57829003601f168201915b5050505050828281518110611e1d57fe5b6020026020010181905250611e60565b604051806040016040528060028152602001614e4160f01b815250828281518110611e5457fe5b60200260200101819052505b600101611cf0565b5060008a81526004602090815260409091208251611e8e926019909201918401906127bf565b5050505050505050505050565b6000908152600460205260409020601d015490565b6002546001600160a01b031681565b600081815260046020908152604091829020601a0180548351601f6002600019610100600186161502019093169290920491820184900484028101840190945280845260609392830182828015611f575780601f10611f2c57610100808354040283529160200191611f57565b820191906000526020600020905b815481529060010190602001808311611f3a57829003601f168201915b50505050509050919050565b6000546001600160a01b0390811691161490565b60009081526004602052604090206003015490565b600081815260046020908152604091829020601801805483518184028101840190945280845260609392830182828015611f5757602002820191906000526020600020905b81546001600160a01b03168152600190910190602001808311611fd15750505050509050919050565b60036020526000908152604090205481565b6000546001600160a01b031681565b6000848152600460205260409020601e015462010000900460ff166001141561208b576040805162461bcd60e51b815260206004820181905260248201527f566f74696e672070726f6365737320686173206265656e206465636c61726564604482015290519081900360640190fd5b6000848152600460205260409020601e015460ff61010090910416600114156120fb576040805162461bcd60e51b815260206004820152601f60248201527f566f74696e672070726f6365737320686173206265656e2073746f7070656400604482015290519081900360640190fd5b34821461214f576040805162461bcd60e51b815260206004820152601e60248201527f416d6f756e74206e6f7420657175616c20746f2073656e742076616c75650000604482015290519081900360640190fd5b6000848152600460205260409020600181015460039091015434146121bb576040805162461bcd60e51b815260206004820181905260248201527f50617274696369706174696f6e206665657320776173206e6f7420657175616c604482015290519081900360640190fd5b81600560006121c86126af565b6001600160a01b03166001600160a01b0316815260200190815260200160002090805190602001906121fb9291906126e0565b508060011415612298576000858152600460205260409020600501846006811061222157fe5b600302016002016122306126af565b8154600180820184556000938452602080852090920180546001600160a01b0319166001600160a01b039490941693909317909255878352600490526040909120600501856006811061227f57fe5b6003020160010160008282540192505081905550612310565b8060021415612310576006600086815260200190815260200160002060405180604001604052806122c76126af565b6001600160a01b0390811682526020918201889052835460018082018655600095865294839020845160029092020180546001600160a01b031916919092161781559101519101555b6000858152600460205260409020601701805460010190557fcf99bd6933f2b873c45d341be16c938695370243a5d9194cd67da6739f415ebb6123516126af565b604080516001600160a01b03909216825260208201889052818101879052519081900360600190a15050505050565b6000908152600460205260409020601c015490565b6000868152600460205260409020601e015460ff16600114156123ff576040805162461bcd60e51b815260206004820152601a60248201527f5175657374696f6e20696420616c726561647920657869737473000000000000604482015290519081900360640190fd5b81600214156124a25760005b8360ff168160ff161015612486576000878152600460205260409020819060050160ff82166006811061243a57fe5b60030201805460ff191660ff9283161790556000888152600460205260408120909160059091019083166006811061246e57fe5b6003020160010181905550808060010191505061240b565b50600086815260046020526040902060026001909101556124c0565b81600114156124c05760008681526004602052604090206001908101555b600086815260046020908152604090912080546001600160a01b03191673af7ebf3480b5684e4f40ae435074c09e6dc0d2a91781558651612509926002909201918801906126e0565b506000868152600460209081526040808320600381018890556017810193909355601e909201805462ffff001960ff19909116600117169055815173af7ebf3480b5684e4f40ae435074c09e6dc0d2a9815290810188905280820184905290517f3cd90f954f53736044120525de5a59295f9c18478d1c6e3c0f9e59c23deead319181900360600190a1505050505050565b6001600160a01b031660009081526003602052604090205490565b6000818152600460209081526040918290206002908101805484516001821615610100026000190190911692909204601f81018490048402830184019094528382526060939192909190830182828015611f575780601f10611f2c57610100808354040283529160200191611f57565b600081815260046020908152604091829020601b0180548351601f6002600019610100600186161502019093169290920491820184900484028101840190945280845260609392830182828015611f575780601f10611f2c57610100808354040283529160200191611f57565b6001546001600160a01b031681565b6001600160a01b03163190565b6000601836108015906126c657506126c633611f63565b156126da575060131936013560601c6126dd565b50335b90565b828054600181600116156101000203166002900490600052602060002090601f016020900481019282601f1061272157805160ff191683800117855561274e565b8280016001018555821561274e579182015b8281111561274e578251825591602001919060010190612733565b5061275a929150612818565b5090565b8280548282559060005260206000209081019282156127b3579160200282015b828111156127b357825182546001600160a01b0319166001600160a01b0390911617825560209092019160019091019061277e565b5061275a92915061282d565b82805482825590600052602060002090810192821561280c579160200282015b8281111561280c57825180516127fc9184916020909101906126e0565b50916020019190600101906127df565b5061275a92915061284c565b5b8082111561275a5760008155600101612819565b5b8082111561275a5780546001600160a01b031916815560010161282e565b8082111561275a5760006128608282612869565b5060010161284c565b50805460018160011615610100020316600290046000825580601f1061288f57506128ad565b601f0160209004906000526020600020908101906128ad9190612818565b5056fe5bcf5bc217a775f034679cdb974a5180ff85b8db07899fc7b7d87dd3ee15b44d4f6e6c792061646d696e2063616e207375626d69742074686520726967687420736f6c7574696f6e566f74696e672070726f6365737320686173206265656e20616c72656164792073746f70706564a2646970667358221220c1b02ace87625b3387ae1b4094738f89e11069e734346de396eca10ba0c5badd64736f6c63430007000033",
  "linkReferences": {},
  "deployedLinkReferences": {}
}