{
  "_format": "hh-sol-artifact-1",
  "contractName": "ERC1155Game",
  "sourceName": "contracts/RelatableGameContracts/ERC1155Game.sol",
  "abi": [
    {
      "anonymous": false,
      "inputs": [
        {
          "indexed": false,
          "internalType": "uint256",
          "name": "tokenId",
          "type": "uint256"
        },
        {
          "indexed": false,
          "internalType": "address",
          "name": "owner",
          "type": "address"
        }
      ],
      "name": "CookedDish",
      "type": "event"
    },
    {
      "anonymous": false,
      "inputs": [
        {
          "indexed": false,
          "internalType": "uint256",
          "name": "tokenId",
          "type": "uint256"
        },
        {
          "indexed": false,
          "internalType": "uint8",
          "name": "_tokenName",
          "type": "uint8"
        },
        {
          "indexed": false,
          "internalType": "address",
          "name": "buyer",
          "type": "address"
        }
      ],
      "name": "LogBuy",
      "type": "event"
    },
    {
      "anonymous": false,
      "inputs": [
        {
          "indexed": false,
          "internalType": "uint256",
          "name": "tokenId",
          "type": "uint256"
        },
        {
          "indexed": false,
          "internalType": "uint256[]",
          "name": "fixPrices",
          "type": "uint256[]"
        }
      ],
      "name": "LogSale",
      "type": "event"
    },
    {
      "anonymous": false,
      "inputs": [
        {
          "indexed": true,
          "internalType": "address",
          "name": "previousOwner",
          "type": "address"
        },
        {
          "indexed": true,
          "internalType": "address",
          "name": "newOwner",
          "type": "address"
        }
      ],
      "name": "OwnershipTransferred",
      "type": "event"
    },
    {
      "inputs": [
        {
          "internalType": "address",
          "name": "coinAddress",
          "type": "address"
        },
        {
          "internalType": "uint8",
          "name": "index",
          "type": "uint8"
        }
      ],
      "name": "addERC20Coin",
      "outputs": [
        {
          "internalType": "bool",
          "name": "",
          "type": "bool"
        }
      ],
      "stateMutability": "nonpayable",
      "type": "function"
    },
    {
      "inputs": [
        {
          "internalType": "uint256",
          "name": "id",
          "type": "uint256"
        },
        {
          "internalType": "uint8",
          "name": "_tokenName",
          "type": "uint8"
        }
      ],
      "name": "buyIngredient1NFT",
      "outputs": [
        {
          "internalType": "bool",
          "name": "",
          "type": "bool"
        }
      ],
      "stateMutability": "payable",
      "type": "function"
    },
    {
      "inputs": [
        {
          "internalType": "uint256",
          "name": "id",
          "type": "uint256"
        },
        {
          "internalType": "uint8",
          "name": "_tokenName",
          "type": "uint8"
        }
      ],
      "name": "buyIngredient2NFT",
      "outputs": [
        {
          "internalType": "bool",
          "name": "",
          "type": "bool"
        }
      ],
      "stateMutability": "payable",
      "type": "function"
    },
    {
      "inputs": [
        {
          "internalType": "uint256",
          "name": "id",
          "type": "uint256"
        },
        {
          "internalType": "address",
          "name": "owner",
          "type": "address"
        },
        {
          "internalType": "bytes",
          "name": "data",
          "type": "bytes"
        }
      ],
      "name": "cookDish",
      "outputs": [
        {
          "internalType": "bool",
          "name": "",
          "type": "bool"
        }
      ],
      "stateMutability": "nonpayable",
      "type": "function"
    },
    {
      "inputs": [
        {
          "internalType": "address",
          "name": "to",
          "type": "address"
        },
        {
          "internalType": "uint256",
          "name": "initialSupply",
          "type": "uint256"
        },
        {
          "internalType": "string",
          "name": "_Uri",
          "type": "string"
        },
        {
          "internalType": "bytes",
          "name": "_data",
          "type": "bytes"
        },
        {
          "internalType": "uint256[]",
          "name": "_burnTokenIdRequired",
          "type": "uint256[]"
        },
        {
          "internalType": "uint256[]",
          "name": "_burnTokensQtyRequired",
          "type": "uint256[]"
        }
      ],
      "name": "createDishNFT",
      "outputs": [
        {
          "internalType": "uint256",
          "name": "",
          "type": "uint256"
        }
      ],
      "stateMutability": "nonpayable",
      "type": "function"
    },
    {
      "inputs": [
        {
          "internalType": "address",
          "name": "to",
          "type": "address"
        },
        {
          "internalType": "uint256",
          "name": "initialSupply",
          "type": "uint256"
        },
        {
          "internalType": "string",
          "name": "_Uri",
          "type": "string"
        },
        {
          "internalType": "bytes",
          "name": "_data",
          "type": "bytes"
        },
        {
          "internalType": "uint8",
          "name": "_class",
          "type": "uint8"
        }
      ],
      "name": "createIngredientNFT",
      "outputs": [
        {
          "internalType": "uint256",
          "name": "",
          "type": "uint256"
        }
      ],
      "stateMutability": "nonpayable",
      "type": "function"
    },
    {
      "inputs": [
        {
          "internalType": "uint256",
          "name": "id",
          "type": "uint256"
        },
        {
          "internalType": "uint256[]",
          "name": "fixPrice",
          "type": "uint256[]"
        }
      ],
      "name": "fixSale1NFT",
      "outputs": [
        {
          "internalType": "bool",
          "name": "",
          "type": "bool"
        }
      ],
      "stateMutability": "nonpayable",
      "type": "function"
    },
    {
      "inputs": [
        {
          "internalType": "uint256",
          "name": "id",
          "type": "uint256"
        },
        {
          "internalType": "uint256[]",
          "name": "fixPrice",
          "type": "uint256[]"
        }
      ],
      "name": "fixSale2NFT",
      "outputs": [
        {
          "internalType": "bool",
          "name": "",
          "type": "bool"
        }
      ],
      "stateMutability": "nonpayable",
      "type": "function"
    },
    {
      "inputs": [
        {
          "internalType": "uint256",
          "name": "tokenId",
          "type": "uint256"
        }
      ],
      "name": "getBurnTokensDish",
      "outputs": [
        {
          "internalType": "uint256[]",
          "name": "",
          "type": "uint256[]"
        },
        {
          "internalType": "uint256[]",
          "name": "",
          "type": "uint256[]"
        }
      ],
      "stateMutability": "view",
      "type": "function"
    },
    {
      "inputs": [
        {
          "internalType": "uint8",
          "name": "index",
          "type": "uint8"
        }
      ],
      "name": "getCoinAddress",
      "outputs": [
        {
          "internalType": "address",
          "name": "",
          "type": "address"
        }
      ],
      "stateMutability": "view",
      "type": "function"
    },
    {
      "inputs": [
        {
          "internalType": "uint256",
          "name": "tokenId",
          "type": "uint256"
        }
      ],
      "name": "getTokenType",
      "outputs": [
        {
          "internalType": "uint8",
          "name": "",
          "type": "uint8"
        }
      ],
      "stateMutability": "view",
      "type": "function"
    },
    {
      "inputs": [
        {
          "internalType": "address",
          "name": "_tokenAddress",
          "type": "address"
        },
        {
          "internalType": "address",
          "name": "_beneficiary",
          "type": "address"
        },
        {
          "internalType": "address",
          "name": "USDCToken",
          "type": "address"
        }
      ],
      "name": "initialize",
      "outputs": [],
      "stateMutability": "nonpayable",
      "type": "function"
    },
    {
      "inputs": [],
      "name": "owner",
      "outputs": [
        {
          "internalType": "address",
          "name": "",
          "type": "address"
        }
      ],
      "stateMutability": "view",
      "type": "function"
    },
    {
      "inputs": [],
      "name": "renounceOwnership",
      "outputs": [],
      "stateMutability": "nonpayable",
      "type": "function"
    },
    {
      "inputs": [
        {
          "internalType": "address",
          "name": "newOwner",
          "type": "address"
        }
      ],
      "name": "transferOwnership",
      "outputs": [],
      "stateMutability": "nonpayable",
      "type": "function"
    }
  ],
  "bytecode": "0x608060405234801561001057600080fd5b506123c8806100206000396000f3fe6080604052600436106100e75760003560e01c80638da5cb5b1161008a578063c85b267f11610059578063c85b267f146106a0578063efccef3d146106c6578063f2fde38b1461078c578063f47d54bd146107bf576100e7565b80638da5cb5b1461056b5780638fffb29314610580578063c09216f1146105a6578063c0c53b8b1461065b576100e7565b80633cc331b8116100c65780633cc331b81461023a5780636f3e02061461032f578063715018a61461051457806376aed2e11461052b576100e7565b8062383016146100ec5780630126960b1461013557806322ecba93146101fe575b600080fd5b3480156100f857600080fd5b506101196004803603602081101561010f57600080fd5b503560ff16610882565b604080516001600160a01b039092168252519081900360200190f35b34801561014157600080fd5b506101ea6004803603604081101561015857600080fd5b81359190810190604081016020820135600160201b81111561017957600080fd5b82018360208201111561018b57600080fd5b803590602001918460208302840111600160201b831117156101ac57600080fd5b9190808060200260200160405190810160405280939291908181526020018383602002808284376000920191909152509295506108a0945050505050565b604080519115158252519081900360200190f35b34801561020a57600080fd5b506101ea6004803603604081101561022157600080fd5b5080356001600160a01b0316906020013560ff16610a2a565b34801561024657600080fd5b5061031d600480360360a081101561025d57600080fd5b6001600160a01b0382351691602081013591810190606081016040820135600160201b81111561028c57600080fd5b82018360208201111561029e57600080fd5b803590602001918460018302840111600160201b831117156102bf57600080fd5b919390929091602081019035600160201b8111156102dc57600080fd5b8201836020820111156102ee57600080fd5b803590602001918460018302840111600160201b8311171561030f57600080fd5b91935091503560ff16610b28565b60408051918252519081900360200190f35b34801561033b57600080fd5b5061031d600480360360c081101561035257600080fd5b6001600160a01b0382351691602081013591810190606081016040820135600160201b81111561038157600080fd5b82018360208201111561039357600080fd5b803590602001918460018302840111600160201b831117156103b457600080fd5b919390929091602081019035600160201b8111156103d157600080fd5b8201836020820111156103e357600080fd5b803590602001918460018302840111600160201b8311171561040457600080fd5b919390929091602081019035600160201b81111561042157600080fd5b82018360208201111561043357600080fd5b803590602001918460208302840111600160201b8311171561045457600080fd5b9190808060200260200160405190810160405280939291908181526020018383602002808284376000920191909152509295949360208101935035915050600160201b8111156104a357600080fd5b8201836020820111156104b557600080fd5b803590602001918460208302840111600160201b831117156104d657600080fd5b919080806020026020016040519081016040528093929190818152602001838360200280828437600092019190915250929550610d4b945050505050565b34801561052057600080fd5b50610529610f52565b005b34801561053757600080fd5b506105556004803603602081101561054e57600080fd5b5035610ffe565b6040805160ff9092168252519081900360200190f35b34801561057757600080fd5b50610119611013565b6101ea6004803603604081101561059657600080fd5b508035906020013560ff16611022565b3480156105b257600080fd5b506101ea600480360360408110156105c957600080fd5b81359190810190604081016020820135600160201b8111156105ea57600080fd5b8201836020820111156105fc57600080fd5b803590602001918460208302840111600160201b8311171561061d57600080fd5b9190808060200260200160405190810160405280939291908181526020018383602002808284376000920191909152509295506113aa945050505050565b34801561066757600080fd5b506105296004803603606081101561067e57600080fd5b506001600160a01b0381358116916020810135821691604090910135166114ac565b6101ea600480360360408110156106b657600080fd5b508035906020013560ff166115d3565b3480156106d257600080fd5b506101ea600480360360608110156106e957600080fd5b8135916001600160a01b0360208201351691810190606081016040820135600160201b81111561071857600080fd5b82018360208201111561072a57600080fd5b803590602001918460018302840111600160201b8311171561074b57600080fd5b91908080601f0160208091040260200160405190810160405280939291908181526020018383808284376000920191909152509295506118aa945050505050565b34801561079857600080fd5b50610529600480360360208110156107af57600080fd5b50356001600160a01b0316611c7f565b3480156107cb57600080fd5b506107e9600480360360208110156107e257600080fd5b5035611d82565b604051808060200180602001838103835285818151815260200191508051906020019060200280838360005b8381101561082d578181015183820152602001610815565b50505050905001838103825284818151815260200191508051906020019060200280838360005b8381101561086c578181015183820152602001610854565b5050505090500194505050505060405180910390f35b60ff166000908152609860205260409020546001600160a01b031690565b60006108aa611e49565b6001600160a01b03166108bb611013565b6001600160a01b031614610904576040805162461bcd60e51b8152602060048201819052602482015260008051602061231f833981519152604482015290519081900360640190fd5b6000838152609d602052604090205460ff166002146109545760405162461bcd60e51b81526004018080602001828103825260278152602001806122316027913960400191505060405180910390fd5b60005b82518160ff1610156109a257828160ff168151811061097257fe5b6020908102919091018101516000868152609a8352604080822060ff861683529093529190912055600101610957565b507f130fa0d22173805b05652f2f2b5bf3cc16c52be037c6f765fa5278387762188183836040518083815260200180602001828103825283818151815260200191508051906020019060200280838360005b83811015610a0c5781810151838201526020016109f4565b50505050905001935050505060405180910390a15060015b92915050565b6000610a34611e49565b6001600160a01b0316610a45611013565b6001600160a01b031614610a8e576040805162461bcd60e51b8152602060048201819052602482015260008051602061231f833981519152604482015290519081900360640190fd5b60ff82166000908152609860205260409020546001600160a01b031615610af3576040805162461bcd60e51b8152602060048201526014602482015273082d8e4cac2c8f240dac2e0e0cac840d2dcc8caf60631b604482015290519081900360640190fd5b5060ff16600090815260986020526040902080546001600160a01b0319166001600160a01b0392909216919091179055600190565b6000610b32611e49565b6001600160a01b0316610b43611013565b6001600160a01b031614610b8c576040805162461bcd60e51b8152602060048201819052602482015260008051602061231f833981519152604482015290519081900360640190fd5b60026065541415610bd2576040805162461bcd60e51b815260206004820152601f6024820152600080516020612258833981519152604482015290519081900360640190fd5b60026065556097546040516338e38ec960e21b81526001600160a01b038a811660048301908152602483018b9052608060448401908152608484018a9052600094929092169263e38e3b24928d928d928d928d928d928d9290606481019060a401878780828437600083820152601f01601f191690910184810383528581526020019050858580828437600081840152601f19601f82011690508083019250505098505050505050505050602060405180830381600087803b158015610c9757600080fd5b505af1158015610cab573d6000803e3d6000fd5b505050506040513d6020811015610cc157600080fd5b50516000818152609d60208181526040808420805460ff191660ff8a1617815581518581528084019283905294869052929091529151929350610d0a92600190910191906121d0565b506040805160008082526020808301808552858352609d9091529290209051610d3992600290920191906121d0565b50600160655598975050505050505050565b6000610d55611e49565b6001600160a01b0316610d66611013565b6001600160a01b031614610daf576040805162461bcd60e51b8152602060048201819052602482015260008051602061231f833981519152604482015290519081900360640190fd5b60026065541415610df5576040805162461bcd60e51b815260206004820152601f6024820152600080516020612258833981519152604482015290519081900360640190fd5b60026065556097546040516338e38ec960e21b81526001600160a01b038b811660048301908152602483018c9052608060448401908152608484018b9052600094929092169263e38e3b24928e928e928e928e928e928e9290606481019060a401878780828437600083820152601f01601f191690910184810383528581526020019050858580828437600081840152601f19601f82011690508083019250505098505050505050505050602060405180830381600087803b158015610eba57600080fd5b505af1158015610ece573d6000803e3d6000fd5b505050506040513d6020811015610ee457600080fd5b50516000818152609d60209081526040909120805460ff191660031781558651929350610f19926001909101918701906121d0565b506000818152609d602090815260409091208451610f3f926002909201918601906121d0565b5060016065559998505050505050505050565b610f5a611e49565b6001600160a01b0316610f6b611013565b6001600160a01b031614610fb4576040805162461bcd60e51b8152602060048201819052602482015260008051602061231f833981519152604482015290519081900360640190fd5b6033546040516000916001600160a01b0316907f8be0079c531659141344cd1fd0a4f28419497f9722a3daafe3b4186f6b6457e0908390a3603380546001600160a01b0319169055565b6000908152609d602052604090205460ff1690565b6033546001600160a01b031690565b60006002606554141561106a576040805162461bcd60e51b815260206004820152601f6024820152600080516020612258833981519152604482015290519081900360640190fd5b600260658190556000848152609d602052604090205460ff16146110bf5760405162461bcd60e51b81526004018080602001828103825260278152602001806122316027913960400191505060405180910390fd5b6000838152609a6020908152604080832060ff8616845290915290205461112d576040805162461bcd60e51b815260206004820152601b60248201527f43616e6e6f7420627579207573696e67207468697320746f6b656e0000000000604482015290519081900360640190fd5b6097546040805163bd85b03960e01b81526004810186905290516000926001600160a01b03169163bd85b039916024808301926020929190829003018186803b15801561117957600080fd5b505afa15801561118d573d6000803e3d6000fd5b505050506040513d60208110156111a357600080fd5b5051905060006111c86111c16111ba846002611e4d565b6065611ead565b6064611f07565b6000868152609a6020908152604080832060ff89168452909152812054919250906111f39083611e4d565b60ff86166000908152609860205260409020549091506001600160a01b0316806323b872dd611220611e49565b609b54604080516001600160e01b031960e086901b1681526001600160a01b039384166004820152929091166024830152604482018690525160648083019260209291908290030181600087803b15801561127a57600080fd5b505af115801561128e573d6000803e3d6000fd5b505050506040513d60208110156112a457600080fd5b50506097546001600160a01b031663731133e96112bf611e49565b604080516001600160e01b031960e085901b1681526001600160a01b039092166004830152602482018b905260016044830152608060648301526002608483015261060f60f31b60a48301525160c480830192600092919082900301818387803b15801561132c57600080fd5b505af1158015611340573d6000803e3d6000fd5b505050507fa3d392ddc935fc591d44655e541357e04f4e96eda59197b8f6200d51cbbcd843878761136f611e49565b6040805193845260ff90921660208401526001600160a01b031682820152519081900360600190a16001945050505050600160655592915050565b60006113b4611e49565b6001600160a01b03166113c5611013565b6001600160a01b03161461140e576040805162461bcd60e51b8152602060048201819052602482015260008051602061231f833981519152604482015290519081900360640190fd5b6000838152609d602052604090205460ff1660011461145e5760405162461bcd60e51b815260040180806020018281038252602781526020018061233f6027913960400191505060405180910390fd5b60005b82518160ff1610156109a257828160ff168151811061147c57fe5b602090810291909101810151600086815260998352604080822060ff861683529093529190912055600101611461565b600054610100900460ff16806114c557506114c5611f6e565b806114d3575060005460ff16155b61150e5760405162461bcd60e51b815260040180806020018281038252602e81526020018061229e602e913960400191505060405180910390fd5b600054610100900460ff16158015611539576000805460ff1961ff0019909116610100171660011790555b609b80546001600160a01b038086166001600160a01b031992831617909255609780549287169290911691909117905562015180609c55611578611f7f565b6000805260986020527fddaeee8e61001dbcfaf4f92c6943552c392a86665d734d3c1905d7b3c23b1b1e80546001600160a01b0319166001600160a01b03841617905580156115cd576000805461ff00191690555b50505050565b60006002606554141561161b576040805162461bcd60e51b815260206004820152601f6024820152600080516020612258833981519152604482015290519081900360640190fd5b60026065556000838152609d602052604090205460ff166001146116705760405162461bcd60e51b815260040180806020018281038252602781526020018061233f6027913960400191505060405180910390fd5b600083815260996020908152604080832060ff861684529091529020546116de576040805162461bcd60e51b815260206004820152601b60248201527f43616e6e6f7420627579207573696e67207468697320746f6b656e0000000000604482015290519081900360640190fd5b60ff82166000908152609860205260409020546001600160a01b0316806323b872dd611708611e49565b609b54600088815260996020908152604080832060ff8b16845282528083205481516001600160e01b031960e089901b1681526001600160a01b039687166004820152959094166024860152604485019390935291516064808501949192918390030190829087803b15801561177d57600080fd5b505af1158015611791573d6000803e3d6000fd5b505050506040513d60208110156117a757600080fd5b50506097546001600160a01b031663731133e96117c2611e49565b604080516001600160e01b031960e085901b1681526001600160a01b0390921660048301526024820188905260016044830152608060648301526002608483015261060f60f31b60a48301525160c480830192600092919082900301818387803b15801561182f57600080fd5b505af1158015611843573d6000803e3d6000fd5b505050507fa3d392ddc935fc591d44655e541357e04f4e96eda59197b8f6200d51cbbcd8438484611872611e49565b6040805193845260ff90921660208401526001600160a01b031682820152519081900360600190a16001915050600160655592915050565b6000600260655414156118f2576040805162461bcd60e51b815260206004820152601f6024820152600080516020612258833981519152604482015290519081900360640190fd5b60026065556118ff611e49565b6001600160a01b0316836001600160a01b031614806119ad57506097546001600160a01b031663e985e9c584611933611e49565b6040518363ffffffff1660e01b815260040180836001600160a01b03168152602001826001600160a01b031681526020019250505060206040518083038186803b15801561198057600080fd5b505afa158015611994573d6000803e3d6000fd5b505050506040513d60208110156119aa57600080fd5b50515b6119e85760405162461bcd60e51b815260040180806020018281038252602d815260200180612366602d913960400191505060405180910390fd5b6000848152609d602052604090205460ff16600314611a385760405162461bcd60e51b81526004018080602001828103825260328152602001806122cc6032913960400191505060405180910390fd5b6097546000858152609d6020526040908190209051631ac8311560e21b81526001600160a01b0386811660048301908152606060248401908152600185018054606486018190529390961695636b20c454958a9591946002909101939291604481019160849091019086908015611ace57602002820191906000526020600020905b815481526020019060010190808311611aba575b50508381038252848181548152602001915080548015611b0d57602002820191906000526020600020905b815481526020019060010190808311611af9575b505095505050505050600060405180830381600087803b158015611b3057600080fd5b505af1158015611b44573d6000803e3d6000fd5b505060975460405163731133e960e01b81526001600160a01b0387811660048301908152602483018a905260016044840181905260806064850190815289516084860152895193909516965063731133e9955089948b9491938a939260a40190602085019080838360005b83811015611bc7578181015183820152602001611baf565b50505050905090810190601f168015611bf45780820380516001836020036101000a031916815260200191505b5095505050505050600060405180830381600087803b158015611c1657600080fd5b505af1158015611c2a573d6000803e3d6000fd5b5050604080518781526001600160a01b038716602082015281517f73f25bb7c3ff9ca093bbd408273802e56680de66791a4b8cb2f1d2bb5cbe49149450908190039091019150a1506001806065559392505050565b611c87611e49565b6001600160a01b0316611c98611013565b6001600160a01b031614611ce1576040805162461bcd60e51b8152602060048201819052602482015260008051602061231f833981519152604482015290519081900360640190fd5b6001600160a01b038116611d265760405162461bcd60e51b81526004018080602001828103825260268152602001806122786026913960400191505060405180910390fd5b6033546040516001600160a01b038084169216907f8be0079c531659141344cd1fd0a4f28419497f9722a3daafe3b4186f6b6457e090600090a3603380546001600160a01b0319166001600160a01b0392909216919091179055565b6000818152609d6020908152604091829020600181018054845181850281018501909552808552606094859492936002019290918491830182828015611de757602002820191906000526020600020905b815481526020019060010190808311611dd3575b5050505050915080805480602002602001604051908101604052809291908181526020018280548015611e3957602002820191906000526020600020905b815481526020019060010190808311611e25575b5050505050905091509150915091565b3390565b600082611e5c57506000610a24565b82820282848281611e6957fe5b0414611ea65760405162461bcd60e51b81526004018080602001828103825260218152602001806122fe6021913960400191505060405180910390fd5b9392505050565b600082820183811015611ea6576040805162461bcd60e51b815260206004820152601b60248201527f536166654d6174683a206164646974696f6e206f766572666c6f770000000000604482015290519081900360640190fd5b6000808211611f5d576040805162461bcd60e51b815260206004820152601a60248201527f536166654d6174683a206469766973696f6e206279207a65726f000000000000604482015290519081900360640190fd5b818381611f6657fe5b049392505050565b6000611f7930612031565b15905090565b600054610100900460ff1680611f985750611f98611f6e565b80611fa6575060005460ff16155b611fe15760405162461bcd60e51b815260040180806020018281038252602e81526020018061229e602e913960400191505060405180910390fd5b600054610100900460ff1615801561200c576000805460ff1961ff0019909116610100171660011790555b612014612037565b61201c6120d7565b801561202e576000805461ff00191690555b50565b3b151590565b600054610100900460ff16806120505750612050611f6e565b8061205e575060005460ff16155b6120995760405162461bcd60e51b815260040180806020018281038252602e81526020018061229e602e913960400191505060405180910390fd5b600054610100900460ff1615801561201c576000805460ff1961ff001990911661010017166001179055801561202e576000805461ff001916905550565b600054610100900460ff16806120f057506120f0611f6e565b806120fe575060005460ff16155b6121395760405162461bcd60e51b815260040180806020018281038252602e81526020018061229e602e913960400191505060405180910390fd5b600054610100900460ff16158015612164576000805460ff1961ff0019909116610100171660011790555b600061216e611e49565b603380546001600160a01b0319166001600160a01b038316908117909155604051919250906000907f8be0079c531659141344cd1fd0a4f28419497f9722a3daafe3b4186f6b6457e0908290a350801561202e576000805461ff001916905550565b82805482825590600052602060002090810192821561220b579160200282015b8281111561220b5782518255916020019190600101906121f0565b5061221792915061221b565b5090565b5b80821115612217576000815560010161221c56fe4552433131353547616d653a2054686520746f6b656e20747970652073686f756c6420626520325265656e7472616e637947756172643a207265656e7472616e742063616c6c004f776e61626c653a206e6577206f776e657220697320746865207a65726f2061646472657373496e697469616c697a61626c653a20636f6e747261637420697320616c726561647920696e697469616c697a65644552433131353547616d653a2054686520746f6b656e20747970652073686f756c64206265203320666f7220646973686573536166654d6174683a206d756c7469706c69636174696f6e206f766572666c6f774f776e61626c653a2063616c6c6572206973206e6f7420746865206f776e65724552433131353547616d653a2054686520746f6b656e20747970652073686f756c6420626520314552433131353547414d453a2063616c6c6572206973206e6f74206f776e6572206e6f7220617070726f766564a26469706673582212203b9d3e117de1eb10c2f2cdda8c524f5eb989e4e73b191ae8196a68c43311e9a164736f6c63430007000033",
  "linkReferences": {},
  "deployedLinkReferences": {}
}