{
  "_format": "hh-sol-artifact-1",
  "contractName": "ERC1155Game",
  "sourceName": "contracts/RelatableGameContracts/ERC1155Game.sol",
  "abi": [
    {
      "anonymous": false,
      "inputs": [
        {
          "indexed": false,
          "internalType": "uint256",
          "name": "tokenId",
          "type": "uint256"
        },
        {
          "indexed": false,
          "internalType": "address",
          "name": "owner",
          "type": "address"
        }
      ],
      "name": "CookedDish",
      "type": "event"
    },
    {
      "anonymous": false,
      "inputs": [
        {
          "indexed": false,
          "internalType": "uint256",
          "name": "tokenId",
          "type": "uint256"
        },
        {
          "indexed": false,
          "internalType": "address",
          "name": "bidder",
          "type": "address"
        },
        {
          "indexed": false,
          "internalType": "uint256",
          "name": "bid",
          "type": "uint256"
        }
      ],
      "name": "LogBid",
      "type": "event"
    },
    {
      "anonymous": false,
      "inputs": [
        {
          "indexed": false,
          "internalType": "uint256",
          "name": "tokenId",
          "type": "uint256"
        },
        {
          "indexed": false,
          "internalType": "uint8",
          "name": "_tokenName",
          "type": "uint8"
        },
        {
          "indexed": false,
          "internalType": "address",
          "name": "buyer",
          "type": "address"
        }
      ],
      "name": "LogBuy",
      "type": "event"
    },
    {
      "anonymous": false,
      "inputs": [
        {
          "indexed": false,
          "internalType": "uint256",
          "name": "tokenId",
          "type": "uint256"
        }
      ],
      "name": "LogCanceled",
      "type": "event"
    },
    {
      "anonymous": false,
      "inputs": [
        {
          "indexed": false,
          "internalType": "uint256",
          "name": "tokenId",
          "type": "uint256"
        },
        {
          "indexed": false,
          "internalType": "uint256",
          "name": "_startTime",
          "type": "uint256"
        },
        {
          "indexed": false,
          "internalType": "uint256",
          "name": "_endTime",
          "type": "uint256"
        },
        {
          "indexed": false,
          "internalType": "uint256",
          "name": "_bidIncrement",
          "type": "uint256"
        },
        {
          "indexed": false,
          "internalType": "uint256",
          "name": "_basePrice",
          "type": "uint256"
        }
      ],
      "name": "LogCreate",
      "type": "event"
    },
    {
      "anonymous": false,
      "inputs": [
        {
          "indexed": false,
          "internalType": "uint256",
          "name": "tokenId",
          "type": "uint256"
        },
        {
          "indexed": false,
          "internalType": "uint256[]",
          "name": "fixPrices",
          "type": "uint256[]"
        }
      ],
      "name": "LogSale",
      "type": "event"
    },
    {
      "anonymous": false,
      "inputs": [
        {
          "indexed": false,
          "internalType": "uint256",
          "name": "tokenId",
          "type": "uint256"
        },
        {
          "indexed": false,
          "internalType": "address",
          "name": "withdrawalAccount",
          "type": "address"
        },
        {
          "indexed": false,
          "internalType": "uint256",
          "name": "amount",
          "type": "uint256"
        }
      ],
      "name": "LogWithdrawal",
      "type": "event"
    },
    {
      "anonymous": false,
      "inputs": [
        {
          "indexed": true,
          "internalType": "address",
          "name": "previousOwner",
          "type": "address"
        },
        {
          "indexed": true,
          "internalType": "address",
          "name": "newOwner",
          "type": "address"
        }
      ],
      "name": "OwnershipTransferred",
      "type": "event"
    },
    {
      "inputs": [
        {
          "internalType": "address",
          "name": "coinAddress",
          "type": "address"
        },
        {
          "internalType": "uint8",
          "name": "index",
          "type": "uint8"
        }
      ],
      "name": "addERC20Coin",
      "outputs": [
        {
          "internalType": "bool",
          "name": "",
          "type": "bool"
        }
      ],
      "stateMutability": "nonpayable",
      "type": "function"
    },
    {
      "inputs": [
        {
          "internalType": "uint256",
          "name": "tokenId",
          "type": "uint256"
        }
      ],
      "name": "auctionEnd",
      "outputs": [],
      "stateMutability": "nonpayable",
      "type": "function"
    },
    {
      "inputs": [
        {
          "internalType": "uint256",
          "name": "id",
          "type": "uint256"
        },
        {
          "internalType": "uint8",
          "name": "_tokenName",
          "type": "uint8"
        }
      ],
      "name": "buyIngredientNFT",
      "outputs": [
        {
          "internalType": "bool",
          "name": "",
          "type": "bool"
        }
      ],
      "stateMutability": "payable",
      "type": "function"
    },
    {
      "inputs": [
        {
          "internalType": "uint256",
          "name": "tokenId",
          "type": "uint256"
        }
      ],
      "name": "cancelAuction",
      "outputs": [
        {
          "internalType": "bool",
          "name": "",
          "type": "bool"
        }
      ],
      "stateMutability": "nonpayable",
      "type": "function"
    },
    {
      "inputs": [
        {
          "internalType": "uint256",
          "name": "_timePeriodBid",
          "type": "uint256"
        }
      ],
      "name": "changeTimeBid",
      "outputs": [],
      "stateMutability": "nonpayable",
      "type": "function"
    },
    {
      "inputs": [
        {
          "internalType": "uint256",
          "name": "id",
          "type": "uint256"
        },
        {
          "internalType": "address",
          "name": "owner",
          "type": "address"
        },
        {
          "internalType": "bytes",
          "name": "data",
          "type": "bytes"
        }
      ],
      "name": "cookDish",
      "outputs": [
        {
          "internalType": "bool",
          "name": "",
          "type": "bool"
        }
      ],
      "stateMutability": "nonpayable",
      "type": "function"
    },
    {
      "inputs": [
        {
          "internalType": "uint256",
          "name": "tokenId",
          "type": "uint256"
        },
        {
          "internalType": "uint256",
          "name": "_bidIncrement",
          "type": "uint256"
        },
        {
          "internalType": "uint256",
          "name": "_basePrice",
          "type": "uint256"
        },
        {
          "internalType": "uint8",
          "name": "_tokenName",
          "type": "uint8"
        }
      ],
      "name": "createAuction",
      "outputs": [
        {
          "internalType": "bool",
          "name": "",
          "type": "bool"
        }
      ],
      "stateMutability": "nonpayable",
      "type": "function"
    },
    {
      "inputs": [
        {
          "internalType": "address",
          "name": "to",
          "type": "address"
        },
        {
          "internalType": "uint256",
          "name": "initialSupply",
          "type": "uint256"
        },
        {
          "internalType": "string",
          "name": "_Uri",
          "type": "string"
        },
        {
          "internalType": "bytes",
          "name": "_data",
          "type": "bytes"
        },
        {
          "internalType": "uint256[]",
          "name": "_burnTokenIdRequired",
          "type": "uint256[]"
        },
        {
          "internalType": "uint256[]",
          "name": "_burnTokensQtyRequired",
          "type": "uint256[]"
        }
      ],
      "name": "createDishNFT",
      "outputs": [
        {
          "internalType": "uint256",
          "name": "",
          "type": "uint256"
        }
      ],
      "stateMutability": "nonpayable",
      "type": "function"
    },
    {
      "inputs": [
        {
          "internalType": "address",
          "name": "to",
          "type": "address"
        },
        {
          "internalType": "uint256",
          "name": "initialSupply",
          "type": "uint256"
        },
        {
          "internalType": "string",
          "name": "_Uri",
          "type": "string"
        },
        {
          "internalType": "bytes",
          "name": "_data",
          "type": "bytes"
        },
        {
          "internalType": "uint8",
          "name": "_class",
          "type": "uint8"
        }
      ],
      "name": "createIngredientNFT",
      "outputs": [
        {
          "internalType": "uint256",
          "name": "",
          "type": "uint256"
        }
      ],
      "stateMutability": "nonpayable",
      "type": "function"
    },
    {
      "inputs": [
        {
          "internalType": "uint256",
          "name": "id",
          "type": "uint256"
        },
        {
          "internalType": "uint256[]",
          "name": "fixPrice",
          "type": "uint256[]"
        }
      ],
      "name": "fixSaleNFT",
      "outputs": [
        {
          "internalType": "bool",
          "name": "",
          "type": "bool"
        }
      ],
      "stateMutability": "nonpayable",
      "type": "function"
    },
    {
      "inputs": [
        {
          "internalType": "uint256",
          "name": "tokenId",
          "type": "uint256"
        }
      ],
      "name": "getBurnTokensDish",
      "outputs": [
        {
          "internalType": "uint256[]",
          "name": "",
          "type": "uint256[]"
        },
        {
          "internalType": "uint256[]",
          "name": "",
          "type": "uint256[]"
        }
      ],
      "stateMutability": "view",
      "type": "function"
    },
    {
      "inputs": [
        {
          "internalType": "uint8",
          "name": "index",
          "type": "uint8"
        }
      ],
      "name": "getCoinAddress",
      "outputs": [
        {
          "internalType": "address",
          "name": "",
          "type": "address"
        }
      ],
      "stateMutability": "view",
      "type": "function"
    },
    {
      "inputs": [
        {
          "internalType": "uint256",
          "name": "tokenId",
          "type": "uint256"
        }
      ],
      "name": "getHighestBid",
      "outputs": [
        {
          "internalType": "uint256",
          "name": "",
          "type": "uint256"
        }
      ],
      "stateMutability": "view",
      "type": "function"
    },
    {
      "inputs": [
        {
          "internalType": "uint256",
          "name": "tokenId",
          "type": "uint256"
        }
      ],
      "name": "getTokenType",
      "outputs": [
        {
          "internalType": "uint8",
          "name": "",
          "type": "uint8"
        }
      ],
      "stateMutability": "view",
      "type": "function"
    },
    {
      "inputs": [
        {
          "internalType": "address",
          "name": "_tokenAddress",
          "type": "address"
        },
        {
          "internalType": "address",
          "name": "_beneficiary",
          "type": "address"
        },
        {
          "internalType": "address",
          "name": "USDCToken",
          "type": "address"
        }
      ],
      "name": "initialize",
      "outputs": [],
      "stateMutability": "nonpayable",
      "type": "function"
    },
    {
      "inputs": [],
      "name": "owner",
      "outputs": [
        {
          "internalType": "address",
          "name": "",
          "type": "address"
        }
      ],
      "stateMutability": "view",
      "type": "function"
    },
    {
      "inputs": [
        {
          "internalType": "uint256",
          "name": "tokenId",
          "type": "uint256"
        },
        {
          "internalType": "uint256",
          "name": "_amount",
          "type": "uint256"
        }
      ],
      "name": "placeBid",
      "outputs": [
        {
          "internalType": "bool",
          "name": "",
          "type": "bool"
        }
      ],
      "stateMutability": "nonpayable",
      "type": "function"
    },
    {
      "inputs": [],
      "name": "renounceOwnership",
      "outputs": [],
      "stateMutability": "nonpayable",
      "type": "function"
    },
    {
      "inputs": [
        {
          "internalType": "address",
          "name": "newOwner",
          "type": "address"
        }
      ],
      "name": "transferOwnership",
      "outputs": [],
      "stateMutability": "nonpayable",
      "type": "function"
    },
    {
      "inputs": [
        {
          "internalType": "uint256",
          "name": "tokenId",
          "type": "uint256"
        }
      ],
      "name": "withdraw",
      "outputs": [
        {
          "internalType": "bool",
          "name": "",
          "type": "bool"
        }
      ],
      "stateMutability": "nonpayable",
      "type": "function"
    }
  ],
  "bytecode": "0x608060405234801561001057600080fd5b50612bd3806100206000396000f3fe60806040526004361061011e5760003560e01c80638f288644116100a0578063b2e2070c11610064578063b2e2070c146106f4578063c0c53b8b1461071e578063efccef3d14610763578063f2fde38b14610829578063f47d54bd1461085c5761011e565b80638f288644146105865780638f4a6896146105b057806396b5a755146105ef5780639c57403614610619578063a79a38df1461063f5761011e565b806357c90de5116100e757806357c90de5146103075780636f3e020614610337578063715018a61461051c57806376aed2e1146105315780638da5cb5b146105715761011e565b80623830161461012357806322ecba931461016c5780632e1a7d4d146101bc57806332246e9f146101e65780633cc331b814610212575b600080fd5b34801561012f57600080fd5b506101506004803603602081101561014657600080fd5b503560ff1661091f565b604080516001600160a01b039092168252519081900360200190f35b34801561017857600080fd5b506101a86004803603604081101561018f57600080fd5b5080356001600160a01b0316906020013560ff1661093d565b604080519115158252519081900360200190f35b3480156101c857600080fd5b506101a8600480360360208110156101df57600080fd5b5035610a3b565b3480156101f257600080fd5b506102106004803603602081101561020957600080fd5b5035610c58565b005b34801561021e57600080fd5b506102f5600480360360a081101561023557600080fd5b6001600160a01b0382351691602081013591810190606081016040820135600160201b81111561026457600080fd5b82018360208201111561027657600080fd5b803590602001918460018302840111600160201b8311171561029757600080fd5b919390929091602081019035600160201b8111156102b457600080fd5b8201836020820111156102c657600080fd5b803590602001918460018302840111600160201b831117156102e757600080fd5b91935091503560ff16610edc565b60408051918252519081900360200190f35b34801561031357600080fd5b506101a86004803603604081101561032a57600080fd5b50803590602001356110ff565b34801561034357600080fd5b506102f5600480360360c081101561035a57600080fd5b6001600160a01b0382351691602081013591810190606081016040820135600160201b81111561038957600080fd5b82018360208201111561039b57600080fd5b803590602001918460018302840111600160201b831117156103bc57600080fd5b919390929091602081019035600160201b8111156103d957600080fd5b8201836020820111156103eb57600080fd5b803590602001918460018302840111600160201b8311171561040c57600080fd5b919390929091602081019035600160201b81111561042957600080fd5b82018360208201111561043b57600080fd5b803590602001918460208302840111600160201b8311171561045c57600080fd5b9190808060200260200160405190810160405280939291908181526020018383602002808284376000920191909152509295949360208101935035915050600160201b8111156104ab57600080fd5b8201836020820111156104bd57600080fd5b803590602001918460208302840111600160201b831117156104de57600080fd5b91908080602002602001604051908101604052809392919081815260200183836020028082843760009201919091525092955061147c945050505050565b34801561052857600080fd5b50610210611683565b34801561053d57600080fd5b5061055b6004803603602081101561055457600080fd5b503561172f565b6040805160ff9092168252519081900360200190f35b34801561057d57600080fd5b50610150611744565b34801561059257600080fd5b506102f5600480360360208110156105a957600080fd5b5035611753565b3480156105bc57600080fd5b506101a8600480360360808110156105d357600080fd5b508035906020810135906040810135906060013560ff16611768565b3480156105fb57600080fd5b506101a86004803603602081101561061257600080fd5b5035611974565b6101a86004803603604081101561062f57600080fd5b508035906020013560ff16611b48565b34801561064b57600080fd5b506101a86004803603604081101561066257600080fd5b81359190810190604081016020820135600160201b81111561068357600080fd5b82018360208201111561069557600080fd5b803590602001918460208302840111600160201b831117156106b657600080fd5b919080806020026020016040519081016040528093929190818152602001838360200280828437600092019190915250929550611e1f945050505050565b34801561070057600080fd5b506102106004803603602081101561071757600080fd5b5035611fa8565b34801561072a57600080fd5b506102106004803603606081101561074157600080fd5b506001600160a01b03813581169160208101358216916040909101351661200f565b34801561076f57600080fd5b506101a86004803603606081101561078657600080fd5b8135916001600160a01b0360208201351691810190606081016040820135600160201b8111156107b557600080fd5b8201836020820111156107c757600080fd5b803590602001918460018302840111600160201b831117156107e857600080fd5b91908080601f016020809104026020016040519081016040528093929190818152602001838380828437600092019190915250929550612136945050505050565b34801561083557600080fd5b506102106004803603602081101561084c57600080fd5b50356001600160a01b031661250b565b34801561086857600080fd5b506108866004803603602081101561087f57600080fd5b503561260e565b604051808060200180602001838103835285818151815260200191508051906020019060200280838360005b838110156108ca5781810151838201526020016108b2565b50505050905001838103825284818151815260200191508051906020019060200280838360005b838110156109095781810151838201526020016108f1565b5050505090500194505050505060405180910390f35b60ff166000908152609860205260409020546001600160a01b031690565b60006109476126d5565b6001600160a01b0316610958611744565b6001600160a01b0316146109a1576040805162461bcd60e51b81526020600482018190526024820152600080516020612ae7833981519152604482015290519081900360640190fd5b60ff82166000908152609860205260409020546001600160a01b031615610a06576040805162461bcd60e51b8152602060048201526014602482015273082d8e4cac2c8f240dac2e0e0cac840d2dcc8caf60631b604482015290519081900360640190fd5b5060ff16600090815260986020526040902080546001600160a01b0319166001600160a01b0392909216919091179055600190565b600060026065541415610a83576040805162461bcd60e51b815260206004820152601f60248201526000805160206129fd833981519152604482015290519081900360640190fd5b60026065556000828152609a60205260409020600601546001600160a01b0316610aab6126d5565b6001600160a01b03161415610b07576040805162461bcd60e51b815260206004820152601d60248201527f48696768657374206269646465722063616e2774207769746864726177000000604482015290519081900360640190fd5b6000610b116126d5565b6000848152609a602090815260408083206001600160a01b038516845260070190915290205490915080610b4457600080fd5b6000848152609a602090815260408083206001600160a01b0386811680865260078301855283862080548890039055600890920154610100900460ff1685526098845282852054835163a9059cbb60e01b81526004810193909352602483018790529251921693849363a9059cbb93604480850194929391928390030190829087803b158015610bd357600080fd5b505af1158015610be7573d6000803e3d6000fd5b505050506040513d6020811015610bfd57600080fd5b5050604080518681526001600160a01b038516602082015280820184905290517ff14cd1bb289d45f28f1d192add66893331fa3b3fa7a2a9dd1cc7e076dd817e199181900360600190a1600193505050506001606555919050565b610c606126d5565b6001600160a01b0316610c71611744565b6001600160a01b031614610cba576040805162461bcd60e51b81526020600482018190526024820152600080516020612ae7833981519152604482015290519081900360640190fd5b6000818152609a602052604090206008015460ff1615610d0b5760405162461bcd60e51b8152600401808060200182810382526023815260200180612a646023913960400191505060405180910390fd5b6000818152609a60205260409020600601546001600160a01b0316301415610d7a576040805162461bcd60e51b815260206004820152601960248201527f4e6f6f6e652070617274696369706174656420696e2062696400000000000000604482015290519081900360640190fd5b6097546000828152609a602052604080822060060154815163731133e960e01b81526001600160a01b03918216600482015260248101869052600160448201526080606482015260848101849052915193169263731133e99260c48084019391929182900301818387803b158015610df157600080fd5b505af1158015610e05573d6000803e3d6000fd5b5050506000828152609a602081815260408084206008810154610100900460ff1685526098835281852054609b54888752948452600590910154825163a9059cbb60e01b81526001600160a01b0395861660048201526024810191909152915193169450849363a9059cbb93604480840194939192918390030190829087803b158015610e9157600080fd5b505af1158015610ea5573d6000803e3d6000fd5b505050506040513d6020811015610ebb57600080fd5b5050506000908152609a60205260409020600801805460ff19166001179055565b6000610ee66126d5565b6001600160a01b0316610ef7611744565b6001600160a01b031614610f40576040805162461bcd60e51b81526020600482018190526024820152600080516020612ae7833981519152604482015290519081900360640190fd5b60026065541415610f86576040805162461bcd60e51b815260206004820152601f60248201526000805160206129fd833981519152604482015290519081900360640190fd5b60026065556097546040516338e38ec960e21b81526001600160a01b038a811660048301908152602483018b9052608060448401908152608484018a9052600094929092169263e38e3b24928d928d928d928d928d928d9290606481019060a401878780828437600083820152601f01601f191690910184810383528581526020019050858580828437600081840152601f19601f82011690508083019250505098505050505050505050602060405180830381600087803b15801561104b57600080fd5b505af115801561105f573d6000803e3d6000fd5b505050506040513d602081101561107557600080fd5b50516000818152609d60208181526040808420805460ff191660ff8a16178155815185815280840192839052948690529290915291519293506110be926001909101919061299c565b506040805160008082526020808301808552858352609d90915292902090516110ed926002909201919061299c565b50600160655598975050505050505050565b6000828152609a60205260408120600101544211611164576040805162461bcd60e51b815260206004820152601760248201527f42696464696e67206e6f74207965742073746172746564000000000000000000604482015290519081900360640190fd5b6000838152609a602052604090206002015442106111c1576040805162461bcd60e51b8152602060048201526015602482015274109a59191a5b99c8185b1c9958591e48195b991959605a1b604482015290519081900360640190fd5b6000838152609a602052604090206004015460ff1615611223576040805162461bcd60e51b8152602060048201526018602482015277109a59191a5b99c8185b1c9958591e4818d85b98d95b195960421b604482015290519081900360640190fd5b6000838152609a6020526040812061126890600701826112416126d5565b6001600160a01b03166001600160a01b0316815260200190815260200160002054846126d9565b6000858152609a6020526040902060058101549054919250611289916126d9565b81101580156112a957506000848152609a60205260409020600301548310155b6112e45760405162461bcd60e51b8152600401808060200182810382526043815260200180612b5b6043913960600191505060405180910390fd5b6000848152609a6020908152604080832060080154610100900460ff168084526098909252909120546001600160a01b0316806323b872dd6113246126d5565b30886040518463ffffffff1660e01b815260040180846001600160a01b03168152602001836001600160a01b031681526020018281526020019350505050602060405180830381600087803b15801561137c57600080fd5b505af1158015611390573d6000803e3d6000fd5b505050506040513d60208110156113a657600080fd5b50506000868152609a6020526040812084916007909101906113c66126d5565b6001600160a01b031681526020810191909152604001600020556113e86126d5565b6000878152609a602052604090206006810180546001600160a01b0319166001600160a01b0393909316929092179091556005018390557fa1818edb3ef6a5a8e13a8a974ad182890a4dcad68dd5f73ee12a66e16b767ddb866114496126d5565b604080519283526001600160a01b039091166020830152818101869052519081900360600190a150600195945050505050565b60006114866126d5565b6001600160a01b0316611497611744565b6001600160a01b0316146114e0576040805162461bcd60e51b81526020600482018190526024820152600080516020612ae7833981519152604482015290519081900360640190fd5b60026065541415611526576040805162461bcd60e51b815260206004820152601f60248201526000805160206129fd833981519152604482015290519081900360640190fd5b60026065556097546040516338e38ec960e21b81526001600160a01b038b811660048301908152602483018c9052608060448401908152608484018b9052600094929092169263e38e3b24928e928e928e928e928e928e9290606481019060a401878780828437600083820152601f01601f191690910184810383528581526020019050858580828437600081840152601f19601f82011690508083019250505098505050505050505050602060405180830381600087803b1580156115eb57600080fd5b505af11580156115ff573d6000803e3d6000fd5b505050506040513d602081101561161557600080fd5b50516000818152609d60209081526040909120805460ff19166003178155865192935061164a9260019091019187019061299c565b506000818152609d6020908152604090912084516116709260029092019186019061299c565b5060016065559998505050505050505050565b61168b6126d5565b6001600160a01b031661169c611744565b6001600160a01b0316146116e5576040805162461bcd60e51b81526020600482018190526024820152600080516020612ae7833981519152604482015290519081900360640190fd5b6033546040516000916001600160a01b0316907f8be0079c531659141344cd1fd0a4f28419497f9722a3daafe3b4186f6b6457e0908390a3603380546001600160a01b0319169055565b6000908152609d602052604090205460ff1690565b6033546001600160a01b031690565b6000908152609a602052604090206005015490565b60006117726126d5565b6001600160a01b0316611783611744565b6001600160a01b0316146117cc576040805162461bcd60e51b81526020600482018190526024820152600080516020612ae7833981519152604482015290519081900360640190fd5b6000858152609d602052604090205460ff16600214611832576040805162461bcd60e51b815260206004820152601d60248201527f54797065206f66204e465420746f6b656e2073686f756c642062652032000000604482015290519081900360640190fd5b6000858152609a602052604090206008015460ff1615156001146118b5576000858152609a602052604090206002015442116118b5576040805162461bcd60e51b815260206004820152601c60248201527f4561726c6965722061756374696f6e206e6f742066696e697368656400000000604482015290519081900360640190fd5b6000858152609a60209081526040918290208681554260018201819055609c8054820160028401556003830188905560048301805460ff1916905560088301805460ff89166101000261ffff19909116179055600690920180546001600160a01b03191630179055905483518981529283018290520181830152606081018690526080810185905290517f51a6168ca516cd8c5f3cbd6ec8d5e2dd4577a0be9f95106687234b3b70cc42269181900360a00190a1506001949350505050565b600061197e6126d5565b6001600160a01b031661198f611744565b6001600160a01b0316146119d8576040805162461bcd60e51b81526020600482018190526024820152600080516020612ae7833981519152604482015290519081900360640190fd5b6000828152609a602052604090206004015460ff1615611a3a576040805162461bcd60e51b8152602060048201526018602482015277109a59191a5b99c8185b1c9958591e4818d85b98d95b195960421b604482015290519081900360640190fd5b6000828152609a60205260409020600201544210611a97576040805162461bcd60e51b8152602060048201526015602482015274109a59191a5b99c8185b1c9958591e48195b991959605a1b604482015290519081900360640190fd5b6000828152609a60205260409020600601546001600160a01b03163014611aef5760405162461bcd60e51b8152600401808060200182810382526021815260200180612a436021913960400191505060405180910390fd5b6000828152609a6020908152604091829020600401805460ff19166001179055815184815291517f367cbf2d36bb6bad692684658bf7c839e55a29069ae07078c3803794a0a077fa9281900390910190a1506001919050565b600060026065541415611b90576040805162461bcd60e51b815260206004820152601f60248201526000805160206129fd833981519152604482015290519081900360640190fd5b60026065556000838152609d602052604090205460ff16600114611be55760405162461bcd60e51b8152600401808060200182810382526027815260200180612b076027913960400191505060405180910390fd5b600083815260996020908152604080832060ff86168452909152902054611c53576040805162461bcd60e51b815260206004820152601b60248201527f43616e6e6f7420627579207573696e67207468697320746f6b656e0000000000604482015290519081900360640190fd5b60ff82166000908152609860205260409020546001600160a01b0316806323b872dd611c7d6126d5565b609b54600088815260996020908152604080832060ff8b16845282528083205481516001600160e01b031960e089901b1681526001600160a01b039687166004820152959094166024860152604485019390935291516064808501949192918390030190829087803b158015611cf257600080fd5b505af1158015611d06573d6000803e3d6000fd5b505050506040513d6020811015611d1c57600080fd5b50506097546001600160a01b031663731133e9611d376126d5565b604080516001600160e01b031960e085901b1681526001600160a01b0390921660048301526024820188905260016044830152608060648301526002608483015261060f60f31b60a48301525160c480830192600092919082900301818387803b158015611da457600080fd5b505af1158015611db8573d6000803e3d6000fd5b505050507fa3d392ddc935fc591d44655e541357e04f4e96eda59197b8f6200d51cbbcd8438484611de76126d5565b6040805193845260ff90921660208401526001600160a01b031682820152519081900360600190a16001915050600160655592915050565b6000611e296126d5565b6001600160a01b0316611e3a611744565b6001600160a01b031614611e83576040805162461bcd60e51b81526020600482018190526024820152600080516020612ae7833981519152604482015290519081900360640190fd5b6000838152609d602052604090205460ff16600114611ed35760405162461bcd60e51b8152600401808060200182810382526027815260200180612b076027913960400191505060405180910390fd5b60005b82518160ff161015611f2157828160ff1681518110611ef157fe5b602090810291909101810151600086815260998352604080822060ff861683529093529190912055600101611ed6565b507f130fa0d22173805b05652f2f2b5bf3cc16c52be037c6f765fa5278387762188183836040518083815260200180602001828103825283818151815260200191508051906020019060200280838360005b83811015611f8b578181015183820152602001611f73565b50505050905001935050505060405180910390a150600192915050565b611fb06126d5565b6001600160a01b0316611fc1611744565b6001600160a01b03161461200a576040805162461bcd60e51b81526020600482018190526024820152600080516020612ae7833981519152604482015290519081900360640190fd5b609c55565b600054610100900460ff1680612028575061202861273a565b80612036575060005460ff16155b6120715760405162461bcd60e51b815260040180806020018281038252602e815260200180612a87602e913960400191505060405180910390fd5b600054610100900460ff1615801561209c576000805460ff1961ff0019909116610100171660011790555b609b80546001600160a01b038086166001600160a01b031992831617909255609780549287169290911691909117905562015180609c556120db61274b565b6000805260986020527fddaeee8e61001dbcfaf4f92c6943552c392a86665d734d3c1905d7b3c23b1b1e80546001600160a01b0319166001600160a01b0384161790558015612130576000805461ff00191690555b50505050565b60006002606554141561217e576040805162461bcd60e51b815260206004820152601f60248201526000805160206129fd833981519152604482015290519081900360640190fd5b600260655561218b6126d5565b6001600160a01b0316836001600160a01b0316148061223957506097546001600160a01b031663e985e9c5846121bf6126d5565b6040518363ffffffff1660e01b815260040180836001600160a01b03168152602001826001600160a01b031681526020019250505060206040518083038186803b15801561220c57600080fd5b505afa158015612220573d6000803e3d6000fd5b505050506040513d602081101561223657600080fd5b50515b6122745760405162461bcd60e51b815260040180806020018281038252602d815260200180612b2e602d913960400191505060405180910390fd5b6000848152609d602052604090205460ff166003146122c45760405162461bcd60e51b8152600401808060200182810382526032815260200180612ab56032913960400191505060405180910390fd5b6097546000858152609d6020526040908190209051631ac8311560e21b81526001600160a01b0386811660048301908152606060248401908152600185018054606486018190529390961695636b20c454958a959194600290910193929160448101916084909101908690801561235a57602002820191906000526020600020905b815481526020019060010190808311612346575b5050838103825284818154815260200191508054801561239957602002820191906000526020600020905b815481526020019060010190808311612385575b505095505050505050600060405180830381600087803b1580156123bc57600080fd5b505af11580156123d0573d6000803e3d6000fd5b505060975460405163731133e960e01b81526001600160a01b0387811660048301908152602483018a905260016044840181905260806064850190815289516084860152895193909516965063731133e9955089948b9491938a939260a40190602085019080838360005b8381101561245357818101518382015260200161243b565b50505050905090810190601f1680156124805780820380516001836020036101000a031916815260200191505b5095505050505050600060405180830381600087803b1580156124a257600080fd5b505af11580156124b6573d6000803e3d6000fd5b5050604080518781526001600160a01b038716602082015281517f73f25bb7c3ff9ca093bbd408273802e56680de66791a4b8cb2f1d2bb5cbe49149450908190039091019150a1506001806065559392505050565b6125136126d5565b6001600160a01b0316612524611744565b6001600160a01b03161461256d576040805162461bcd60e51b81526020600482018190526024820152600080516020612ae7833981519152604482015290519081900360640190fd5b6001600160a01b0381166125b25760405162461bcd60e51b8152600401808060200182810382526026815260200180612a1d6026913960400191505060405180910390fd5b6033546040516001600160a01b038084169216907f8be0079c531659141344cd1fd0a4f28419497f9722a3daafe3b4186f6b6457e090600090a3603380546001600160a01b0319166001600160a01b0392909216919091179055565b6000818152609d602090815260409182902060018101805484518185028101850190955280855260609485949293600201929091849183018282801561267357602002820191906000526020600020905b81548152602001906001019080831161265f575b50505050509150808054806020026020016040519081016040528092919081815260200182805480156126c557602002820191906000526020600020905b8154815260200190600101908083116126b1575b5050505050905091509150915091565b3390565b600082820183811015612733576040805162461bcd60e51b815260206004820152601b60248201527f536166654d6174683a206164646974696f6e206f766572666c6f770000000000604482015290519081900360640190fd5b9392505050565b6000612745306127fd565b15905090565b600054610100900460ff1680612764575061276461273a565b80612772575060005460ff16155b6127ad5760405162461bcd60e51b815260040180806020018281038252602e815260200180612a87602e913960400191505060405180910390fd5b600054610100900460ff161580156127d8576000805460ff1961ff0019909116610100171660011790555b6127e0612803565b6127e86128a3565b80156127fa576000805461ff00191690555b50565b3b151590565b600054610100900460ff168061281c575061281c61273a565b8061282a575060005460ff16155b6128655760405162461bcd60e51b815260040180806020018281038252602e815260200180612a87602e913960400191505060405180910390fd5b600054610100900460ff161580156127e8576000805460ff1961ff00199091166101001716600117905580156127fa576000805461ff001916905550565b600054610100900460ff16806128bc57506128bc61273a565b806128ca575060005460ff16155b6129055760405162461bcd60e51b815260040180806020018281038252602e815260200180612a87602e913960400191505060405180910390fd5b600054610100900460ff16158015612930576000805460ff1961ff0019909116610100171660011790555b600061293a6126d5565b603380546001600160a01b0319166001600160a01b038316908117909155604051919250906000907f8be0079c531659141344cd1fd0a4f28419497f9722a3daafe3b4186f6b6457e0908290a35080156127fa576000805461ff001916905550565b8280548282559060005260206000209081019282156129d7579160200282015b828111156129d75782518255916020019190600101906129bc565b506129e39291506129e7565b5090565b5b808211156129e357600081556001016129e856fe5265656e7472616e637947756172643a207265656e7472616e742063616c6c004f776e61626c653a206e6577206f776e657220697320746865207a65726f206164647265737343616e6e6f742063616e63656c206f6e63652062696464696e672073746172747361756374696f6e456e642068617320616c7265616479206265656e2063616c6c65642e496e697469616c697a61626c653a20636f6e747261637420697320616c726561647920696e697469616c697a65644552433131353547616d653a2054686520746f6b656e20747970652073686f756c64206265203320666f72206469736865734f776e61626c653a2063616c6c6572206973206e6f7420746865206f776e65724552433131353547616d653a2054686520746f6b656e20747970652073686f756c6420626520314552433131353547414d453a2063616c6c6572206973206e6f74206f776e6572206e6f7220617070726f76656442696464696e6720616d6f756e742073686f756c64206265206d6f7265207468616e20686967686573742f626173652062696420627920626964496e6372656d656e74a264697066735822122051c83062e5d8ae1ddf70978a6345a29f521d4c36d55008bd66c41a0d3c81175364736f6c63430007000033",
  "linkReferences": {},
  "deployedLinkReferences": {}
}