{
  "_format": "hh-sol-artifact-1",
  "contractName": "SportsDapp",
  "sourceName": "contracts/sportsdapp/Sportsdapp.sol",
  "abi": [
    {
      "inputs": [],
      "stateMutability": "nonpayable",
      "type": "constructor"
    },
    {
      "anonymous": false,
      "inputs": [
        {
          "indexed": true,
          "internalType": "bytes32",
          "name": "id",
          "type": "bytes32"
        }
      ],
      "name": "ChainlinkCancelled",
      "type": "event"
    },
    {
      "anonymous": false,
      "inputs": [
        {
          "indexed": true,
          "internalType": "bytes32",
          "name": "id",
          "type": "bytes32"
        }
      ],
      "name": "ChainlinkFulfilled",
      "type": "event"
    },
    {
      "anonymous": false,
      "inputs": [
        {
          "indexed": true,
          "internalType": "bytes32",
          "name": "id",
          "type": "bytes32"
        }
      ],
      "name": "ChainlinkRequested",
      "type": "event"
    },
    {
      "anonymous": false,
      "inputs": [
        {
          "indexed": false,
          "internalType": "address",
          "name": "backer",
          "type": "address"
        },
        {
          "indexed": false,
          "internalType": "uint256",
          "name": "amount",
          "type": "uint256"
        },
        {
          "indexed": false,
          "internalType": "bool",
          "name": "isContribution",
          "type": "bool"
        }
      ],
      "name": "FundTransfer",
      "type": "event"
    },
    {
      "anonymous": false,
      "inputs": [
        {
          "indexed": false,
          "internalType": "address",
          "name": "userAddress",
          "type": "address"
        },
        {
          "indexed": false,
          "internalType": "address payable",
          "name": "relayerAddress",
          "type": "address"
        },
        {
          "indexed": false,
          "internalType": "bytes",
          "name": "functionSignature",
          "type": "bytes"
        }
      ],
      "name": "MetaTransactionExecuted",
      "type": "event"
    },
    {
      "anonymous": false,
      "inputs": [
        {
          "indexed": false,
          "internalType": "address",
          "name": "oldOwner",
          "type": "address"
        },
        {
          "indexed": false,
          "internalType": "address",
          "name": "newOwner",
          "type": "address"
        }
      ],
      "name": "OwnerChanged",
      "type": "event"
    },
    {
      "anonymous": false,
      "inputs": [
        {
          "indexed": false,
          "internalType": "address",
          "name": "newOwner",
          "type": "address"
        }
      ],
      "name": "OwnerNominated",
      "type": "event"
    },
    {
      "anonymous": false,
      "inputs": [
        {
          "indexed": false,
          "internalType": "address",
          "name": "backer",
          "type": "address"
        },
        {
          "indexed": false,
          "internalType": "uint256",
          "name": "qid",
          "type": "uint256"
        },
        {
          "indexed": false,
          "internalType": "uint256",
          "name": "_type",
          "type": "uint256"
        }
      ],
      "name": "QuestionCreation",
      "type": "event"
    },
    {
      "anonymous": false,
      "inputs": [
        {
          "indexed": false,
          "internalType": "address",
          "name": "backer",
          "type": "address"
        },
        {
          "indexed": false,
          "internalType": "uint256",
          "name": "qid",
          "type": "uint256"
        },
        {
          "indexed": false,
          "internalType": "uint256",
          "name": "ansid",
          "type": "uint256"
        }
      ],
      "name": "VotingDone",
      "type": "event"
    },
    {
      "anonymous": false,
      "inputs": [
        {
          "indexed": false,
          "internalType": "uint256",
          "name": "qid",
          "type": "uint256"
        },
        {
          "indexed": false,
          "internalType": "string",
          "name": "name",
          "type": "string"
        },
        {
          "indexed": false,
          "internalType": "address",
          "name": "winner",
          "type": "address"
        },
        {
          "indexed": false,
          "internalType": "uint256",
          "name": "rewardamt",
          "type": "uint256"
        },
        {
          "indexed": false,
          "internalType": "uint256",
          "name": "ans",
          "type": "uint256"
        },
        {
          "indexed": false,
          "internalType": "uint256",
          "name": "_type",
          "type": "uint256"
        }
      ],
      "name": "WinnerDeclared",
      "type": "event"
    },
    {
      "inputs": [],
      "name": "acceptOwnership",
      "outputs": [],
      "stateMutability": "nonpayable",
      "type": "function"
    },
    {
      "inputs": [
        {
          "internalType": "address",
          "name": "",
          "type": "address"
        }
      ],
      "name": "balanceOf",
      "outputs": [
        {
          "internalType": "uint256",
          "name": "",
          "type": "uint256"
        }
      ],
      "stateMutability": "view",
      "type": "function"
    },
    {
      "inputs": [
        {
          "internalType": "address",
          "name": "userAddress",
          "type": "address"
        },
        {
          "internalType": "bytes",
          "name": "functionSignature",
          "type": "bytes"
        },
        {
          "internalType": "bytes32",
          "name": "sigR",
          "type": "bytes32"
        },
        {
          "internalType": "bytes32",
          "name": "sigS",
          "type": "bytes32"
        },
        {
          "internalType": "uint8",
          "name": "sigV",
          "type": "uint8"
        }
      ],
      "name": "executeMetaTransaction",
      "outputs": [
        {
          "internalType": "bytes",
          "name": "",
          "type": "bytes"
        }
      ],
      "stateMutability": "payable",
      "type": "function"
    },
    {
      "inputs": [],
      "name": "feeAddress",
      "outputs": [
        {
          "internalType": "address payable",
          "name": "",
          "type": "address"
        }
      ],
      "stateMutability": "view",
      "type": "function"
    },
    {
      "inputs": [
        {
          "internalType": "bytes32",
          "name": "_requestId",
          "type": "bytes32"
        },
        {
          "internalType": "uint256",
          "name": "_price",
          "type": "uint256"
        }
      ],
      "name": "fulfill",
      "outputs": [],
      "stateMutability": "nonpayable",
      "type": "function"
    },
    {
      "inputs": [
        {
          "internalType": "address",
          "name": "from",
          "type": "address"
        }
      ],
      "name": "getBalance",
      "outputs": [
        {
          "internalType": "uint256",
          "name": "",
          "type": "uint256"
        }
      ],
      "stateMutability": "view",
      "type": "function"
    },
    {
      "inputs": [],
      "name": "getChainID",
      "outputs": [
        {
          "internalType": "uint256",
          "name": "id",
          "type": "uint256"
        }
      ],
      "stateMutability": "view",
      "type": "function"
    },
    {
      "inputs": [
        {
          "internalType": "address",
          "name": "user",
          "type": "address"
        }
      ],
      "name": "getNonce",
      "outputs": [
        {
          "internalType": "uint256",
          "name": "nonce",
          "type": "uint256"
        }
      ],
      "stateMutability": "view",
      "type": "function"
    },
    {
      "inputs": [
        {
          "internalType": "uint256",
          "name": "_qid",
          "type": "uint256"
        }
      ],
      "name": "getQcontent",
      "outputs": [
        {
          "internalType": "string",
          "name": "",
          "type": "string"
        }
      ],
      "stateMutability": "view",
      "type": "function"
    },
    {
      "inputs": [
        {
          "internalType": "uint256",
          "name": "_qid",
          "type": "uint256"
        }
      ],
      "name": "getRate",
      "outputs": [
        {
          "internalType": "uint256",
          "name": "",
          "type": "uint256"
        }
      ],
      "stateMutability": "view",
      "type": "function"
    },
    {
      "inputs": [
        {
          "internalType": "uint256",
          "name": "_qid",
          "type": "uint256"
        }
      ],
      "name": "getWinners",
      "outputs": [
        {
          "internalType": "address[]",
          "name": "",
          "type": "address[]"
        }
      ],
      "stateMutability": "view",
      "type": "function"
    },
    {
      "inputs": [
        {
          "internalType": "uint256",
          "name": "_qid",
          "type": "uint256"
        }
      ],
      "name": "getWinnersAnsReason",
      "outputs": [
        {
          "internalType": "string",
          "name": "",
          "type": "string"
        }
      ],
      "stateMutability": "view",
      "type": "function"
    },
    {
      "inputs": [
        {
          "internalType": "uint256",
          "name": "_qid",
          "type": "uint256"
        }
      ],
      "name": "getWinnersAnsStr",
      "outputs": [
        {
          "internalType": "string",
          "name": "",
          "type": "string"
        }
      ],
      "stateMutability": "view",
      "type": "function"
    },
    {
      "inputs": [
        {
          "internalType": "uint256",
          "name": "_qid",
          "type": "uint256"
        }
      ],
      "name": "getWinnersDist",
      "outputs": [
        {
          "internalType": "uint256",
          "name": "",
          "type": "uint256"
        }
      ],
      "stateMutability": "view",
      "type": "function"
    },
    {
      "inputs": [
        {
          "internalType": "uint256",
          "name": "_qid",
          "type": "uint256"
        }
      ],
      "name": "getWinnersno",
      "outputs": [
        {
          "internalType": "uint256",
          "name": "",
          "type": "uint256"
        }
      ],
      "stateMutability": "view",
      "type": "function"
    },
    {
      "inputs": [
        {
          "internalType": "address",
          "name": "rewardee",
          "type": "address"
        }
      ],
      "name": "getWinnings",
      "outputs": [],
      "stateMutability": "payable",
      "type": "function"
    },
    {
      "inputs": [
        {
          "internalType": "address",
          "name": "from",
          "type": "address"
        }
      ],
      "name": "getWinnningBalance",
      "outputs": [
        {
          "internalType": "uint256",
          "name": "",
          "type": "uint256"
        }
      ],
      "stateMutability": "view",
      "type": "function"
    },
    {
      "inputs": [
        {
          "internalType": "address",
          "name": "_owner",
          "type": "address"
        }
      ],
      "name": "nominateNewOwner",
      "outputs": [],
      "stateMutability": "nonpayable",
      "type": "function"
    },
    {
      "inputs": [],
      "name": "nominatedOwner",
      "outputs": [
        {
          "internalType": "address",
          "name": "",
          "type": "address"
        }
      ],
      "stateMutability": "view",
      "type": "function"
    },
    {
      "inputs": [],
      "name": "owner",
      "outputs": [
        {
          "internalType": "address",
          "name": "",
          "type": "address"
        }
      ],
      "stateMutability": "view",
      "type": "function"
    },
    {
      "inputs": [
        {
          "internalType": "uint256",
          "name": "_qid",
          "type": "uint256"
        },
        {
          "internalType": "string",
          "name": "_qcontent",
          "type": "string"
        },
        {
          "internalType": "uint256",
          "name": "_vote_price",
          "type": "uint256"
        },
        {
          "internalType": "uint8",
          "name": "_optionslength",
          "type": "uint8"
        },
        {
          "internalType": "uint256",
          "name": "_type",
          "type": "uint256"
        },
        {
          "internalType": "string",
          "name": "name",
          "type": "string"
        }
      ],
      "name": "postQuestion",
      "outputs": [],
      "stateMutability": "nonpayable",
      "type": "function"
    },
    {
      "inputs": [],
      "name": "price",
      "outputs": [
        {
          "internalType": "uint256",
          "name": "",
          "type": "uint256"
        }
      ],
      "stateMutability": "view",
      "type": "function"
    },
    {
      "inputs": [],
      "name": "requestBTCCNYPrice",
      "outputs": [
        {
          "internalType": "bytes32",
          "name": "requestId",
          "type": "bytes32"
        }
      ],
      "stateMutability": "nonpayable",
      "type": "function"
    },
    {
      "inputs": [
        {
          "internalType": "uint256",
          "name": "_qid",
          "type": "uint256"
        }
      ],
      "name": "stopVoting",
      "outputs": [],
      "stateMutability": "nonpayable",
      "type": "function"
    },
    {
      "inputs": [
        {
          "internalType": "uint256",
          "name": "_qid",
          "type": "uint256"
        },
        {
          "internalType": "uint256",
          "name": "_ansid",
          "type": "uint256"
        },
        {
          "internalType": "string",
          "name": "_correct_answer_str",
          "type": "string"
        },
        {
          "internalType": "string",
          "name": "_correct_ans_reason",
          "type": "string"
        }
      ],
      "name": "submitRightSolution",
      "outputs": [],
      "stateMutability": "nonpayable",
      "type": "function"
    },
    {
      "inputs": [
        {
          "internalType": "uint256",
          "name": "_qid",
          "type": "uint256"
        },
        {
          "internalType": "uint256",
          "name": "ansid",
          "type": "uint256"
        },
        {
          "internalType": "uint256",
          "name": "_amount",
          "type": "uint256"
        },
        {
          "internalType": "string",
          "name": "name",
          "type": "string"
        }
      ],
      "name": "vote",
      "outputs": [],
      "stateMutability": "payable",
      "type": "function"
    }
  ],
  "bytecode": "0x60806040526001600655600b80546001600160a01b03191673af7ebf3480b5684e4f40ae435074c09e6dc0d2a91790553480156200003c57600080fd5b506040518060400160405280600a815260200169053706f727473446170760b41b81525060405180604001604052806003815260200162302e3160e81b81525062013881828282620000936200025460201b60201c565b6001600160a01b038116620000ef576040805162461bcd60e51b815260206004820152601960248201527f4f776e657220616464726573732063616e6e6f74206265203000000000000000604482015290519081900360640190fd5b600080546001600160a01b0319166001600160a01b038316908117825560408051928352602083019190915280517fb532073b38c83145e3e5135377a08bf9aab55bc0fd7c1179cd4fb995d2a5159c9281900390910190a1506009819055604080516080810190915260528082526200403a602083013980519060200120838051906020012083805190602001206200018d620002b460201b60201c565b6040805160208082019690965280820194909452606084019290925260808301523060a0808401919091528151808403909101815260c09092019052805191012060085550620001f994507370d1f773a9f81c852087b77f6ae6d3032b02d2ab935050620002ba915050565b601180546001600160a01b03191673bf87377162512f8098f78f055dfd2adac34cbb471790557f3662353765336665306439303462613438643133376233393335306337383932601255662386f26fc10000601355620002dc565b600033301415620002ae5760606000368080601f0160208091040260200160405190810160405280939291908181526020018383808284376000920191909152505050503601516001600160a01b03169150620002b19050565b50335b90565b60095490565b600480546001600160a01b0319166001600160a01b0392909216919091179055565b613d4e80620002ec6000396000f3fe6080604052600436106101815760003560e01c80636b1426a4116100d1578063ae316cb01161008a578063d57bb39711610064578063d57bb39714610906578063d9079d4314610939578063dbc4505014610963578063f8b2cb4f1461098d57610181565b8063ae316cb014610775578063b38599891461079f578063d3019478146108f157610181565b80636b1426a4146105d257806370a082311461064c57806379ba50971461067f5780638da5cb5b14610694578063a034b6cb146106a9578063a035b1fe1461076057610181565b80633e0f90171161013e57806344d0574e1161011857806344d0574e1461055457806353a47bb71461057e578063564b81ef1461059357806357764094146105a857610181565b80633e0f9017146104c957806341275358146104f35780634357855e1461052457610181565b80630c53c51c146101865780631627540c146102bd5780632858eff1146102f25780632d0335ab1461031857806335c49a951461035d5780633cb2c7fc14610387575b600080fd5b610248600480360360a081101561019c57600080fd5b6001600160a01b038235169190810190604081016020820135600160201b8111156101c657600080fd5b8201836020820111156101d857600080fd5b803590602001918460018302840111600160201b831117156101f957600080fd5b91908080601f016020809104026020016040519081016040528093929190818152602001838380828437600092019190915250929550508235935050506020810135906040013560ff166109c0565b6040805160208082528351818301528351919283929083019185019080838360005b8381101561028257818101518382015260200161026a565b50505050905090810190601f1680156102af5780820380516001836020036101000a031916815260200191505b509250505060405180910390f35b3480156102c957600080fd5b506102f0600480360360208110156102e057600080fd5b50356001600160a01b0316610ccd565b005b6102f06004803603602081101561030857600080fd5b50356001600160a01b0316610d29565b34801561032457600080fd5b5061034b6004803603602081101561033b57600080fd5b50356001600160a01b0316610de8565b60408051918252519081900360200190f35b34801561036957600080fd5b506102f06004803603602081101561038057600080fd5b5035610e03565b34801561039357600080fd5b506102f0600480360360808110156103aa57600080fd5b813591602081013591810190606081016040820135600160201b8111156103d057600080fd5b8201836020820111156103e257600080fd5b803590602001918460018302840111600160201b8311171561040357600080fd5b91908080601f0160208091040260200160405190810160405280939291908181526020018383808284376000920191909152509295949360208101935035915050600160201b81111561045557600080fd5b82018360208201111561046757600080fd5b803590602001918460018302840111600160201b8311171561048857600080fd5b91908080601f016020809104026020016040519081016040528093929190818152602001838380828437600092019190915250929550610e85945050505050565b3480156104d557600080fd5b5061034b600480360360208110156104ec57600080fd5b503561233c565b3480156104ff57600080fd5b50610508612351565b604080516001600160a01b039092168252519081900360200190f35b34801561053057600080fd5b506102f06004803603604081101561054757600080fd5b5080359060200135612360565b34801561056057600080fd5b506102486004803603602081101561057757600080fd5b5035612401565b34801561058a57600080fd5b506105086124a5565b34801561059f57600080fd5b5061034b6124b4565b3480156105b457600080fd5b5061034b600480360360208110156105cb57600080fd5b50356124bb565b3480156105de57600080fd5b506105fc600480360360208110156105f557600080fd5b50356124d0565b60408051602080825283518183015283519192839290830191858101910280838360005b83811015610638578181015183820152602001610620565b505050509050019250505060405180910390f35b34801561065857600080fd5b5061034b6004803603602081101561066f57600080fd5b50356001600160a01b031661253e565b34801561068b57600080fd5b506102f0612550565b3480156106a057600080fd5b5061050861260c565b6102f0600480360360808110156106bf57600080fd5b81359160208101359160408201359190810190608081016060820135600160201b8111156106ec57600080fd5b8201836020820111156106fe57600080fd5b803590602001918460018302840111600160201b8311171561071f57600080fd5b91908080601f01602080910402602001604051908101604052809392919081815260200183838082843760009201919091525092955061261b945050505050565b34801561076c57600080fd5b5061034b612980565b34801561078157600080fd5b5061034b6004803603602081101561079857600080fd5b5035612986565b3480156107ab57600080fd5b506102f0600480360360c08110156107c257600080fd5b81359190810190604081016020820135600160201b8111156107e357600080fd5b8201836020820111156107f557600080fd5b803590602001918460018302840111600160201b8311171561081657600080fd5b91908080601f016020809104026020016040519081016040528093929190818152602001838380828437600092019190915250929584359560ff60208701351695604081013595509193509150608081019060600135600160201b81111561087d57600080fd5b82018360208201111561088f57600080fd5b803590602001918460018302840111600160201b831117156108b057600080fd5b91908080601f01602080910402602001604051908101604052809392919081815260200183838082843760009201919091525092955061299b945050505050565b3480156108fd57600080fd5b5061034b612bea565b34801561091257600080fd5b5061034b6004803603602081101561092957600080fd5b50356001600160a01b0316612d87565b34801561094557600080fd5b506102486004803603602081101561095c57600080fd5b5035612da2565b34801561096f57600080fd5b506102486004803603602081101561098657600080fd5b5035612e12565b34801561099957600080fd5b5061034b600480360360208110156109b057600080fd5b50356001600160a01b0316612e7f565b60606109ca613909565b50604080516060810182526001600160a01b0388166000818152600a602090815290849020548352820152908101869052610a088782878787612e8c565b610a435760405162461bcd60e51b8152600401808060200182810382526021815260200180613ca96021913960400191505060405180910390fd5b60006060306001600160a01b0316888a6040516020018083805190602001908083835b60208310610a855780518252601f199092019160209182019101610a66565b6001836020036101000a038019825116818451168082178552505050505050905001826001600160a01b031660601b8152601401925050506040516020818303038152906040526040518082805190602001908083835b60208310610afb5780518252601f199092019160209182019101610adc565b6001836020036101000a0380198251168184511680821785525050505050509050019150506000604051808303816000865af19150503d8060008114610b5d576040519150601f19603f3d011682016040523d82523d6000602084013e610b62565b606091505b509150915081610bb9576040805162461bcd60e51b815260206004820152601d60248201527f46756e6374696f6e2063616c6c206e6f74207375636365737366756c6c000000604482015290519081900360640190fd5b6001600160a01b0389166000908152600a6020526040902054610bdd906001612f21565b600a60008b6001600160a01b03166001600160a01b03168152602001908152602001600020819055507f5845892132946850460bff5a0083f71031bc5bf9aadcd40f1de79423eac9b10b89338a60405180846001600160a01b03168152602001836001600160a01b0316815260200180602001828103825283818151815260200191508051906020019080838360005b83811015610c85578181015183820152602001610c6d565b50505050905090810190601f168015610cb25780820380516001836020036101000a031916815260200191505b5094505050505060405180910390a198975050505050505050565b610cd5612f84565b600180546001600160a01b0383166001600160a01b0319909116811790915560408051918252517f906a1c6bd7e3091ea86693dd029a831c19049ce77f1dce2ce0bab1cacbabce229181900360200190a150565b60405173ce11f26849e17a4d1378149365bbd5af26926e409081903480156108fc02916000818181858888f19350505050158015610d6b573d6000803e3d6000fd5b5034600c6000610d79612fcf565b6001600160a01b039081168252602080830193909352604091820160009081208054959095039094558151908616815234928101929092528181019290925290517fe842aea7a5f1b01049d752008c53c52890b1a6daf660cf39e8eec506112bbdf69181900360600190a15050565b6001600160a01b03166000908152600a602052604090205490565b610e0b612f84565b6000818152600d60205260409020601e015460ff6101009091041660011415610e655760405162461bcd60e51b8152600401808060200182810382526027815260200180613cca6027913960400191505060405180910390fd5b6000908152600d60205260409020601e01805461ff001916610100179055565b610e8d612f84565b6000848152600d60205260409020601e015462010000900460ff1660011415610efd576040805162461bcd60e51b815260206004820152601f60248201527f526967687420736f6c7574696f6e206465636c6172656420616c726561647900604482015290519081900360640190fd5b6000848152600d6020908152604090912060048101859055601e8101805461ff001962ff0000199091166201000017166101001790558351610f4792601a90920191850190613933565b506000848152600d602090815260409091208251610f6d92601b90920191840190613933565b506000848152600d602090815260409182902060018101546017909101548351600a808252610160820190955291939092889288926060928201610140803683370190505090508460011415611d1e57816103e714156117ec576000838152600d6020526040812060030154905b6000858152600d60205260409020600701548110156111da576000858152600d6020526040902060070180548290811061101157fe5b9060005260206000200160009054906101000a90046001600160a01b031683828151811061103b57fe5b60200260200101906001600160a01b031690816001600160a01b031681525050600082905083828151811061106c57fe5b60200260200101516001600160a01b03166108fc829081150290604051600060405180830381858888f193505050501580156110ac573d6000803e3d6000fd5b50600080516020613c5a83398151915286600e60008786815181106110cd57fe5b60200260200101516001600160a01b03166001600160a01b0316815260200190815260200160002086858151811061110157fe5b602002602001015186896103e76040518087815260200180602001866001600160a01b031681526020018581526020018481526020018381526020018281038252878181546001816001161561010002031660029004815260200191508054600181600116156101000203166002900480156111be5780601f10611193576101008083540402835291602001916111be565b820191906000526020600020905b8154815290600101906020018083116111a157829003601f168201915b505097505050505050505060405180910390a150600101610fdb565b5060005b6000858152600d60205260409020600a01548110156113dd576000858152600d60205260409020600a0180548290811061121457fe5b9060005260206000200160009054906101000a90046001600160a01b031683828151811061123e57fe5b60200260200101906001600160a01b031690816001600160a01b031681525050600082905083828151811061126f57fe5b60200260200101516001600160a01b03166108fc829081150290604051600060405180830381858888f193505050501580156112af573d6000803e3d6000fd5b50600080516020613c5a83398151915286600e60008786815181106112d057fe5b60200260200101516001600160a01b03166001600160a01b0316815260200190815260200160002086858151811061130457fe5b602002602001015186896103e76040518087815260200180602001866001600160a01b031681526020018581526020018481526020018381526020018281038252878181546001816001161561010002031660029004815260200191508054600181600116156101000203166002900480156113c15780601f10611396576101008083540402835291602001916113c1565b820191906000526020600020905b8154815290600101906020018083116113a457829003601f168201915b505097505050505050505060405180910390a1506001016111de565b5060005b6000858152600d6020819052604090912001548110156115e2576000858152600d602081905260409091200180548290811061141957fe5b9060005260206000200160009054906101000a90046001600160a01b031683828151811061144357fe5b60200260200101906001600160a01b031690816001600160a01b031681525050600082905083828151811061147457fe5b60200260200101516001600160a01b03166108fc829081150290604051600060405180830381858888f193505050501580156114b4573d6000803e3d6000fd5b50600080516020613c5a83398151915286600e60008786815181106114d557fe5b60200260200101516001600160a01b03166001600160a01b0316815260200190815260200160002086858151811061150957fe5b602002602001015186896103e76040518087815260200180602001866001600160a01b031681526020018581526020018481526020018381526020018281038252878181546001816001161561010002031660029004815260200191508054600181600116156101000203166002900480156115c65780601f1061159b576101008083540402835291602001916115c6565b820191906000526020600020905b8154815290600101906020018083116115a957829003601f168201915b505097505050505050505060405180910390a1506001016113e1565b5060005b6000858152600d60205260409020601001548110156117e5576000858152600d6020526040902060100180548290811061161c57fe5b9060005260206000200160009054906101000a90046001600160a01b031683828151811061164657fe5b60200260200101906001600160a01b031690816001600160a01b031681525050600082905083828151811061167757fe5b60200260200101516001600160a01b03166108fc829081150290604051600060405180830381858888f193505050501580156116b7573d6000803e3d6000fd5b50600080516020613c5a83398151915286600e60008786815181106116d857fe5b60200260200101516001600160a01b03166001600160a01b0316815260200190815260200160002086858151811061170c57fe5b602002602001015186896103e76040518087815260200180602001866001600160a01b031681526020018581526020018481526020018381526020018281038252878181546001816001161561010002031660029004815260200191508054600181600116156101000203166002900480156117c95780601f1061179e576101008083540402835291602001916117c9565b820191906000526020600020905b8154815290600101906020018083116117ac57829003601f168201915b505097505050505050505060405180910390a1506001016115e6565b5050611d19565b6000898152600d60205260408120600501836006811061180857fe5b6003020160010154905080600d60008c8152602001908152602001600020601d0181905550600081868161183857fe5b6000878152600d60205260409020600381015492909104918202601c8201819055919250600501856006811061186a57fe5b600302016002018054905060011415611a6c576000868152600d60205260409020600501856006811061189957fe5b600302016002016000815481106118ac57fe5b600091825260208220015485516001600160a01b039091169186916118cd57fe5b60200260200101906001600160a01b031690816001600160a01b0316815250506000819050846000815181106118ff57fe5b60200260200101516001600160a01b03166108fc829081150290604051600060405180830381858888f1935050505015801561193f573d6000803e3d6000fd5b50600080516020613c5a83398151915287600e60008860008151811061196157fe5b60200260200101516001600160a01b03166001600160a01b031681526020019081526020016000208760008151811061199657fe5b6020026020010151858a61014d6040518087815260200180602001866001600160a01b03168152602001858152602001848152602001838152602001828103825287818154600181600116156101000203166002900481526020019150805460018160011615610100020316600290048015611a535780601f10611a2857610100808354040283529160200191611a53565b820191906000526020600020905b815481529060010190602001808311611a3657829003601f168201915b505097505050505050505060405180910390a150611d15565b600b546040516028830491828403916001600160a01b03909116906108fc8415029084906000818181858888f19350505050158015611aaf573d6000803e3d6000fd5b5060005b6000898152600d602052604090206005018860068110611acf57fe5b6003020160020180549050811015611d11576000898152600d602052604090206005018860068110611afd57fe5b600302016002018181548110611b0f57fe5b9060005260206000200160009054906101000a90046001600160a01b0316878281518110611b3957fe5b60200260200101906001600160a01b031690816001600160a01b03168152505083600c6000898481518110611b6a57fe5b6020908102919091018101516001600160a01b031682528101919091526040016000208054909101905586518290889083908110611ba457fe5b60200260200101516001600160a01b03166108fc829081150290604051600060405180830381858888f19350505050158015611be4573d6000803e3d6000fd5b50600080516020613c5a8339815191528a600e60008b8681518110611c0557fe5b60200260200101516001600160a01b03166001600160a01b031681526020019081526020016000208a8581518110611c3957fe5b6020026020010151888d60016040518087815260200180602001866001600160a01b03168152602001858152602001848152602001838152602001828103825287818154600181600116156101000203166002900481526020019150805460018160011615610100020316600290048015611cf55780601f10611cca57610100808354040283529160200191611cf5565b820191906000526020600020905b815481529060010190602001808311611cd857829003601f168201915b505097505050505050505060405180910390a150600101611ab3565b5050505b5050505b612138565b8460021415612138576000898152600d6020908152604080832060030154868452600f9092528220805491870292918290611d5557fe5b9060005260206000209060020201600101549050600081851015611d7c5750838103611d81565b508084035b60015b6000878152600f6020526040902054811015611e82576000878152600f60205260408120805483908110611db457fe5b9060005260206000209060020201600101549050600087600f60008b81526020019081526020016000208481548110611de957fe5b9060005260206000209060020201600101541115611e38576000898152600f60205260409020805489919085908110611e1e57fe5b906000526020600020906002020160010154039050611e69565b6000898152600f60205260409020805484908110611e5257fe5b906000526020600020906002020160010154880390505b83811015611e78578093508194505b5050600101611d84565b506000805b6000888152600f6020526040902054811015611f40576000888152600f60205260408120805483908110611eb757fe5b906000526020600020906002020160010154905084811415611f37576000898152600f60205260409020805483908110611eed57fe5b600091825260209091206002909102015487516001600160a01b0390911690889085908110611f1857fe5b6001600160a01b03909216602092830291909101909101526001909201915b50600101611e87565b506000818581611f4c57fe5b60008a8152600d60205260408120601d810186905592909104601c9092018290559091505b828110156121315781600c6000898481518110611f8a57fe5b6020908102919091018101516001600160a01b031682528101919091526040016000208054909101905586518290889083908110611fc457fe5b60200260200101516001600160a01b03166108fc829081150290604051600060405180830381858888f19350505050158015612004573d6000803e3d6000fd5b50600080516020613c5a8339815191528a600e60008b868151811061202557fe5b60200260200101516001600160a01b03166001600160a01b031681526020019081526020016000208a858151811061205957fe5b6020026020010151868a60026040518087815260200180602001866001600160a01b031681526020018581526020018481526020018381526020018281038252878181546001816001161561010002031660029004815260200191508054600181600116156101000203166002900480156121155780601f106120ea57610100808354040283529160200191612115565b820191906000526020600020905b8154815290600101906020018083116120f857829003601f168201915b505097505050505050505060405180910390a150600101611f71565b5050505050505b6000898152600d60209081526040909120825161215d926018909201918401906139b1565b5060408051600a8082526101608201909252606091816020015b606081526020019060019003908161217757905050905060005b6000858152600d6020526040902060180154811015612309576000858152600d602052604090206018018054829081106121c757fe5b6000918252602090912001546001600160a01b0316156122ce576000858152600d602052604081206018018054600e9291908490811061220357fe5b6000918252602080832091909101546001600160a01b0316835282810193909352604091820190208054825160026101006001841615026000190190921691909104601f8101859004850282018501909352828152929091908301828280156122ad5780601f10612282576101008083540402835291602001916122ad565b820191906000526020600020905b81548152906001019060200180831161229057829003601f168201915b50505050508282815181106122be57fe5b6020026020010181905250612301565b604051806040016040528060028152602001614e4160f01b8152508282815181106122f557fe5b60200260200101819052505b600101612191565b5060008a8152600d60209081526040909120825161232f92601990920191840190613a12565b5050505050505050505050565b6000908152600d60205260409020601d015490565b600b546001600160a01b031681565b60008281526007602052604090205482906001600160a01b031633146123b75760405162461bcd60e51b8152600401808060200182810382526028815260200180613cf16028913960400191505060405180910390fd5b60008181526007602052604080822080546001600160a01b03191690555182917f7cc135e0cebb02c3480ae5d74d377283180a2601f8f644edf7987b009316c63a91a25060105550565b6000818152600d6020908152604091829020601a0180548351601f60026000196101006001861615020190931692909204918201849004840281018401909452808452606093928301828280156124995780601f1061246e57610100808354040283529160200191612499565b820191906000526020600020905b81548152906001019060200180831161247c57829003601f168201915b50505050509050919050565b6001546001600160a01b031681565b6009545b90565b6000908152600d602052604090206003015490565b6000818152600d602090815260409182902060180180548351818402810184019094528084526060939283018282801561249957602002820191906000526020600020905b81546001600160a01b031681526001909101906020018083116125155750505050509050919050565b600c6020526000908152604090205481565b6001546001600160a01b031633146125995760405162461bcd60e51b8152600401808060200182810382526035815260200180613b506035913960400191505060405180910390fd5b600054600154604080516001600160a01b03938416815292909116602083015280517fb532073b38c83145e3e5135377a08bf9aab55bc0fd7c1179cd4fb995d2a5159c9281900390910190a160018054600080546001600160a01b03199081166001600160a01b03841617909155169055565b6000546001600160a01b031681565b6000848152600d60205260409020601e015462010000900460ff166001141561268b576040805162461bcd60e51b815260206004820181905260248201527f566f74696e672070726f6365737320686173206265656e206465636c61726564604482015290519081900360640190fd5b6000848152600d60205260409020601e015460ff61010090910416600114156126fb576040805162461bcd60e51b815260206004820152601f60248201527f566f74696e672070726f6365737320686173206265656e2073746f7070656400604482015290519081900360640190fd5b34821461274f576040805162461bcd60e51b815260206004820152601e60248201527f416d6f756e74206e6f7420657175616c20746f2073656e742076616c75650000604482015290519081900360640190fd5b6000848152600d60205260409020600181015460039091015434146127bb576040805162461bcd60e51b815260206004820181905260248201527f50617274696369706174696f6e206665657320776173206e6f7420657175616c604482015290519081900360640190fd5b81600e60006127c8612fcf565b6001600160a01b03166001600160a01b0316815260200190815260200160002090805190602001906127fb929190613933565b508060011415612898576000858152600d60205260409020600501846006811061282157fe5b60030201600201612830612fcf565b8154600180820184556000938452602080852090920180546001600160a01b0319166001600160a01b039490941693909317909255878352600d90526040909120600501856006811061287f57fe5b6003020160010160008282540192505081905550612910565b806002141561291057600f600086815260200190815260200160002060405180604001604052806128c7612fcf565b6001600160a01b0390811682526020918201889052835460018082018655600095865294839020845160029092020180546001600160a01b031916919092161781559101519101555b6000858152600d60205260409020601701805460010190557fcf99bd6933f2b873c45d341be16c938695370243a5d9194cd67da6739f415ebb612951612fcf565b604080516001600160a01b03909216825260208201889052818101879052519081900360600190a15050505050565b60105481565b6000908152600d60205260409020601c015490565b6129a3612f84565b6000868152600d60205260409020601e015460ff1660011415612a0d576040805162461bcd60e51b815260206004820152601a60248201527f5175657374696f6e20696420616c726561647920657869737473000000000000604482015290519081900360640190fd5b80600e6000612a1a612fcf565b6001600160a01b03166001600160a01b031681526020019081526020016000209080519060200190612a4d929190613933565b508160021415612af15760005b8360ff168160ff161015612ad5576000878152600d60205260409020819060050160ff821660068110612a8957fe5b60030201805460ff191660ff9283161790556000888152600d602052604081209091600590910190831660068110612abd57fe5b60030201600101819055508080600101915050612a5a565b506000868152600d602052604090206002600190910155612b0f565b8160011415612b0f576000868152600d602052604090206001908101555b6000868152600d6020908152604090912080546001600160a01b03191673af7ebf3480b5684e4f40ae435074c09e6dc0d2a91781558651612b5892600290920191880190613933565b506000868152600d60209081526040808320600381018890556017810193909355601e909201805462ffff001960ff19909116600117169055815173af7ebf3480b5684e4f40ae435074c09e6dc0d2a9815290810188905280820184905290517f3cd90f954f53736044120525de5a59295f9c18478d1c6e3c0f9e59c23deead319181900360600190a1505050505050565b6000612bf4613a6b565b601254612c0990306321abc2af60e11b61302c565b9050612c4b6040518060400160405280600381526020016219d95d60ea1b8152506040518060a00160405280606f8152602001613beb606f9139839190613051565b6040805160028082526060828101909352816020015b6060815260200190600190039081612c615790505090506040518060400160405280601f81526020017f5265616c74696d652043757272656e63792045786368616e676520526174650081525081600081518110612cbb57fe5b60200260200101819052506040518060400160405280601081526020016f352e2045786368616e6765205261746560801b81525081600181518110612cfc57fe5b6020026020010181905250612d38604051806040016040528060048152602001630e0c2e8d60e31b81525082846130749092919063ffffffff16565b60408051808201909152600581526474696d657360d81b6020820152612d659083906402540be4006130dc565b601154601354612d80916001600160a01b03169084906130fa565b9250505090565b6001600160a01b03166000908152600c602052604090205490565b6000818152600d60209081526040918290206002908101805484516001821615610100026000190190911692909204601f810184900484028301840190945283825260609391929091908301828280156124995780601f1061246e57610100808354040283529160200191612499565b6000818152600d6020908152604091829020601b0180548351601f60026000196101006001861615020190931692909204918201849004840281018401909452808452606093928301828280156124995780601f1061246e57610100808354040283529160200191612499565b6001600160a01b03163190565b60006001612ea1612e9c876132ca565b61334d565b83868660405160008152602001604052604051808581526020018460ff1681526020018381526020018281526020019450505050506020604051602081039080840390855afa158015612ef8573d6000803e3d6000fd5b505050602060405103516001600160a01b0316866001600160a01b031614905095945050505050565b600082820183811015612f7b576040805162461bcd60e51b815260206004820152601b60248201527f536166654d6174683a206164646974696f6e206f766572666c6f770000000000604482015290519081900360640190fd5b90505b92915050565b6000546001600160a01b03163314612fcd5760405162461bcd60e51b815260040180806020018281038252602f815260200180613c7a602f913960400191505060405180910390fd5b565b6000333014156130275760606000368080601f0160208091040260200160405190810160405280939291908181526020018383808284376000920191909152505050503601516001600160a01b031691506124b89050565b503390565b613034613a6b565b61303c613a6b565b61304881868686613399565b95945050505050565b608083015161306090836133d6565b608083015161306f90826133d6565b505050565b608083015161308390836133d6565b61309083608001516133ed565b60005b81518110156130ce576130c68282815181106130ab57fe5b602002602001015185608001516133d690919063ffffffff16565b600101613093565b5061306f83608001516133fb565b60808301516130eb90836133d6565b608083015161306f9082613406565b6006546040805130606090811b60208084019190915260348084018690528451808503909101815260549093018452825192810192909220908601939093526000838152600790915281812080546001600160a01b0319166001600160a01b038816179055905182917fb5e6e01e79f91267dc17b4e6314d5d4d03593d2ceee0fbb452b750bd70ea5af991a26004546001600160a01b0316634000aea085846131a4876002613465565b6040518463ffffffff1660e01b815260040180846001600160a01b0316815260200183815260200180602001828103825283818151815260200191508051906020019080838360005b838110156132055781810151838201526020016131ed565b50505050905090810190601f1680156132325780820380516001836020036101000a031916815260200191505b50945050505050602060405180830381600087803b15801561325357600080fd5b505af1158015613267573d6000803e3d6000fd5b505050506040513d602081101561327d57600080fd5b50516132ba5760405162461bcd60e51b8152600401808060200182810382526023815260200180613bc86023913960400191505060405180910390fd5b6006805460010190559392505050565b6000604051806080016040528060438152602001613b8560439139805190602001208260000151836020015184604001518051906020012060405160200180858152602001848152602001836001600160a01b03168152602001828152602001945050505050604051602081830303815290604052805190602001209050919050565b6000613357613589565b82604051602001808061190160f01b81525060020183815260200182815260200192505050604051602081830303815290604052805190602001209050919050565b6133a1613a6b565b6133b1856080015161010061358f565b50509183526001600160a01b031660208301526001600160e01b031916604082015290565b6133e382600383516135c9565b61306f82826136a3565b6133f88160046136bd565b50565b6133f88160076136bd565b67ffffffffffffffff198112156134265761342182826136d2565b613461565b67ffffffffffffffff81131561344057613421828261370b565b6000811261345457613421826000836135c9565b61346182600183196135c9565b5050565b6060634042994660e01b6000808560000151866020015187604001518860600151888a608001516000015160405160240180896001600160a01b03168152602001888152602001878152602001866001600160a01b03168152602001856001600160e01b031916815260200184815260200183815260200180602001828103825283818151815260200191508051906020019080838360005b838110156135165781810151838201526020016134fe565b50505050905090810190601f1680156135435780820380516001836020036101000a031916815260200191505b5060408051601f198184030181529190526020810180516001600160e01b03166001600160e01b0319909d169c909c17909b525098995050505050505050505092915050565b60085490565b613597613aa0565b60208206156135ac5760208206602003820191505b506020828101829052604080518085526000815290920101905290565b601781116135ea576135e48360e0600585901b168317613740565b5061306f565b60ff811161361457613607836018611fe0600586901b1617613740565b506135e483826001613758565b61ffff811161363f57613632836019611fe0600586901b1617613740565b506135e483826002613758565b63ffffffff811161366c5761365f83601a611fe0600586901b1617613740565b506135e483826004613758565b67ffffffffffffffff811161306f5761369083601b611fe0600586901b1617613740565b5061369d83826008613758565b50505050565b6136ab613aa0565b612f7b83846000015151848551613779565b61306f82601f611fe0600585901b1617613740565b6136dd8260c3613740565b5061346182826000190360405160200180828152602001915050604051602081830303815290604052613825565b6137168260c2613740565b50613461828260405160200180828152602001915050604051602081830303815290604052613825565b613748613aa0565b612f7b8384600001515184613832565b613760613aa0565b61377184856000015151858561387d565b949350505050565b613781613aa0565b825182111561378f57600080fd5b846020015182850111156137b9576137b9856137b187602001518786016138db565b6002026138f2565b6000808651805187602083010193508088870111156137d85787860182525b505050602084015b602084106137ff5780518252601f1990930192602091820191016137e0565b51815160001960208690036101000a019081169019919091161790525083949350505050565b6133e382600283516135c9565b61383a613aa0565b83602001518310613856576138568485602001516002026138f2565b835180516020858301018481535080851415613873576001810182525b5093949350505050565b613885613aa0565b846020015184830111156138a2576138a2858584016002026138f2565b60006001836101000a0390508551838682010185831982511617815250805184870111156138d05783860181525b509495945050505050565b6000818311156138ec575081612f7e565b50919050565b81516138fe838361358f565b5061369d83826136a3565b60405180606001604052806000815260200160006001600160a01b03168152602001606081525090565b828054600181600116156101000203166002900490600052602060002090601f016020900481019282601f1061397457805160ff19168380011785556139a1565b828001600101855582156139a1579182015b828111156139a1578251825591602001919060010190613986565b506139ad929150613aba565b5090565b828054828255906000526020600020908101928215613a06579160200282015b82811115613a0657825182546001600160a01b0319166001600160a01b039091161782556020909201916001909101906139d1565b506139ad929150613acf565b828054828255906000526020600020908101928215613a5f579160200282015b82811115613a5f5782518051613a4f918491602090910190613933565b5091602001919060010190613a32565b506139ad929150613aee565b6040805160a081018252600080825260208201819052918101829052606081019190915260808101613a9b613aa0565b905290565b604051806040016040528060608152602001600081525090565b5b808211156139ad5760008155600101613abb565b5b808211156139ad5780546001600160a01b0319168155600101613ad0565b808211156139ad576000613b028282613b0b565b50600101613aee565b50805460018160011615610100020316600290046000825580601f10613b3157506133f8565b601f0160209004906000526020600020908101906133f89190613aba56fe596f75206d757374206265206e6f6d696e61746564206265666f726520796f752063616e20616363657074206f776e6572736869704d6574615472616e73616374696f6e2875696e74323536206e6f6e63652c616464726573732066726f6d2c62797465732066756e6374696f6e5369676e617475726529756e61626c6520746f207472616e73666572416e6443616c6c20746f206f7261636c6568747470733a2f2f7777772e616c70686176616e746167652e636f2f71756572793f66756e6374696f6e3d43555252454e43595f45584348414e47455f524154452666726f6d5f63757272656e63793d42544326746f5f63757272656e63793d434e59266170696b65793d64656d6f5bcf5bc217a775f034679cdb974a5180ff85b8db07899fc7b7d87dd3ee15b44d4f6e6c792074686520636f6e7472616374206f776e6572206d617920706572666f726d207468697320616374696f6e5369676e657220616e64207369676e617475726520646f206e6f74206d61746368566f74696e672070726f6365737320686173206265656e20616c72656164792073746f70706564536f75726365206d75737420626520746865206f7261636c65206f66207468652072657175657374a26469706673582212201ac8fbcbe76bde496085912d3b142ea7c52b76a5a927ac2859b66cfc1f4c848864736f6c63430007000033454950373132446f6d61696e28737472696e67206e616d652c737472696e672076657273696f6e2c75696e7432353620636861696e49642c6164647265737320766572696679696e67436f6e747261637429",
  "linkReferences": {},
  "deployedLinkReferences": {}
}