{
  "_format": "hh-sol-artifact-1",
  "contractName": "ERC1820ImplementerUpgradeable",
  "sourceName": "contracts/upgradablecontracts/introspection/ERC1820ImplementerUpgradeable.sol",
  "abi": [
    {
      "inputs": [
        {
          "internalType": "bytes32",
          "name": "interfaceHash",
          "type": "bytes32"
        },
        {
          "internalType": "address",
          "name": "account",
          "type": "address"
        }
      ],
      "name": "canImplementInterfaceForAddress",
      "outputs": [
        {
          "internalType": "bytes32",
          "name": "",
          "type": "bytes32"
        }
      ],
      "stateMutability": "view",
      "type": "function"
    }
  ],
  "bytecode": "0x608060405234801561001057600080fd5b50610113806100206000396000f3fe6080604052348015600f57600080fd5b506004361060285760003560e01c8063249cb3fa14602d575b600080fd5b605660048036036040811015604157600080fd5b50803590602001356001600160a01b03166068565b60408051918252519081900360200190f35b60008281526001602090815260408083206001600160a01b038516845290915281205460ff16609757600060d6565b604051602001808073455243313832305f4143434550545f4d4147494360601b8152506014019050604051602081830303815290604052805190602001205b939250505056fea2646970667358221220eea8b18b88790840702e4e530374da3027b529553b8cda36fe23f17fd79c51ea64736f6c63430007000033",
  "linkReferences": {},
  "deployedLinkReferences": {}
}