{
  "_format": "hh-sol-artifact-1",
  "contractName": "StakingRewards",
  "sourceName": "contracts/synthetix/StakingRewards.sol",
  "abi": [
    {
      "inputs": [
        {
          "internalType": "address",
          "name": "_owner",
          "type": "address"
        },
        {
          "internalType": "address",
          "name": "_rewardsDistribution",
          "type": "address"
        },
        {
          "internalType": "address",
          "name": "_rewardsToken",
          "type": "address"
        },
        {
          "internalType": "address",
          "name": "_stakingToken",
          "type": "address"
        },
        {
          "internalType": "address",
          "name": "gameContract",
          "type": "address"
        }
      ],
      "stateMutability": "nonpayable",
      "type": "constructor"
    },
    {
      "anonymous": false,
      "inputs": [
        {
          "indexed": false,
          "internalType": "address",
          "name": "oldOwner",
          "type": "address"
        },
        {
          "indexed": false,
          "internalType": "address",
          "name": "newOwner",
          "type": "address"
        }
      ],
      "name": "OwnerChanged",
      "type": "event"
    },
    {
      "anonymous": false,
      "inputs": [
        {
          "indexed": false,
          "internalType": "address",
          "name": "newOwner",
          "type": "address"
        }
      ],
      "name": "OwnerNominated",
      "type": "event"
    },
    {
      "anonymous": false,
      "inputs": [
        {
          "indexed": false,
          "internalType": "bool",
          "name": "isPaused",
          "type": "bool"
        }
      ],
      "name": "PauseChanged",
      "type": "event"
    },
    {
      "anonymous": false,
      "inputs": [
        {
          "indexed": false,
          "internalType": "address",
          "name": "token",
          "type": "address"
        },
        {
          "indexed": false,
          "internalType": "uint256",
          "name": "amount",
          "type": "uint256"
        }
      ],
      "name": "Recovered",
      "type": "event"
    },
    {
      "anonymous": false,
      "inputs": [
        {
          "indexed": false,
          "internalType": "uint256",
          "name": "reward",
          "type": "uint256"
        }
      ],
      "name": "RewardAdded",
      "type": "event"
    },
    {
      "anonymous": false,
      "inputs": [
        {
          "indexed": true,
          "internalType": "address",
          "name": "user",
          "type": "address"
        },
        {
          "indexed": false,
          "internalType": "uint256",
          "name": "reward",
          "type": "uint256"
        }
      ],
      "name": "RewardPaid",
      "type": "event"
    },
    {
      "anonymous": false,
      "inputs": [
        {
          "indexed": false,
          "internalType": "uint256",
          "name": "newDuration",
          "type": "uint256"
        }
      ],
      "name": "RewardsDurationUpdated",
      "type": "event"
    },
    {
      "anonymous": false,
      "inputs": [
        {
          "indexed": true,
          "internalType": "address",
          "name": "user",
          "type": "address"
        },
        {
          "indexed": false,
          "internalType": "uint256",
          "name": "tokenId",
          "type": "uint256"
        },
        {
          "indexed": false,
          "internalType": "uint256",
          "name": "quantity",
          "type": "uint256"
        },
        {
          "indexed": false,
          "internalType": "uint256",
          "name": "valuation",
          "type": "uint256"
        }
      ],
      "name": "Staked",
      "type": "event"
    },
    {
      "anonymous": false,
      "inputs": [
        {
          "indexed": true,
          "internalType": "address",
          "name": "user",
          "type": "address"
        },
        {
          "indexed": false,
          "internalType": "uint256",
          "name": "tokenId",
          "type": "uint256"
        },
        {
          "indexed": false,
          "internalType": "uint256",
          "name": "quantity",
          "type": "uint256"
        },
        {
          "indexed": false,
          "internalType": "uint256",
          "name": "valuation",
          "type": "uint256"
        }
      ],
      "name": "Withdrawn",
      "type": "event"
    },
    {
      "inputs": [],
      "name": "acceptOwnership",
      "outputs": [],
      "stateMutability": "nonpayable",
      "type": "function"
    },
    {
      "inputs": [
        {
          "internalType": "address",
          "name": "account",
          "type": "address"
        }
      ],
      "name": "balanceOf",
      "outputs": [
        {
          "internalType": "uint256",
          "name": "",
          "type": "uint256"
        }
      ],
      "stateMutability": "view",
      "type": "function"
    },
    {
      "inputs": [
        {
          "internalType": "address",
          "name": "account",
          "type": "address"
        },
        {
          "internalType": "uint256",
          "name": "tokenId",
          "type": "uint256"
        }
      ],
      "name": "balanceOfNFT",
      "outputs": [
        {
          "internalType": "uint256",
          "name": "",
          "type": "uint256"
        }
      ],
      "stateMutability": "view",
      "type": "function"
    },
    {
      "inputs": [
        {
          "internalType": "address",
          "name": "account",
          "type": "address"
        }
      ],
      "name": "earned",
      "outputs": [
        {
          "internalType": "uint256",
          "name": "",
          "type": "uint256"
        }
      ],
      "stateMutability": "view",
      "type": "function"
    },
    {
      "inputs": [
        {
          "internalType": "uint256",
          "name": "tokenId",
          "type": "uint256"
        }
      ],
      "name": "exit",
      "outputs": [],
      "stateMutability": "nonpayable",
      "type": "function"
    },
    {
      "inputs": [],
      "name": "getReward",
      "outputs": [],
      "stateMutability": "nonpayable",
      "type": "function"
    },
    {
      "inputs": [],
      "name": "getRewardForDuration",
      "outputs": [
        {
          "internalType": "uint256",
          "name": "",
          "type": "uint256"
        }
      ],
      "stateMutability": "view",
      "type": "function"
    },
    {
      "inputs": [],
      "name": "lastPauseTime",
      "outputs": [
        {
          "internalType": "uint256",
          "name": "",
          "type": "uint256"
        }
      ],
      "stateMutability": "view",
      "type": "function"
    },
    {
      "inputs": [],
      "name": "lastTimeRewardApplicable",
      "outputs": [
        {
          "internalType": "uint256",
          "name": "",
          "type": "uint256"
        }
      ],
      "stateMutability": "view",
      "type": "function"
    },
    {
      "inputs": [],
      "name": "lastUpdateTime",
      "outputs": [
        {
          "internalType": "uint256",
          "name": "",
          "type": "uint256"
        }
      ],
      "stateMutability": "view",
      "type": "function"
    },
    {
      "inputs": [
        {
          "internalType": "address",
          "name": "_owner",
          "type": "address"
        }
      ],
      "name": "nominateNewOwner",
      "outputs": [],
      "stateMutability": "nonpayable",
      "type": "function"
    },
    {
      "inputs": [],
      "name": "nominatedOwner",
      "outputs": [
        {
          "internalType": "address",
          "name": "",
          "type": "address"
        }
      ],
      "stateMutability": "view",
      "type": "function"
    },
    {
      "inputs": [
        {
          "internalType": "uint256",
          "name": "reward",
          "type": "uint256"
        }
      ],
      "name": "notifyRewardAmount",
      "outputs": [],
      "stateMutability": "nonpayable",
      "type": "function"
    },
    {
      "inputs": [
        {
          "internalType": "address",
          "name": "",
          "type": "address"
        },
        {
          "internalType": "address",
          "name": "",
          "type": "address"
        },
        {
          "internalType": "uint256[]",
          "name": "",
          "type": "uint256[]"
        },
        {
          "internalType": "uint256[]",
          "name": "",
          "type": "uint256[]"
        },
        {
          "internalType": "bytes",
          "name": "",
          "type": "bytes"
        }
      ],
      "name": "onERC1155BatchReceived",
      "outputs": [
        {
          "internalType": "bytes4",
          "name": "",
          "type": "bytes4"
        }
      ],
      "stateMutability": "nonpayable",
      "type": "function"
    },
    {
      "inputs": [
        {
          "internalType": "address",
          "name": "",
          "type": "address"
        },
        {
          "internalType": "address",
          "name": "",
          "type": "address"
        },
        {
          "internalType": "uint256",
          "name": "",
          "type": "uint256"
        },
        {
          "internalType": "uint256",
          "name": "",
          "type": "uint256"
        },
        {
          "internalType": "bytes",
          "name": "",
          "type": "bytes"
        }
      ],
      "name": "onERC1155Received",
      "outputs": [
        {
          "internalType": "bytes4",
          "name": "",
          "type": "bytes4"
        }
      ],
      "stateMutability": "nonpayable",
      "type": "function"
    },
    {
      "inputs": [],
      "name": "owner",
      "outputs": [
        {
          "internalType": "address",
          "name": "",
          "type": "address"
        }
      ],
      "stateMutability": "view",
      "type": "function"
    },
    {
      "inputs": [],
      "name": "paused",
      "outputs": [
        {
          "internalType": "bool",
          "name": "",
          "type": "bool"
        }
      ],
      "stateMutability": "view",
      "type": "function"
    },
    {
      "inputs": [],
      "name": "periodFinish",
      "outputs": [
        {
          "internalType": "uint256",
          "name": "",
          "type": "uint256"
        }
      ],
      "stateMutability": "view",
      "type": "function"
    },
    {
      "inputs": [
        {
          "internalType": "address",
          "name": "tokenAddress",
          "type": "address"
        },
        {
          "internalType": "uint256",
          "name": "tokenAmount",
          "type": "uint256"
        }
      ],
      "name": "recoverERC20",
      "outputs": [],
      "stateMutability": "nonpayable",
      "type": "function"
    },
    {
      "inputs": [],
      "name": "rewardPerToken",
      "outputs": [
        {
          "internalType": "uint256",
          "name": "",
          "type": "uint256"
        }
      ],
      "stateMutability": "view",
      "type": "function"
    },
    {
      "inputs": [],
      "name": "rewardPerTokenStored",
      "outputs": [
        {
          "internalType": "uint256",
          "name": "",
          "type": "uint256"
        }
      ],
      "stateMutability": "view",
      "type": "function"
    },
    {
      "inputs": [],
      "name": "rewardRate",
      "outputs": [
        {
          "internalType": "uint256",
          "name": "",
          "type": "uint256"
        }
      ],
      "stateMutability": "view",
      "type": "function"
    },
    {
      "inputs": [
        {
          "internalType": "address",
          "name": "",
          "type": "address"
        }
      ],
      "name": "rewards",
      "outputs": [
        {
          "internalType": "uint256",
          "name": "",
          "type": "uint256"
        }
      ],
      "stateMutability": "view",
      "type": "function"
    },
    {
      "inputs": [],
      "name": "rewardsDistribution",
      "outputs": [
        {
          "internalType": "address",
          "name": "",
          "type": "address"
        }
      ],
      "stateMutability": "view",
      "type": "function"
    },
    {
      "inputs": [],
      "name": "rewardsDuration",
      "outputs": [
        {
          "internalType": "uint256",
          "name": "",
          "type": "uint256"
        }
      ],
      "stateMutability": "view",
      "type": "function"
    },
    {
      "inputs": [],
      "name": "rewardsToken",
      "outputs": [
        {
          "internalType": "contract IERC20",
          "name": "",
          "type": "address"
        }
      ],
      "stateMutability": "view",
      "type": "function"
    },
    {
      "inputs": [
        {
          "internalType": "bool",
          "name": "_paused",
          "type": "bool"
        }
      ],
      "name": "setPaused",
      "outputs": [],
      "stateMutability": "nonpayable",
      "type": "function"
    },
    {
      "inputs": [
        {
          "internalType": "address",
          "name": "_rewardsDistribution",
          "type": "address"
        }
      ],
      "name": "setRewardsDistribution",
      "outputs": [],
      "stateMutability": "nonpayable",
      "type": "function"
    },
    {
      "inputs": [
        {
          "internalType": "uint256",
          "name": "_rewardsDuration",
          "type": "uint256"
        }
      ],
      "name": "setRewardsDuration",
      "outputs": [],
      "stateMutability": "nonpayable",
      "type": "function"
    },
    {
      "inputs": [
        {
          "internalType": "uint256",
          "name": "tokenId",
          "type": "uint256"
        },
        {
          "internalType": "uint256",
          "name": "quantity",
          "type": "uint256"
        }
      ],
      "name": "stake",
      "outputs": [],
      "stateMutability": "nonpayable",
      "type": "function"
    },
    {
      "inputs": [],
      "name": "stakingToken",
      "outputs": [
        {
          "internalType": "contract IERC1155",
          "name": "",
          "type": "address"
        }
      ],
      "stateMutability": "view",
      "type": "function"
    },
    {
      "inputs": [
        {
          "internalType": "bytes4",
          "name": "interfaceId",
          "type": "bytes4"
        }
      ],
      "name": "supportsInterface",
      "outputs": [
        {
          "internalType": "bool",
          "name": "",
          "type": "bool"
        }
      ],
      "stateMutability": "view",
      "type": "function"
    },
    {
      "inputs": [],
      "name": "totalSupply",
      "outputs": [
        {
          "internalType": "uint256",
          "name": "",
          "type": "uint256"
        }
      ],
      "stateMutability": "view",
      "type": "function"
    },
    {
      "inputs": [
        {
          "internalType": "uint256",
          "name": "timestamp",
          "type": "uint256"
        }
      ],
      "name": "updatePeriodFinish",
      "outputs": [],
      "stateMutability": "nonpayable",
      "type": "function"
    },
    {
      "inputs": [
        {
          "internalType": "address",
          "name": "",
          "type": "address"
        }
      ],
      "name": "userRewardPerTokenPaid",
      "outputs": [
        {
          "internalType": "uint256",
          "name": "",
          "type": "uint256"
        }
      ],
      "stateMutability": "view",
      "type": "function"
    },
    {
      "inputs": [
        {
          "internalType": "uint256",
          "name": "tokenId",
          "type": "uint256"
        },
        {
          "internalType": "uint256",
          "name": "quantity",
          "type": "uint256"
        }
      ],
      "name": "withdraw",
      "outputs": [],
      "stateMutability": "nonpayable",
      "type": "function"
    }
  ],
  "bytecode": "0x608060405260006009556000600a55603c600b553480156200002057600080fd5b50604051620022e2380380620022e2833981810160405260a08110156200004657600080fd5b50805160208201516040830151606084015160809094015192939192909190846001600160a01b038116620000c2576040805162461bcd60e51b815260206004820152601960248201527f4f776e657220616464726573732063616e6e6f74206265203000000000000000604482015290519081900360640190fd5b600080546001600160a01b0319166001600160a01b038316908117825560408051928352602083019190915280517fb532073b38c83145e3e5135377a08bf9aab55bc0fd7c1179cd4fb995d2a5159c9281900390910190a15060016003556000546001600160a01b031662000172576040805162461bcd60e51b815260206004820152601160248201527013dddb995c881b5d5cdd081899481cd95d607a1b604482015290519081900360640190fd5b620001846301ffc9a760e01b620001ec565b62000196630271189760e51b620001ec565b600780546001600160a01b03199081166001600160a01b03958616179091556008805482169385169390931790925560138054831691841691909117905560028054909116929091169190911790555062000271565b6001600160e01b031980821614156200024c576040805162461bcd60e51b815260206004820152601c60248201527f4552433136353a20696e76616c696420696e7465726661636520696400000000604482015290519081900360640190fd5b6001600160e01b0319166000908152600660205260409020805460ff19166001179055565b61206180620002816000396000f3fe608060405234801561001057600080fd5b506004361061021b5760003560e01c806372f702f31161012557806391b4ded9116100ad578063cd3daf9d1161007c578063cd3daf9d146106ee578063d1af0c7d146106f6578063df136d65146106fe578063ebe2b12b14610706578063f23a6e611461070e5761021b565b806391b4ded9146104e3578063bc197c81146104eb578063c8f33c91146106c9578063cc1a378f146106d15761021b565b80637f8661a1116100f45780637f8661a11461046457806380faa57d146104815780638980f11f146104895780638b876347146104b55780638da5cb5b146104db5761021b565b806372f702f31461042957806379ba5097146104315780637b0472f0146104395780637b0a47ee1461045c5761021b565b8063386a9525116101a8578063441a3e7011610177578063441a3e70146103b357806353a47bb7146103d6578063556f6e6b146103de5780635c975abb146103fb57806370a08231146104035761021b565b8063386a9525146103625780633c6b16ab1461036a5780633d18b912146103875780633fc6df6e1461038f5761021b565b806316c38b3c116101ef57806316c38b3c146102e157806318160ddd1461030057806319762143146103085780631c1f78eb1461032e5780632aa4006a146103365761021b565b80628cc2621461022057806301ffc9a7146102585780630700037d146102935780631627540c146102b9575b600080fd5b6102466004803603602081101561023657600080fd5b50356001600160a01b03166107d7565b60408051918252519081900360200190f35b61027f6004803603602081101561026e57600080fd5b50356001600160e01b031916610855565b604080519115158252519081900360200190f35b610246600480360360208110156102a957600080fd5b50356001600160a01b0316610874565b6102df600480360360208110156102cf57600080fd5b50356001600160a01b0316610886565b005b6102df600480360360208110156102f757600080fd5b503515156108e2565b61024661095c565b6102df6004803603602081101561031e57600080fd5b50356001600160a01b0316610963565b61024661098d565b6102466004803603604081101561034c57600080fd5b506001600160a01b0381351690602001356109ab565b6102466109d3565b6102df6004803603602081101561038057600080fd5b50356109d9565b6102df610c0c565b610397610dff565b604080516001600160a01b039092168252519081900360200190f35b6102df600480360360408110156103c957600080fd5b5080359060200135610e0e565b610397611385565b6102df600480360360208110156103f457600080fd5b5035611394565b61027f6113fe565b6102466004803603602081101561041957600080fd5b50356001600160a01b0316611407565b610397611422565b6102df611431565b6102df6004803603604081101561044f57600080fd5b50803590602001356114ed565b610246611a94565b6102df6004803603602081101561047a57600080fd5b5035611a9a565b610246611ae9565b6102df6004803603604081101561049f57600080fd5b506001600160a01b038135169060200135611af7565b610246600480360360208110156104cb57600080fd5b50356001600160a01b0316611bca565b610397611bdc565b610246611beb565b6106ac600480360360a081101561050157600080fd5b6001600160a01b038235811692602081013590911691810190606081016040820135600160201b81111561053457600080fd5b82018360208201111561054657600080fd5b803590602001918460208302840111600160201b8311171561056757600080fd5b9190808060200260200160405190810160405280939291908181526020018383602002808284376000920191909152509295949360208101935035915050600160201b8111156105b657600080fd5b8201836020820111156105c857600080fd5b803590602001918460208302840111600160201b831117156105e957600080fd5b9190808060200260200160405190810160405280939291908181526020018383602002808284376000920191909152509295949360208101935035915050600160201b81111561063857600080fd5b82018360208201111561064a57600080fd5b803590602001918460018302840111600160201b8311171561066b57600080fd5b91908080601f016020809104026020016040519081016040528093929190818152602001838380828437600092019190915250929550611bf1945050505050565b604080516001600160e01b03199092168252519081900360200190f35b610246611c02565b6102df600480360360208110156106e757600080fd5b5035611c08565b610246611c8b565b610397611cd9565b610246611ce8565b610246611cee565b6106ac600480360360a081101561072457600080fd5b6001600160a01b03823581169260208101359091169160408201359160608101359181019060a081016080820135600160201b81111561076357600080fd5b82018360208201111561077557600080fd5b803590602001918460018302840111600160201b8311171561079657600080fd5b91908080601f016020809104026020016040519081016040528093929190818152602001838380828437600092019190915250929550611cf4945050505050565b6001600160a01b0381166000908152600f6020908152604080832054600e90925282205461084f919061084990670de0b6b3a764000090610843906108249061081e611c8b565b90611d05565b6001600160a01b03881660009081526012602052604090205490611d62565b90611dc2565b90611e29565b92915050565b6001600160e01b03191660009081526006602052604090205460ff1690565b600f6020526000908152604090205481565b61088e611e83565b600180546001600160a01b0383166001600160a01b0319909116811790915560408051918252517f906a1c6bd7e3091ea86693dd029a831c19049ce77f1dce2ce0bab1cacbabce229181900360200190a150565b6108ea611e83565b60055460ff161515811515141561090057610959565b6005805460ff1916821515179081905560ff161561091d57426004555b6005546040805160ff90921615158252517f8fb6c181ee25a520cf3dd6565006ef91229fcfe5a989566c2a3b8c115570cec59181900360200190a15b50565b6011545b90565b61096b611e83565b600280546001600160a01b0319166001600160a01b0392909216919091179055565b60006109a6600b54600a54611d6290919063ffffffff16565b905090565b6001600160a01b03919091166000908152601060209081526040808320938352929052205490565b600b5481565b6002546001600160a01b03163314610a225760405162461bcd60e51b815260040180806020018281038252602a815260200180612002602a913960400191505060405180910390fd5b6000610a2c611c8b565b600d55610a37611ae9565b600c556001600160a01b03811615610a7e57610a52816107d7565b6001600160a01b0382166000908152600f6020908152604080832093909355600d54600e909152919020555b6009544210610a9d57600b54610a95908390611dc2565b600a55610ae0565b600954600090610aad9042611d05565b90506000610ac6600a5483611d6290919063ffffffff16565b600b54909150610ada906108438684611e29565b600a5550505b600754604080516370a0823160e01b815230600482015290516000926001600160a01b0316916370a08231916024808301926020929190829003018186803b158015610b2b57600080fd5b505afa158015610b3f573d6000803e3d6000fd5b505050506040513d6020811015610b5557600080fd5b5051600b54909150610b68908290611dc2565b600a541115610bbe576040805162461bcd60e51b815260206004820152601860248201527f50726f76696465642072657761726420746f6f20686967680000000000000000604482015290519081900360640190fd5b42600c819055600b54610bd19190611e29565b6009556040805184815290517fde88a922e0d3b88b24e9623efeb464919c6bf9f66857a65e2bfcf2ce87a9433d9181900360200190a1505050565b60026003541415610c64576040805162461bcd60e51b815260206004820152601f60248201527f5265656e7472616e637947756172643a207265656e7472616e742063616c6c00604482015290519081900360640190fd5b6002600355610c71611ece565b610c79611c8b565b600d55610c84611ae9565b600c556001600160a01b03811615610ccb57610c9f816107d7565b6001600160a01b0382166000908152600f6020908152604080832093909355600d54600e909152919020555b6000600f6000610cd9611ece565b6001600160a01b0316815260208101919091526040016000205490508015610df6576000600f6000610d09611ece565b6001600160a01b0390811682526020820192909252604001600020919091556007541663a9059cbb610d39611ece565b836040518363ffffffff1660e01b815260040180836001600160a01b0316815260200182815260200192505050602060405180830381600087803b158015610d8057600080fd5b505af1158015610d94573d6000803e3d6000fd5b505050506040513d6020811015610daa57600080fd5b50610db59050611ece565b6001600160a01b03167fe2403640ba68fed3a2f88b7557551d1993f84b99bb10ff833f0cf8db0c5e0486826040518082815260200191505060405180910390a25b50506001600355565b6002546001600160a01b031681565b60026003541415610e66576040805162461bcd60e51b815260206004820152601f60248201527f5265656e7472616e637947756172643a207265656e7472616e742063616c6c00604482015290519081900360640190fd5b6002600355610e73611ece565b610e7b611c8b565b600d55610e86611ae9565b600c556001600160a01b03811615610ecd57610ea1816107d7565b6001600160a01b0382166000908152600f6020908152604080832093909355600d54600e909152919020555b601354604080516376aed2e160e01b81526004810186905290516000926001600160a01b0316916376aed2e1916024808301926020929190829003018186803b158015610f1957600080fd5b505afa158015610f2d573d6000803e3d6000fd5b505050506040513d6020811015610f4357600080fd5b505190506000600160ff83161480610f5e57508160ff166002145b15610f7657610f6f6103e885611d62565b905061115f565b8160ff166003141561115f576013546040805163f47d54bd60e01b815260048101889052905160609283926001600160a01b039091169163f47d54bd91602480820192600092909190829003018186803b158015610fd357600080fd5b505afa158015610fe7573d6000803e3d6000fd5b505050506040513d6000823e601f3d908101601f19168201604090815281101561101057600080fd5b8101908080516040519392919084600160201b82111561102f57600080fd5b90830190602082018581111561104457600080fd5b82518660208202830111600160201b8211171561106057600080fd5b82525081516020918201928201910280838360005b8381101561108d578181015183820152602001611075565b5050505090500160405260200180516040519392919084600160201b8211156110b557600080fd5b9083019060208201858111156110ca57600080fd5b82518660208202830111600160201b821117156110e657600080fd5b82525081516020918201928201910280838360005b838110156111135781810151838201526020016110fb565b5050505091909101604052505083519395509193506000915061114190508261113c8180611d62565b611d62565b90506111586103e8611153838b611d62565b611e29565b9450505050505b600081116111a8576040805162461bcd60e51b8152602060048201526011602482015270043616e6e6f74207769746864726177203607c1b604482015290519081900360640190fd5b6111e584601060006111b8611ece565b6001600160a01b03168152602080820192909252604090810160009081208a825290925290205490611d05565b601060006111f1611ece565b6001600160a01b03168152602080820192909252604090810160009081208982529092529020556011546112259082611d05565b6011556112588160126000611238611ece565b6001600160a01b0316815260208101919091526040016000205490611d05565b60126000611264611ece565b6001600160a01b0390811682526020820192909252604001600020919091556008541663f242432a30611295611ece565b604080516001600160e01b031960e086901b1681526001600160a01b039384166004820152919092166024820152604481018990526064810188905260a06084820152600260a482015261060f60f31b60c4820152905160e480830192600092919082900301818387803b15801561130c57600080fd5b505af1158015611320573d6000803e3d6000fd5b5050505061132c611ece565b604080518781526020810187905280820184905290516001600160a01b0392909216917f75e161b3e824b114fc1a33274bd7091918dd4e639cede50b78b15a4eea956a219181900360600190a250506001600355505050565b6001546001600160a01b031681565b61139c611e83565b60006113a6611c8b565b600d556113b1611ae9565b600c556001600160a01b038116156113f8576113cc816107d7565b6001600160a01b0382166000908152600f6020908152604080832093909355600d54600e909152919020555b50600955565b60055460ff1681565b6001600160a01b031660009081526012602052604090205490565b6008546001600160a01b031681565b6001546001600160a01b0316331461147a5760405162461bcd60e51b8152600401808060200182810382526035815260200180611f416035913960400191505060405180910390fd5b600054600154604080516001600160a01b03938416815292909116602083015280517fb532073b38c83145e3e5135377a08bf9aab55bc0fd7c1179cd4fb995d2a5159c9281900390910190a160018054600080546001600160a01b03199081166001600160a01b03841617909155169055565b60026003541415611545576040805162461bcd60e51b815260206004820152601f60248201527f5265656e7472616e637947756172643a207265656e7472616e742063616c6c00604482015290519081900360640190fd5b600260035560055460ff161561158c5760405162461bcd60e51b815260040180806020018281038252603c815260200180611fc6603c913960400191505060405180910390fd5b611594611ece565b61159c611c8b565b600d556115a7611ae9565b600c556001600160a01b038116156115ee576115c2816107d7565b6001600160a01b0382166000908152600f6020908152604080832093909355600d54600e909152919020555b601354604080516376aed2e160e01b81526004810186905290516000926001600160a01b0316916376aed2e1916024808301926020929190829003018186803b15801561163a57600080fd5b505afa15801561164e573d6000803e3d6000fd5b505050506040513d602081101561166457600080fd5b505190506000600160ff8316148061167f57508160ff166002145b15611697576116906103e885611d62565b9050611876565b8160ff1660031415611876576013546040805163f47d54bd60e01b815260048101889052905160609283926001600160a01b039091169163f47d54bd91602480820192600092909190829003018186803b1580156116f457600080fd5b505afa158015611708573d6000803e3d6000fd5b505050506040513d6000823e601f3d908101601f19168201604090815281101561173157600080fd5b8101908080516040519392919084600160201b82111561175057600080fd5b90830190602082018581111561176557600080fd5b82518660208202830111600160201b8211171561178157600080fd5b82525081516020918201928201910280838360005b838110156117ae578181015183820152602001611796565b5050505090500160405260200180516040519392919084600160201b8211156117d657600080fd5b9083019060208201858111156117eb57600080fd5b82518660208202830111600160201b8211171561180757600080fd5b82525081516020918201928201910280838360005b8381101561183457818101518382015260200161181c565b5050505091909101604052505083519395509193506000915061185d90508261113c8180611d62565b905061186f6103e8611153838b611d62565b9450505050505b600081116118bc576040805162461bcd60e51b815260206004820152600e60248201526d043616e6e6f74207374616b6520360941b604482015290519081900360640190fd5b6011546118c99082611e29565b6011556118fc81601260006118dc611ece565b6001600160a01b0316815260208101919091526040016000205490611e29565b60126000611908611ece565b6001600160a01b0390811682526020820192909252604001600020919091556008541663f242432a611938611ece565b604080516001600160e01b031960e085901b1681526001600160a01b039092166004830152306024830152604482018990526064820188905260a06084830152600260a483015261060f60f31b60c48301525160e480830192600092919082900301818387803b1580156119ab57600080fd5b505af11580156119bf573d6000803e3d6000fd5b50505050611a0084601060006119d3611ece565b6001600160a01b03168152602080820192909252604090810160009081208a825290925290205490611e29565b60106000611a0c611ece565b6001600160a01b0316815260208082019290925260409081016000908120898252909252902055611a3b611ece565b604080518781526020810187905280820184905290516001600160a01b0392909216917fb4caaf29adda3eefee3ad552a8e85058589bf834c7466cae4ee58787f70589ed9181900360600190a250506001600355505050565b600a5481565b611ae18160106000611aaa611ece565b6001600160a01b03166001600160a01b03168152602001908152602001600020600084815260200190815260200160002054610e0e565b610959610c0c565b60006109a642600954611ed2565b611aff611e83565b600080546040805163a9059cbb60e01b81526001600160a01b0392831660048201526024810185905290519185169263a9059cbb926044808401936020939083900390910190829087803b158015611b5657600080fd5b505af1158015611b6a573d6000803e3d6000fd5b505050506040513d6020811015611b8057600080fd5b5050604080516001600160a01b03841681526020810183905281517f8c1256b8896378cd5044f80c202f9772b9d77dc85c8a6eb51967210b09bfaa28929181900390910190a15050565b600e6020526000908152604090205481565b6000546001600160a01b031681565b60045481565b63bc197c8160e01b95945050505050565b600c5481565b611c10611e83565b6009544211611c505760405162461bcd60e51b8152600401808060200182810382526058815260200180611ee96058913960600191505060405180910390fd5b600b8190556040805182815290517ffb46ca5a5e06d4540d6387b930a7c978bce0db5f449ec6b3f5d07c6e1d44f2d39181900360200190a150565b600060115460001415611ca15750600d54610960565b6109a6611cd0601154610843670de0b6b3a7640000611cca600a54611cca600c5461081e611ae9565b90611d62565b600d5490611e29565b6007546001600160a01b031681565b600d5481565b60095481565b63f23a6e6160e01b95945050505050565b600082821115611d5c576040805162461bcd60e51b815260206004820152601e60248201527f536166654d6174683a207375627472616374696f6e206f766572666c6f770000604482015290519081900360640190fd5b50900390565b600082611d715750600061084f565b82820282848281611d7e57fe5b0414611dbb5760405162461bcd60e51b8152600401808060200182810382526021815260200180611fa56021913960400191505060405180910390fd5b9392505050565b6000808211611e18576040805162461bcd60e51b815260206004820152601a60248201527f536166654d6174683a206469766973696f6e206279207a65726f000000000000604482015290519081900360640190fd5b818381611e2157fe5b049392505050565b600082820183811015611dbb576040805162461bcd60e51b815260206004820152601b60248201527f536166654d6174683a206164646974696f6e206f766572666c6f770000000000604482015290519081900360640190fd5b6000546001600160a01b03163314611ecc5760405162461bcd60e51b815260040180806020018281038252602f815260200180611f76602f913960400191505060405180910390fd5b565b3390565b6000818310611ee15781611dbb565b509091905056fe50726576696f7573207265776172647320706572696f64206d75737420626520636f6d706c657465206265666f7265206368616e67696e6720746865206475726174696f6e20666f7220746865206e657720706572696f64596f75206d757374206265206e6f6d696e61746564206265666f726520796f752063616e20616363657074206f776e6572736869704f6e6c792074686520636f6e7472616374206f776e6572206d617920706572666f726d207468697320616374696f6e536166654d6174683a206d756c7469706c69636174696f6e206f766572666c6f775468697320616374696f6e2063616e6e6f7420626520706572666f726d6564207768696c652074686520636f6e74726163742069732070617573656443616c6c6572206973206e6f742052657761726473446973747269627574696f6e20636f6e7472616374a2646970667358221220437817b8209ad84b37869640b675cc8b34ff122ae5d0a66d771efafaedee81e464736f6c63430007000033",
  "linkReferences": {},
  "deployedLinkReferences": {}
}