{
  "_format": "hh-sol-artifact-1",
  "contractName": "StakingRewards",
  "sourceName": "contracts/synthetix/StakingRewards.sol",
  "abi": [
    {
      "anonymous": false,
      "inputs": [
        {
          "indexed": true,
          "internalType": "address",
          "name": "previousOwner",
          "type": "address"
        },
        {
          "indexed": true,
          "internalType": "address",
          "name": "newOwner",
          "type": "address"
        }
      ],
      "name": "OwnershipTransferred",
      "type": "event"
    },
    {
      "anonymous": false,
      "inputs": [
        {
          "indexed": false,
          "internalType": "address",
          "name": "account",
          "type": "address"
        }
      ],
      "name": "Paused",
      "type": "event"
    },
    {
      "anonymous": false,
      "inputs": [
        {
          "indexed": false,
          "internalType": "address",
          "name": "token",
          "type": "address"
        },
        {
          "indexed": false,
          "internalType": "uint256",
          "name": "amount",
          "type": "uint256"
        }
      ],
      "name": "Recovered",
      "type": "event"
    },
    {
      "anonymous": false,
      "inputs": [
        {
          "indexed": false,
          "internalType": "uint256",
          "name": "reward",
          "type": "uint256"
        }
      ],
      "name": "RewardAdded",
      "type": "event"
    },
    {
      "anonymous": false,
      "inputs": [
        {
          "indexed": true,
          "internalType": "address",
          "name": "user",
          "type": "address"
        },
        {
          "indexed": false,
          "internalType": "uint256",
          "name": "reward",
          "type": "uint256"
        }
      ],
      "name": "RewardPaid",
      "type": "event"
    },
    {
      "anonymous": false,
      "inputs": [
        {
          "indexed": false,
          "internalType": "uint256",
          "name": "newDuration",
          "type": "uint256"
        }
      ],
      "name": "RewardsDurationUpdated",
      "type": "event"
    },
    {
      "anonymous": false,
      "inputs": [
        {
          "indexed": true,
          "internalType": "address",
          "name": "user",
          "type": "address"
        },
        {
          "indexed": false,
          "internalType": "uint256",
          "name": "tokenId",
          "type": "uint256"
        },
        {
          "indexed": false,
          "internalType": "uint256",
          "name": "quantity",
          "type": "uint256"
        },
        {
          "indexed": false,
          "internalType": "uint256",
          "name": "valuation",
          "type": "uint256"
        }
      ],
      "name": "Staked",
      "type": "event"
    },
    {
      "anonymous": false,
      "inputs": [
        {
          "indexed": false,
          "internalType": "address",
          "name": "account",
          "type": "address"
        }
      ],
      "name": "Unpaused",
      "type": "event"
    },
    {
      "anonymous": false,
      "inputs": [
        {
          "indexed": true,
          "internalType": "address",
          "name": "user",
          "type": "address"
        },
        {
          "indexed": false,
          "internalType": "uint256",
          "name": "tokenId",
          "type": "uint256"
        },
        {
          "indexed": false,
          "internalType": "uint256",
          "name": "quantity",
          "type": "uint256"
        },
        {
          "indexed": false,
          "internalType": "uint256",
          "name": "valuation",
          "type": "uint256"
        }
      ],
      "name": "Withdrawn",
      "type": "event"
    },
    {
      "inputs": [
        {
          "internalType": "address",
          "name": "account",
          "type": "address"
        }
      ],
      "name": "balanceOf",
      "outputs": [
        {
          "internalType": "uint256",
          "name": "",
          "type": "uint256"
        }
      ],
      "stateMutability": "view",
      "type": "function"
    },
    {
      "inputs": [
        {
          "internalType": "address",
          "name": "account",
          "type": "address"
        },
        {
          "internalType": "uint256",
          "name": "tokenId",
          "type": "uint256"
        }
      ],
      "name": "balanceOfNFT",
      "outputs": [
        {
          "internalType": "uint256",
          "name": "",
          "type": "uint256"
        }
      ],
      "stateMutability": "view",
      "type": "function"
    },
    {
      "inputs": [
        {
          "internalType": "address",
          "name": "account",
          "type": "address"
        }
      ],
      "name": "earned",
      "outputs": [
        {
          "internalType": "uint256",
          "name": "",
          "type": "uint256"
        }
      ],
      "stateMutability": "view",
      "type": "function"
    },
    {
      "inputs": [
        {
          "internalType": "uint256",
          "name": "tokenId",
          "type": "uint256"
        }
      ],
      "name": "exit",
      "outputs": [],
      "stateMutability": "nonpayable",
      "type": "function"
    },
    {
      "inputs": [],
      "name": "getReward",
      "outputs": [],
      "stateMutability": "nonpayable",
      "type": "function"
    },
    {
      "inputs": [],
      "name": "getRewardForDuration",
      "outputs": [
        {
          "internalType": "uint256",
          "name": "",
          "type": "uint256"
        }
      ],
      "stateMutability": "view",
      "type": "function"
    },
    {
      "inputs": [
        {
          "internalType": "address",
          "name": "_rewardsDistribution",
          "type": "address"
        },
        {
          "internalType": "address",
          "name": "_rewardsToken1",
          "type": "address"
        },
        {
          "internalType": "address",
          "name": "_rewardsToken2",
          "type": "address"
        },
        {
          "internalType": "address",
          "name": "_stakingToken",
          "type": "address"
        },
        {
          "internalType": "address",
          "name": "_stakingTokenMultiplier",
          "type": "address"
        }
      ],
      "name": "initialize",
      "outputs": [],
      "stateMutability": "nonpayable",
      "type": "function"
    },
    {
      "inputs": [],
      "name": "lastTimeRewardApplicable",
      "outputs": [
        {
          "internalType": "uint256",
          "name": "",
          "type": "uint256"
        }
      ],
      "stateMutability": "view",
      "type": "function"
    },
    {
      "inputs": [],
      "name": "lastUpdateTime",
      "outputs": [
        {
          "internalType": "uint256",
          "name": "",
          "type": "uint256"
        }
      ],
      "stateMutability": "view",
      "type": "function"
    },
    {
      "inputs": [
        {
          "internalType": "uint256",
          "name": "reward",
          "type": "uint256"
        }
      ],
      "name": "notifyRewardAmount",
      "outputs": [],
      "stateMutability": "nonpayable",
      "type": "function"
    },
    {
      "inputs": [
        {
          "internalType": "address",
          "name": "",
          "type": "address"
        },
        {
          "internalType": "address",
          "name": "",
          "type": "address"
        },
        {
          "internalType": "uint256[]",
          "name": "",
          "type": "uint256[]"
        },
        {
          "internalType": "uint256[]",
          "name": "",
          "type": "uint256[]"
        },
        {
          "internalType": "bytes",
          "name": "",
          "type": "bytes"
        }
      ],
      "name": "onERC1155BatchReceived",
      "outputs": [
        {
          "internalType": "bytes4",
          "name": "",
          "type": "bytes4"
        }
      ],
      "stateMutability": "nonpayable",
      "type": "function"
    },
    {
      "inputs": [
        {
          "internalType": "address",
          "name": "",
          "type": "address"
        },
        {
          "internalType": "address",
          "name": "",
          "type": "address"
        },
        {
          "internalType": "uint256",
          "name": "",
          "type": "uint256"
        },
        {
          "internalType": "uint256",
          "name": "",
          "type": "uint256"
        },
        {
          "internalType": "bytes",
          "name": "",
          "type": "bytes"
        }
      ],
      "name": "onERC1155Received",
      "outputs": [
        {
          "internalType": "bytes4",
          "name": "",
          "type": "bytes4"
        }
      ],
      "stateMutability": "nonpayable",
      "type": "function"
    },
    {
      "inputs": [],
      "name": "owner",
      "outputs": [
        {
          "internalType": "address",
          "name": "",
          "type": "address"
        }
      ],
      "stateMutability": "view",
      "type": "function"
    },
    {
      "inputs": [],
      "name": "paused",
      "outputs": [
        {
          "internalType": "bool",
          "name": "",
          "type": "bool"
        }
      ],
      "stateMutability": "view",
      "type": "function"
    },
    {
      "inputs": [],
      "name": "periodFinish",
      "outputs": [
        {
          "internalType": "uint256",
          "name": "",
          "type": "uint256"
        }
      ],
      "stateMutability": "view",
      "type": "function"
    },
    {
      "inputs": [
        {
          "internalType": "address",
          "name": "tokenAddress",
          "type": "address"
        },
        {
          "internalType": "uint256",
          "name": "tokenAmount",
          "type": "uint256"
        }
      ],
      "name": "recoverERC20",
      "outputs": [],
      "stateMutability": "nonpayable",
      "type": "function"
    },
    {
      "inputs": [],
      "name": "renounceOwnership",
      "outputs": [],
      "stateMutability": "nonpayable",
      "type": "function"
    },
    {
      "inputs": [],
      "name": "rewardPerToken",
      "outputs": [
        {
          "internalType": "uint256",
          "name": "",
          "type": "uint256"
        }
      ],
      "stateMutability": "view",
      "type": "function"
    },
    {
      "inputs": [],
      "name": "rewardPerTokenStored",
      "outputs": [
        {
          "internalType": "uint256",
          "name": "",
          "type": "uint256"
        }
      ],
      "stateMutability": "view",
      "type": "function"
    },
    {
      "inputs": [],
      "name": "rewardRate",
      "outputs": [
        {
          "internalType": "uint256",
          "name": "",
          "type": "uint256"
        }
      ],
      "stateMutability": "view",
      "type": "function"
    },
    {
      "inputs": [
        {
          "internalType": "address",
          "name": "",
          "type": "address"
        }
      ],
      "name": "rewards",
      "outputs": [
        {
          "internalType": "uint256",
          "name": "",
          "type": "uint256"
        }
      ],
      "stateMutability": "view",
      "type": "function"
    },
    {
      "inputs": [],
      "name": "rewardsDistribution",
      "outputs": [
        {
          "internalType": "address",
          "name": "",
          "type": "address"
        }
      ],
      "stateMutability": "view",
      "type": "function"
    },
    {
      "inputs": [],
      "name": "rewardsDuration",
      "outputs": [
        {
          "internalType": "uint256",
          "name": "",
          "type": "uint256"
        }
      ],
      "stateMutability": "view",
      "type": "function"
    },
    {
      "inputs": [],
      "name": "rewardsToken",
      "outputs": [
        {
          "internalType": "contract IERC20",
          "name": "",
          "type": "address"
        }
      ],
      "stateMutability": "view",
      "type": "function"
    },
    {
      "inputs": [
        {
          "internalType": "address",
          "name": "_rewardsDistribution",
          "type": "address"
        }
      ],
      "name": "setRewardsDistribution",
      "outputs": [],
      "stateMutability": "nonpayable",
      "type": "function"
    },
    {
      "inputs": [
        {
          "internalType": "uint256",
          "name": "_rewardsDuration",
          "type": "uint256"
        }
      ],
      "name": "setRewardsDuration",
      "outputs": [],
      "stateMutability": "nonpayable",
      "type": "function"
    },
    {
      "inputs": [
        {
          "internalType": "uint256",
          "name": "tokenId",
          "type": "uint256"
        },
        {
          "internalType": "uint256",
          "name": "quantity",
          "type": "uint256"
        }
      ],
      "name": "stake",
      "outputs": [],
      "stateMutability": "nonpayable",
      "type": "function"
    },
    {
      "inputs": [],
      "name": "stakingToken",
      "outputs": [
        {
          "internalType": "contract IERC1155",
          "name": "",
          "type": "address"
        }
      ],
      "stateMutability": "view",
      "type": "function"
    },
    {
      "inputs": [
        {
          "internalType": "bytes4",
          "name": "interfaceId",
          "type": "bytes4"
        }
      ],
      "name": "supportsInterface",
      "outputs": [
        {
          "internalType": "bool",
          "name": "",
          "type": "bool"
        }
      ],
      "stateMutability": "view",
      "type": "function"
    },
    {
      "inputs": [],
      "name": "totalSupply",
      "outputs": [
        {
          "internalType": "uint256",
          "name": "",
          "type": "uint256"
        }
      ],
      "stateMutability": "view",
      "type": "function"
    },
    {
      "inputs": [
        {
          "internalType": "address",
          "name": "newOwner",
          "type": "address"
        }
      ],
      "name": "transferOwnership",
      "outputs": [],
      "stateMutability": "nonpayable",
      "type": "function"
    },
    {
      "inputs": [
        {
          "internalType": "uint256",
          "name": "timestamp",
          "type": "uint256"
        }
      ],
      "name": "updatePeriodFinish",
      "outputs": [],
      "stateMutability": "nonpayable",
      "type": "function"
    },
    {
      "inputs": [
        {
          "internalType": "address",
          "name": "",
          "type": "address"
        }
      ],
      "name": "userRewardPerTokenPaid",
      "outputs": [
        {
          "internalType": "uint256",
          "name": "",
          "type": "uint256"
        }
      ],
      "stateMutability": "view",
      "type": "function"
    },
    {
      "inputs": [
        {
          "internalType": "uint256",
          "name": "tokenId",
          "type": "uint256"
        },
        {
          "internalType": "uint256",
          "name": "quantity",
          "type": "uint256"
        }
      ],
      "name": "withdraw",
      "outputs": [],
      "stateMutability": "nonpayable",
      "type": "function"
    }
  ],
  "bytecode": "0x608060405234801561001057600080fd5b506123dc806100206000396000f3fe608060405234801561001057600080fd5b50600436106102055760003560e01c806372f702f31161011a578063bc197c81116100ad578063d1af0c7d1161007c578063d1af0c7d146106d3578063df136d65146106db578063ebe2b12b146106e3578063f23a6e61146106eb578063f2fde38b146107b457610205565b8063bc197c81146104c8578063c8f33c91146106a6578063cc1a378f146106ae578063cd3daf9d146106cb57610205565b806380faa57d116100e957806380faa57d146104665780638980f11f1461046e5780638b8763471461049a5780638da5cb5b146104c057610205565b806372f702f3146104165780637b0472f01461041e5780637b0a47ee146104415780637f8661a11461044957610205565b8063386a95251161019d578063441a3e701161016c578063441a3e70146103a0578063556f6e6b146103c35780635c975abb146103e057806370a08231146103e8578063715018a61461040e57610205565b8063386a95251461034f5780633c6b16ab146103575780633d18b912146103745780633fc6df6e1461037c57610205565b806318160ddd116101d957806318160ddd146102ed57806319762143146102f55780631c1f78eb1461031b5780632aa4006a1461032357610205565b80628cc2621461020a57806301ffc9a7146102425780630700037d1461027d5780631459457a146102a3575b600080fd5b6102306004803603602081101561022057600080fd5b50356001600160a01b03166107da565b60408051918252519081900360200190f35b6102696004803603602081101561025857600080fd5b50356001600160e01b03191661085b565b604080519115158252519081900360200190f35b6102306004803603602081101561029357600080fd5b50356001600160a01b031661087a565b6102eb600480360360a08110156102b957600080fd5b506001600160a01b0381358116916020810135821691604082013581169160608101358216916080909101351661088d565b005b61023061098f565b6102eb6004803603602081101561030b57600080fd5b50356001600160a01b0316610997565b610230610a1b565b6102306004803603604081101561033957600080fd5b506001600160a01b038135169060200135610a3b565b610230610a64565b6102eb6004803603602081101561036d57600080fd5b5035610a6b565b6102eb610cb0565b610384610eab565b604080516001600160a01b039092168252519081900360200190f35b6102eb600480360360408110156103b657600080fd5b5080359060200135610eba565b6102eb600480360360208110156103d957600080fd5b503561143b565b610269611505565b610230600480360360208110156103fe57600080fd5b50356001600160a01b031661150e565b6102eb61152a565b6103846115d6565b6102eb6004803603604081101561043457600080fd5b50803590602001356115e6565b610230611ba5565b6102eb6004803603602081101561045f57600080fd5b5035611bac565b610230611bff565b6102eb6004803603604081101561048457600080fd5b506001600160a01b038135169060200135611c0e565b610230600480360360208110156104b057600080fd5b50356001600160a01b0316611d48565b610384611d5b565b610689600480360360a08110156104de57600080fd5b6001600160a01b038235811692602081013590911691810190606081016040820135600160201b81111561051157600080fd5b82018360208201111561052357600080fd5b803590602001918460208302840111600160201b8311171561054457600080fd5b9190808060200260200160405190810160405280939291908181526020018383602002808284376000920191909152509295949360208101935035915050600160201b81111561059357600080fd5b8201836020820111156105a557600080fd5b803590602001918460208302840111600160201b831117156105c657600080fd5b9190808060200260200160405190810160405280939291908181526020018383602002808284376000920191909152509295949360208101935035915050600160201b81111561061557600080fd5b82018360208201111561062757600080fd5b803590602001918460018302840111600160201b8311171561064857600080fd5b91908080601f016020809104026020016040519081016040528093929190818152602001838380828437600092019190915250929550611d6a945050505050565b604080516001600160e01b03199092168252519081900360200190f35b610230611d7b565b6102eb600480360360208110156106c457600080fd5b5035611d82565b610230611e61565b610384611eb5565b610230611ec5565b610230611ecc565b610689600480360360a081101561070157600080fd5b6001600160a01b03823581169260208101359091169160408201359160608101359181019060a081016080820135600160201b81111561074057600080fd5b82018360208201111561075257600080fd5b803590602001918460018302840111600160201b8311171561077357600080fd5b91908080601f016020809104026020016040519081016040528093929190818152602001838380828437600092019190915250929550611ed3945050505050565b6102eb600480360360208110156107ca57600080fd5b50356001600160a01b0316611ee4565b6001600160a01b03811660009081526101686020908152604080832054610167909252822054610855919061084f90670de0b6b3a7640000906108499061082990610823611e61565b90611fe7565b6001600160a01b038816600090815261016b602052604090205490612044565b906120a4565b9061210b565b92915050565b6001600160e01b031916600090815260ca602052604090205460ff1690565b6101686020526000908152604090205481565b600054610100900460ff16806108a657506108a6612165565b806108b4575060005460ff16155b6108ef5760405162461bcd60e51b815260040180806020018281038252602e81526020018061230e602e913960400191505060405180910390fd5b600054610100900460ff1615801561091a576000805460ff1961ff0019909116610100171660011790555b610922612176565b61016080546001600160a01b038088166001600160a01b0319928316179092556101618054868416908316179055606580549289169290911691909117905560006101628190556101635562127500610164558015610987576000805461ff00191690555b505050505050565b61016a545b90565b61099f61226f565b6001600160a01b03166109b0611d5b565b6001600160a01b0316146109f9576040805162461bcd60e51b8152602060048201819052602482015260008051602061235d833981519152604482015290519081900360640190fd5b606580546001600160a01b0319166001600160a01b0392909216919091179055565b6000610a36610164546101635461204490919063ffffffff16565b905090565b6001600160a01b0391909116600090815261016960209081526040808320938352929052205490565b6101645481565b6065546001600160a01b03163314610ab45760405162461bcd60e51b815260040180806020018281038252602a81526020018061237d602a913960400191505060405180910390fd5b6000610abe611e61565b61016655610aca611bff565b610165556001600160a01b03811615610b1557610ae6816107da565b6001600160a01b0382166000908152610168602090815260408083209390935561016654610167909152919020555b610162544210610b375761016454610b2e9083906120a4565b61016355610b7e565b61016254600090610b489042611fe7565b90506000610b62610163548361204490919063ffffffff16565b61016454909150610b7790610849868461210b565b6101635550505b61016054604080516370a0823160e01b815230600482015290516000926001600160a01b0316916370a08231916024808301926020929190829003018186803b158015610bca57600080fd5b505afa158015610bde573d6000803e3d6000fd5b505050506040513d6020811015610bf457600080fd5b505161016454909150610c089082906120a4565b610163541115610c5f576040805162461bcd60e51b815260206004820152601860248201527f50726f76696465642072657761726420746f6f20686967680000000000000000604482015290519081900360640190fd5b4261016581905561016454610c74919061210b565b610162556040805184815290517fde88a922e0d3b88b24e9623efeb464919c6bf9f66857a65e2bfcf2ce87a9433d9181900360200190a1505050565b60026066541415610d08576040805162461bcd60e51b815260206004820152601f60248201527f5265656e7472616e637947756172643a207265656e7472616e742063616c6c00604482015290519081900360640190fd5b6002606655610d1561226f565b610d1d611e61565b61016655610d29611bff565b610165556001600160a01b03811615610d7457610d45816107da565b6001600160a01b0382166000908152610168602090815260408083209390935561016654610167909152919020555b60006101686000610d8361226f565b6001600160a01b0316815260208101919091526040016000205490508015610ea25760006101686000610db461226f565b6001600160a01b039081168252602082019290925260400160002091909155610160541663a9059cbb610de561226f565b836040518363ffffffff1660e01b815260040180836001600160a01b0316815260200182815260200192505050602060405180830381600087803b158015610e2c57600080fd5b505af1158015610e40573d6000803e3d6000fd5b505050506040513d6020811015610e5657600080fd5b50610e61905061226f565b6001600160a01b03167fe2403640ba68fed3a2f88b7557551d1993f84b99bb10ff833f0cf8db0c5e0486826040518082815260200191505060405180910390a25b50506001606655565b6065546001600160a01b031681565b60026066541415610f12576040805162461bcd60e51b815260206004820152601f60248201527f5265656e7472616e637947756172643a207265656e7472616e742063616c6c00604482015290519081900360640190fd5b6002606655610f1f61226f565b610f27611e61565b61016655610f33611bff565b610165556001600160a01b03811615610f7e57610f4f816107da565b6001600160a01b0382166000908152610168602090815260408083209390935561016654610167909152919020555b61016c54604080516376aed2e160e01b81526004810186905290516000926001600160a01b0316916376aed2e1916024808301926020929190829003018186803b158015610fcb57600080fd5b505afa158015610fdf573d6000803e3d6000fd5b505050506040513d6020811015610ff557600080fd5b505190506000600160ff8316148061101057508160ff166002145b1561102857611021846103e8612044565b905061120e565b8160ff166003141561120e5761016c546040805163f47d54bd60e01b815260048101889052905160609283926001600160a01b039091169163f47d54bd91602480820192600092909190829003018186803b15801561108657600080fd5b505afa15801561109a573d6000803e3d6000fd5b505050506040513d6000823e601f3d908101601f1916820160409081528110156110c357600080fd5b8101908080516040519392919084600160201b8211156110e257600080fd5b9083019060208201858111156110f757600080fd5b82518660208202830111600160201b8211171561111357600080fd5b82525081516020918201928201910280838360005b83811015611140578181015183820152602001611128565b5050505090500160405260200180516040519392919084600160201b82111561116857600080fd5b90830190602082018581111561117d57600080fd5b82518660208202830111600160201b8211171561119957600080fd5b82525081516020918201928201910280838360005b838110156111c65781810151838201526020016111ae565b505050509190910160405250508351939550919350600091506111f590506111ee8380612044565b8390612044565b90506112076103e861084f838b612044565b9450505050505b60008111611257576040805162461bcd60e51b8152602060048201526011602482015270043616e6e6f74207769746864726177203607c1b604482015290519081900360640190fd5b61129584610169600061126861226f565b6001600160a01b03168152602080820192909252604090810160009081208a825290925290205490611fe7565b61016960006112a261226f565b6001600160a01b031681526020808201929092526040908101600090812089825290925290205561016a546112d79082611fe7565b61016a5561130c8161016b60006112ec61226f565b6001600160a01b0316815260208101919091526040016000205490611fe7565b61016b600061131961226f565b6001600160a01b039081168252602082019290925260400160002091909155610161541663f242432a3061134b61226f565b604080516001600160e01b031960e086901b1681526001600160a01b039384166004820152919092166024820152604481018990526064810188905260a06084820152600260a482015261060f60f31b60c4820152905160e480830192600092919082900301818387803b1580156113c257600080fd5b505af11580156113d6573d6000803e3d6000fd5b505050506113e261226f565b604080518781526020810187905280820184905290516001600160a01b0392909216917f75e161b3e824b114fc1a33274bd7091918dd4e639cede50b78b15a4eea956a219181900360600190a250506001606655505050565b61144361226f565b6001600160a01b0316611454611d5b565b6001600160a01b03161461149d576040805162461bcd60e51b8152602060048201819052602482015260008051602061235d833981519152604482015290519081900360640190fd5b60006114a7611e61565b610166556114b3611bff565b610165556001600160a01b038116156114fe576114cf816107da565b6001600160a01b0382166000908152610168602090815260408083209390935561016654610167909152919020555b5061016255565b60985460ff1690565b6001600160a01b0316600090815261016b602052604090205490565b61153261226f565b6001600160a01b0316611543611d5b565b6001600160a01b03161461158c576040805162461bcd60e51b8152602060048201819052602482015260008051602061235d833981519152604482015290519081900360640190fd5b6033546040516000916001600160a01b0316907f8be0079c531659141344cd1fd0a4f28419497f9722a3daafe3b4186f6b6457e0908390a3603380546001600160a01b0319169055565b610161546001600160a01b031681565b6002606654141561163e576040805162461bcd60e51b815260206004820152601f60248201527f5265656e7472616e637947756172643a207265656e7472616e742063616c6c00604482015290519081900360640190fd5b600260665561164b611505565b15611690576040805162461bcd60e51b815260206004820152601060248201526f14185d5cd8589b194e881c185d5cd95960821b604482015290519081900360640190fd5b61169861226f565b6116a0611e61565b610166556116ac611bff565b610165556001600160a01b038116156116f7576116c8816107da565b6001600160a01b0382166000908152610168602090815260408083209390935561016654610167909152919020555b61016c54604080516376aed2e160e01b81526004810186905290516000926001600160a01b0316916376aed2e1916024808301926020929190829003018186803b15801561174457600080fd5b505afa158015611758573d6000803e3d6000fd5b505050506040513d602081101561176e57600080fd5b505190506000600160ff8316148061178957508160ff166002145b156117a15761179a846103e8612044565b9050611980565b8160ff16600314156119805761016c546040805163f47d54bd60e01b815260048101889052905160609283926001600160a01b039091169163f47d54bd91602480820192600092909190829003018186803b1580156117ff57600080fd5b505afa158015611813573d6000803e3d6000fd5b505050506040513d6000823e601f3d908101601f19168201604090815281101561183c57600080fd5b8101908080516040519392919084600160201b82111561185b57600080fd5b90830190602082018581111561187057600080fd5b82518660208202830111600160201b8211171561188c57600080fd5b82525081516020918201928201910280838360005b838110156118b95781810151838201526020016118a1565b5050505090500160405260200180516040519392919084600160201b8211156118e157600080fd5b9083019060208201858111156118f657600080fd5b82518660208202830111600160201b8211171561191257600080fd5b82525081516020918201928201910280838360005b8381101561193f578181015183820152602001611927565b5050505091909101604052505083519395509193506000915061196790506111ee8380612044565b90506119796103e861084f838b612044565b9450505050505b600081116119c6576040805162461bcd60e51b815260206004820152600e60248201526d043616e6e6f74207374616b6520360941b604482015290519081900360640190fd5b61016a546119d4908261210b565b61016a55611a098161016b60006119e961226f565b6001600160a01b031681526020810191909152604001600020549061210b565b61016b6000611a1661226f565b6001600160a01b039081168252602082019290925260400160002091909155610161541663f242432a611a4761226f565b604080516001600160e01b031960e085901b1681526001600160a01b039092166004830152306024830152604482018990526064820188905260a06084830152600260a483015261060f60f31b60c48301525160e480830192600092919082900301818387803b158015611aba57600080fd5b505af1158015611ace573d6000803e3d6000fd5b50505050611b10846101696000611ae361226f565b6001600160a01b03168152602080820192909252604090810160009081208a82529092529020549061210b565b6101696000611b1d61226f565b6001600160a01b0316815260208082019290925260409081016000908120898252909252902055611b4c61226f565b604080518781526020810187905280820184905290516001600160a01b0392909216917fb4caaf29adda3eefee3ad552a8e85058589bf834c7466cae4ee58787f70589ed9181900360600190a250506001606655505050565b6101635481565b611bf4816101696000611bbd61226f565b6001600160a01b03166001600160a01b03168152602001908152602001600020600084815260200190815260200160002054610eba565b611bfc610cb0565b50565b6000610a364261016254612273565b611c1661226f565b6001600160a01b0316611c27611d5b565b6001600160a01b031614611c70576040805162461bcd60e51b8152602060048201819052602482015260008051602061235d833981519152604482015290519081900360640190fd5b6000611c7a611d5b565b9050826001600160a01b031663a9059cbb82846040518363ffffffff1660e01b815260040180836001600160a01b0316815260200182815260200192505050602060405180830381600087803b158015611cd357600080fd5b505af1158015611ce7573d6000803e3d6000fd5b505050506040513d6020811015611cfd57600080fd5b5050604080516001600160a01b03851681526020810184905281517f8c1256b8896378cd5044f80c202f9772b9d77dc85c8a6eb51967210b09bfaa28929181900390910190a1505050565b6101676020526000908152604090205481565b6033546001600160a01b031690565b63bc197c8160e01b95945050505050565b6101655481565b611d8a61226f565b6001600160a01b0316611d9b611d5b565b6001600160a01b031614611de4576040805162461bcd60e51b8152602060048201819052602482015260008051602061235d833981519152604482015290519081900360640190fd5b610162544211611e255760405162461bcd60e51b81526004018080602001828103825260588152602001806122906058913960600191505060405180910390fd5b6101648190556040805182815290517ffb46ca5a5e06d4540d6387b930a7c978bce0db5f449ec6b3f5d07c6e1d44f2d39181900360200190a150565b600061016a5460001415611e79575061016654610994565b610a36611eab61016a54610849670de0b6b3a7640000611ea561016354611ea561016554610823611bff565b90612044565b610166549061210b565b610160546001600160a01b031681565b6101665481565b6101625481565b63f23a6e6160e01b95945050505050565b611eec61226f565b6001600160a01b0316611efd611d5b565b6001600160a01b031614611f46576040805162461bcd60e51b8152602060048201819052602482015260008051602061235d833981519152604482015290519081900360640190fd5b6001600160a01b038116611f8b5760405162461bcd60e51b81526004018080602001828103825260268152602001806122e86026913960400191505060405180910390fd5b6033546040516001600160a01b038084169216907f8be0079c531659141344cd1fd0a4f28419497f9722a3daafe3b4186f6b6457e090600090a3603380546001600160a01b0319166001600160a01b0392909216919091179055565b60008282111561203e576040805162461bcd60e51b815260206004820152601e60248201527f536166654d6174683a207375627472616374696f6e206f766572666c6f770000604482015290519081900360640190fd5b50900390565b60008261205357506000610855565b8282028284828161206057fe5b041461209d5760405162461bcd60e51b815260040180806020018281038252602181526020018061233c6021913960400191505060405180910390fd5b9392505050565b60008082116120fa576040805162461bcd60e51b815260206004820152601a60248201527f536166654d6174683a206469766973696f6e206279207a65726f000000000000604482015290519081900360640190fd5b81838161210357fe5b049392505050565b60008282018381101561209d576040805162461bcd60e51b815260206004820152601b60248201527f536166654d6174683a206164646974696f6e206f766572666c6f770000000000604482015290519081900360640190fd5b600061217030612289565b15905090565b600054610100900460ff168061218f575061218f612165565b8061219d575060005460ff16155b6121d85760405162461bcd60e51b815260040180806020018281038252602e81526020018061230e602e913960400191505060405180910390fd5b600054610100900460ff16158015612203576000805460ff1961ff0019909116610100171660011790555b600061220d61226f565b603380546001600160a01b0319166001600160a01b038316908117909155604051919250906000907f8be0079c531659141344cd1fd0a4f28419497f9722a3daafe3b4186f6b6457e0908290a3508015611bfc576000805461ff001916905550565b3390565b6000818310612282578161209d565b5090919050565b3b15159056fe50726576696f7573207265776172647320706572696f64206d75737420626520636f6d706c657465206265666f7265206368616e67696e6720746865206475726174696f6e20666f7220746865206e657720706572696f644f776e61626c653a206e6577206f776e657220697320746865207a65726f2061646472657373496e697469616c697a61626c653a20636f6e747261637420697320616c726561647920696e697469616c697a6564536166654d6174683a206d756c7469706c69636174696f6e206f766572666c6f774f776e61626c653a2063616c6c6572206973206e6f7420746865206f776e657243616c6c6572206973206e6f742052657761726473446973747269627574696f6e20636f6e7472616374a26469706673582212207ca7d35fe33c2fd47f90f334e9789ec80dfbd25a25b60bd8c8099f0193e4984c64736f6c63430007000033",
  "linkReferences": {},
  "deployedLinkReferences": {}
}