{
  "_format": "hh-sol-artifact-1",
  "contractName": "ERC1155RG",
  "sourceName": "contracts/RelatableGameContracts/ERC1155RG.sol",
  "abi": [
    {
      "inputs": [
        {
          "internalType": "string",
          "name": "uri",
          "type": "string"
        },
        {
          "internalType": "address",
          "name": "owner",
          "type": "address"
        }
      ],
      "stateMutability": "nonpayable",
      "type": "constructor"
    },
    {
      "anonymous": false,
      "inputs": [
        {
          "indexed": true,
          "internalType": "address",
          "name": "account",
          "type": "address"
        },
        {
          "indexed": true,
          "internalType": "address",
          "name": "operator",
          "type": "address"
        },
        {
          "indexed": false,
          "internalType": "bool",
          "name": "approved",
          "type": "bool"
        }
      ],
      "name": "ApprovalForAll",
      "type": "event"
    },
    {
      "anonymous": false,
      "inputs": [
        {
          "indexed": false,
          "internalType": "address",
          "name": "oldOwner",
          "type": "address"
        },
        {
          "indexed": false,
          "internalType": "address",
          "name": "newOwner",
          "type": "address"
        }
      ],
      "name": "OwnerChanged",
      "type": "event"
    },
    {
      "anonymous": false,
      "inputs": [
        {
          "indexed": false,
          "internalType": "address",
          "name": "newOwner",
          "type": "address"
        }
      ],
      "name": "OwnerNominated",
      "type": "event"
    },
    {
      "anonymous": false,
      "inputs": [
        {
          "indexed": false,
          "internalType": "address",
          "name": "account",
          "type": "address"
        }
      ],
      "name": "Paused",
      "type": "event"
    },
    {
      "anonymous": false,
      "inputs": [
        {
          "indexed": true,
          "internalType": "address",
          "name": "operator",
          "type": "address"
        },
        {
          "indexed": true,
          "internalType": "address",
          "name": "from",
          "type": "address"
        },
        {
          "indexed": true,
          "internalType": "address",
          "name": "to",
          "type": "address"
        },
        {
          "indexed": false,
          "internalType": "uint256[]",
          "name": "ids",
          "type": "uint256[]"
        },
        {
          "indexed": false,
          "internalType": "uint256[]",
          "name": "values",
          "type": "uint256[]"
        }
      ],
      "name": "TransferBatch",
      "type": "event"
    },
    {
      "anonymous": false,
      "inputs": [
        {
          "indexed": true,
          "internalType": "address",
          "name": "operator",
          "type": "address"
        },
        {
          "indexed": true,
          "internalType": "address",
          "name": "from",
          "type": "address"
        },
        {
          "indexed": true,
          "internalType": "address",
          "name": "to",
          "type": "address"
        },
        {
          "indexed": false,
          "internalType": "uint256",
          "name": "id",
          "type": "uint256"
        },
        {
          "indexed": false,
          "internalType": "uint256",
          "name": "value",
          "type": "uint256"
        }
      ],
      "name": "TransferSingle",
      "type": "event"
    },
    {
      "anonymous": false,
      "inputs": [
        {
          "indexed": false,
          "internalType": "string",
          "name": "value",
          "type": "string"
        },
        {
          "indexed": true,
          "internalType": "uint256",
          "name": "id",
          "type": "uint256"
        }
      ],
      "name": "URI",
      "type": "event"
    },
    {
      "anonymous": false,
      "inputs": [
        {
          "indexed": false,
          "internalType": "address",
          "name": "account",
          "type": "address"
        }
      ],
      "name": "Unpaused",
      "type": "event"
    },
    {
      "inputs": [],
      "name": "acceptOwnership",
      "outputs": [],
      "stateMutability": "nonpayable",
      "type": "function"
    },
    {
      "inputs": [
        {
          "internalType": "address",
          "name": "account",
          "type": "address"
        },
        {
          "internalType": "uint256",
          "name": "id",
          "type": "uint256"
        }
      ],
      "name": "balanceOf",
      "outputs": [
        {
          "internalType": "uint256",
          "name": "",
          "type": "uint256"
        }
      ],
      "stateMutability": "view",
      "type": "function"
    },
    {
      "inputs": [
        {
          "internalType": "address[]",
          "name": "accounts",
          "type": "address[]"
        },
        {
          "internalType": "uint256[]",
          "name": "ids",
          "type": "uint256[]"
        }
      ],
      "name": "balanceOfBatch",
      "outputs": [
        {
          "internalType": "uint256[]",
          "name": "",
          "type": "uint256[]"
        }
      ],
      "stateMutability": "view",
      "type": "function"
    },
    {
      "inputs": [
        {
          "internalType": "address",
          "name": "owner",
          "type": "address"
        },
        {
          "internalType": "uint256",
          "name": "id",
          "type": "uint256"
        },
        {
          "internalType": "uint256",
          "name": "value",
          "type": "uint256"
        }
      ],
      "name": "burn",
      "outputs": [
        {
          "internalType": "bool",
          "name": "",
          "type": "bool"
        }
      ],
      "stateMutability": "nonpayable",
      "type": "function"
    },
    {
      "inputs": [
        {
          "internalType": "address",
          "name": "owner",
          "type": "address"
        },
        {
          "internalType": "uint256[]",
          "name": "ids",
          "type": "uint256[]"
        },
        {
          "internalType": "uint256[]",
          "name": "values",
          "type": "uint256[]"
        }
      ],
      "name": "burnBatch",
      "outputs": [
        {
          "internalType": "bool",
          "name": "",
          "type": "bool"
        }
      ],
      "stateMutability": "nonpayable",
      "type": "function"
    },
    {
      "inputs": [
        {
          "internalType": "address",
          "name": "_to",
          "type": "address"
        },
        {
          "internalType": "uint256",
          "name": "_initialSupply",
          "type": "uint256"
        },
        {
          "internalType": "string",
          "name": "_Uri",
          "type": "string"
        },
        {
          "internalType": "bytes",
          "name": "_data",
          "type": "bytes"
        }
      ],
      "name": "create",
      "outputs": [
        {
          "internalType": "uint256",
          "name": "",
          "type": "uint256"
        }
      ],
      "stateMutability": "nonpayable",
      "type": "function"
    },
    {
      "inputs": [
        {
          "internalType": "address",
          "name": "account",
          "type": "address"
        },
        {
          "internalType": "address",
          "name": "operator",
          "type": "address"
        }
      ],
      "name": "isApprovedForAll",
      "outputs": [
        {
          "internalType": "bool",
          "name": "",
          "type": "bool"
        }
      ],
      "stateMutability": "view",
      "type": "function"
    },
    {
      "inputs": [
        {
          "internalType": "address",
          "name": "to",
          "type": "address"
        },
        {
          "internalType": "uint256",
          "name": "id",
          "type": "uint256"
        },
        {
          "internalType": "uint256",
          "name": "value",
          "type": "uint256"
        },
        {
          "internalType": "bytes",
          "name": "data",
          "type": "bytes"
        }
      ],
      "name": "mint",
      "outputs": [
        {
          "internalType": "bool",
          "name": "",
          "type": "bool"
        }
      ],
      "stateMutability": "nonpayable",
      "type": "function"
    },
    {
      "inputs": [
        {
          "internalType": "address",
          "name": "to",
          "type": "address"
        },
        {
          "internalType": "uint256[]",
          "name": "ids",
          "type": "uint256[]"
        },
        {
          "internalType": "uint256[]",
          "name": "values",
          "type": "uint256[]"
        },
        {
          "internalType": "bytes",
          "name": "data",
          "type": "bytes"
        }
      ],
      "name": "mintBatch",
      "outputs": [
        {
          "internalType": "bool",
          "name": "",
          "type": "bool"
        }
      ],
      "stateMutability": "nonpayable",
      "type": "function"
    },
    {
      "inputs": [
        {
          "internalType": "address",
          "name": "_owner",
          "type": "address"
        }
      ],
      "name": "nominateNewOwner",
      "outputs": [],
      "stateMutability": "nonpayable",
      "type": "function"
    },
    {
      "inputs": [],
      "name": "nominatedOwner",
      "outputs": [
        {
          "internalType": "address",
          "name": "",
          "type": "address"
        }
      ],
      "stateMutability": "view",
      "type": "function"
    },
    {
      "inputs": [],
      "name": "owner",
      "outputs": [
        {
          "internalType": "address",
          "name": "",
          "type": "address"
        }
      ],
      "stateMutability": "view",
      "type": "function"
    },
    {
      "inputs": [],
      "name": "paused",
      "outputs": [
        {
          "internalType": "bool",
          "name": "",
          "type": "bool"
        }
      ],
      "stateMutability": "view",
      "type": "function"
    },
    {
      "inputs": [
        {
          "internalType": "address",
          "name": "from",
          "type": "address"
        },
        {
          "internalType": "address",
          "name": "to",
          "type": "address"
        },
        {
          "internalType": "uint256[]",
          "name": "ids",
          "type": "uint256[]"
        },
        {
          "internalType": "uint256[]",
          "name": "amounts",
          "type": "uint256[]"
        },
        {
          "internalType": "bytes",
          "name": "data",
          "type": "bytes"
        }
      ],
      "name": "safeBatchTransferFrom",
      "outputs": [],
      "stateMutability": "nonpayable",
      "type": "function"
    },
    {
      "inputs": [
        {
          "internalType": "address",
          "name": "from",
          "type": "address"
        },
        {
          "internalType": "address",
          "name": "to",
          "type": "address"
        },
        {
          "internalType": "uint256",
          "name": "id",
          "type": "uint256"
        },
        {
          "internalType": "uint256",
          "name": "amount",
          "type": "uint256"
        },
        {
          "internalType": "bytes",
          "name": "data",
          "type": "bytes"
        }
      ],
      "name": "safeTransferFrom",
      "outputs": [],
      "stateMutability": "nonpayable",
      "type": "function"
    },
    {
      "inputs": [
        {
          "internalType": "address",
          "name": "operator",
          "type": "address"
        },
        {
          "internalType": "bool",
          "name": "approved",
          "type": "bool"
        }
      ],
      "name": "setApprovalForAll",
      "outputs": [],
      "stateMutability": "nonpayable",
      "type": "function"
    },
    {
      "inputs": [
        {
          "internalType": "address",
          "name": "_GameContract",
          "type": "address"
        }
      ],
      "name": "setContract",
      "outputs": [
        {
          "internalType": "bool",
          "name": "",
          "type": "bool"
        }
      ],
      "stateMutability": "nonpayable",
      "type": "function"
    },
    {
      "inputs": [
        {
          "internalType": "string",
          "name": "newuri",
          "type": "string"
        }
      ],
      "name": "setURI",
      "outputs": [],
      "stateMutability": "nonpayable",
      "type": "function"
    },
    {
      "inputs": [
        {
          "internalType": "bytes4",
          "name": "interfaceId",
          "type": "bytes4"
        }
      ],
      "name": "supportsInterface",
      "outputs": [
        {
          "internalType": "bool",
          "name": "",
          "type": "bool"
        }
      ],
      "stateMutability": "view",
      "type": "function"
    },
    {
      "inputs": [
        {
          "internalType": "uint256",
          "name": "_id",
          "type": "uint256"
        }
      ],
      "name": "totalSupply",
      "outputs": [
        {
          "internalType": "uint256",
          "name": "",
          "type": "uint256"
        }
      ],
      "stateMutability": "view",
      "type": "function"
    },
    {
      "inputs": [
        {
          "internalType": "uint256",
          "name": "",
          "type": "uint256"
        }
      ],
      "name": "uri",
      "outputs": [
        {
          "internalType": "string",
          "name": "",
          "type": "string"
        }
      ],
      "stateMutability": "view",
      "type": "function"
    }
  ],
  "bytecode": "0x608060405260006007553480156200001657600080fd5b5060405162002fb538038062002fb5833981810160405260408110156200003c57600080fd5b81019080805160405193929190846401000000008211156200005d57600080fd5b9083019060208201858111156200007357600080fd5b82516401000000008111828201881017156200008e57600080fd5b82525081516020918201929091019080838360005b83811015620000bd578181015183820152602001620000a3565b50505050905090810190601f168015620000eb5780820380516001836020036101000a031916815260200191505b50604052602001519150819050826200010b6301ffc9a760e01b6200020c565b620001168162000291565b62000128636cdb3d1360e11b6200020c565b6200013a6303a24d0760e21b6200020c565b506004805460ff191690556001600160a01b038116620001a1576040805162461bcd60e51b815260206004820152601960248201527f4f776e657220616464726573732063616e6e6f74206265203000000000000000604482015290519081900360640190fd5b60048054610100600160a81b0319166101006001600160a01b038416908102919091179091556040805160008152602081019290925280517fb532073b38c83145e3e5135377a08bf9aab55bc0fd7c1179cd4fb995d2a5159c9281900390910190a150505062000346565b6001600160e01b031980821614156200026c576040805162461bcd60e51b815260206004820152601c60248201527f4552433136353a20696e76616c696420696e7465726661636520696400000000604482015290519081900360640190fd5b6001600160e01b0319166000908152602081905260409020805460ff19166001179055565b8051620002a6906003906020840190620002aa565b5050565b828054600181600116156101000203166002900490600052602060002090601f016020900481019282601f10620002ed57805160ff19168380011785556200031d565b828001600101855582156200031d579182015b828111156200031d57825182559160200191906001019062000300565b506200032b9291506200032f565b5090565b5b808211156200032b576000815560010162000330565b612c5f80620003566000396000f3fe608060405234801561001057600080fd5b50600436106101365760003560e01c80636b20c454116100b8578063a22cb4651161007c578063a22cb46514610a53578063bd85b03914610a81578063e38e3b2414610a9e578063e985e9c514610b71578063f242432a14610b9f578063f5298aca14610c6857610136565b80636b20c4541461082a578063731133e91461095d57806375f890ab14610a1d57806379ba509714610a435780638da5cb5b14610a4b57610136565b80631f7fdffa116100ff5780631f7fdffa146103125780632eb2c2d6146104ca5780634e1273f41461068b57806353a47bb7146107fe5780635c975abb1461082257610136565b8062fdd58e1461013b57806301ffc9a71461017957806302fe5305146101b45780630e89341c1461025a5780631627540c146102ec575b600080fd5b6101676004803603604081101561015157600080fd5b506001600160a01b038135169060200135610c9a565b60408051918252519081900360200190f35b6101a06004803603602081101561018f57600080fd5b50356001600160e01b031916610d09565b604080519115158252519081900360200190f35b610258600480360360208110156101ca57600080fd5b810190602081018135600160201b8111156101e457600080fd5b8201836020820111156101f657600080fd5b803590602001918460018302840111600160201b8311171561021757600080fd5b91908080601f016020809104026020016040519081016040528093929190818152602001838380828437600092019190915250929550610d28945050505050565b005b6102776004803603602081101561027057600080fd5b5035610d3c565b6040805160208082528351818301528351919283929083019185019080838360005b838110156102b1578181015183820152602001610299565b50505050905090810190601f1680156102de5780820380516001836020036101000a031916815260200191505b509250505060405180910390f35b6102586004803603602081101561030257600080fd5b50356001600160a01b0316610dd4565b6101a06004803603608081101561032857600080fd5b6001600160a01b038235169190810190604081016020820135600160201b81111561035257600080fd5b82018360208201111561036457600080fd5b803590602001918460208302840111600160201b8311171561038557600080fd5b9190808060200260200160405190810160405280939291908181526020018383602002808284376000920191909152509295949360208101935035915050600160201b8111156103d457600080fd5b8201836020820111156103e657600080fd5b803590602001918460208302840111600160201b8311171561040757600080fd5b9190808060200260200160405190810160405280939291908181526020018383602002808284376000920191909152509295949360208101935035915050600160201b81111561045657600080fd5b82018360208201111561046857600080fd5b803590602001918460018302840111600160201b8311171561048957600080fd5b91908080601f016020809104026020016040519081016040528093929190818152602001838380828437600092019190915250929550610e30945050505050565b610258600480360360a08110156104e057600080fd5b6001600160a01b038235811692602081013590911691810190606081016040820135600160201b81111561051357600080fd5b82018360208201111561052557600080fd5b803590602001918460208302840111600160201b8311171561054657600080fd5b9190808060200260200160405190810160405280939291908181526020018383602002808284376000920191909152509295949360208101935035915050600160201b81111561059557600080fd5b8201836020820111156105a757600080fd5b803590602001918460208302840111600160201b831117156105c857600080fd5b9190808060200260200160405190810160405280939291908181526020018383602002808284376000920191909152509295949360208101935035915050600160201b81111561061757600080fd5b82018360208201111561062957600080fd5b803590602001918460018302840111600160201b8311171561064a57600080fd5b91908080601f016020809104026020016040519081016040528093929190818152602001838380828437600092019190915250929550610f2e945050505050565b6107ae600480360360408110156106a157600080fd5b810190602081018135600160201b8111156106bb57600080fd5b8201836020820111156106cd57600080fd5b803590602001918460208302840111600160201b831117156106ee57600080fd5b9190808060200260200160405190810160405280939291908181526020018383602002808284376000920191909152509295949360208101935035915050600160201b81111561073d57600080fd5b82018360208201111561074f57600080fd5b803590602001918460208302840111600160201b8311171561077057600080fd5b91908080602002602001604051908101604052809392919081815260200183836020028082843760009201919091525092955061122c945050505050565b60408051602080825283518183015283519192839290830191858101910280838360005b838110156107ea5781810151838201526020016107d2565b505050509050019250505060405180910390f35b610806611318565b604080516001600160a01b039092168252519081900360200190f35b6101a0611327565b6101a06004803603606081101561084057600080fd5b6001600160a01b038235169190810190604081016020820135600160201b81111561086a57600080fd5b82018360208201111561087c57600080fd5b803590602001918460208302840111600160201b8311171561089d57600080fd5b9190808060200260200160405190810160405280939291908181526020018383602002808284376000920191909152509295949360208101935035915050600160201b8111156108ec57600080fd5b8201836020820111156108fe57600080fd5b803590602001918460208302840111600160201b8311171561091f57600080fd5b919080806020026020016040519081016040528093929190818152602001838360200280828437600092019190915250929550611331945050505050565b6101a06004803603608081101561097357600080fd5b6001600160a01b038235169160208101359160408201359190810190608081016060820135600160201b8111156109a957600080fd5b8201836020820111156109bb57600080fd5b803590602001918460018302840111600160201b831117156109dc57600080fd5b91908080601f01602080910402602001604051908101604052809392919081815260200183838082843760009201919091525092955061143d945050505050565b6101a060048036036020811015610a3357600080fd5b50356001600160a01b03166114d7565b610258611506565b6108066115d2565b61025860048036036040811015610a6957600080fd5b506001600160a01b03813516906020013515156115e6565b61016760048036036020811015610a9757600080fd5b50356116d5565b61016760048036036080811015610ab457600080fd5b6001600160a01b0382351691602081013591810190606081016040820135600160201b811115610ae357600080fd5b820183602082011115610af557600080fd5b803590602001918460018302840111600160201b83111715610b1657600080fd5b919390929091602081019035600160201b811115610b3357600080fd5b820183602082011115610b4557600080fd5b803590602001918460018302840111600160201b83111715610b6657600080fd5b5090925090506116e7565b6101a060048036036040811015610b8757600080fd5b506001600160a01b038135811691602001351661181d565b610258600480360360a0811015610bb557600080fd5b6001600160a01b03823581169260208101359091169160408201359160608101359181019060a081016080820135600160201b811115610bf457600080fd5b820183602082011115610c0657600080fd5b803590602001918460018302840111600160201b83111715610c2757600080fd5b91908080601f01602080910402602001604051908101604052809392919081815260200183838082843760009201919091525092955061184b945050505050565b6101a060048036036060811015610c7e57600080fd5b506001600160a01b038135169060208101359060400135611a16565b60006001600160a01b038316610ce15760405162461bcd60e51b815260040180806020018281038252602b815260200180612a18602b913960400191505060405180910390fd5b5060009081526001602090815260408083206001600160a01b03949094168352929052205490565b6001600160e01b03191660009081526020819052604090205460ff1690565b610d30611abe565b610d3981611b0e565b50565b60038054604080516020601f6002600019610100600188161502019095169490940493840181900481028201810190925282815260609390929091830182828015610dc85780601f10610d9d57610100808354040283529160200191610dc8565b820191906000526020600020905b815481529060010190602001808311610dab57829003601f168201915b50505050509050919050565b610ddc611abe565b600580546001600160a01b0383166001600160a01b0319909116811790915560408051918252517f906a1c6bd7e3091ea86693dd029a831c19049ce77f1dce2ce0bab1cacbabce229181900360200190a150565b6000610e3a611b25565b610e8b576040805162461bcd60e51b815260206004820152601f60248201527f63616c6c6572206973206e6f74207468652047616d6520636f6e747261637400604482015290519081900360640190fd5b610e9785858585611b4b565b60005b8451811015610f2257610eef848281518110610eb257fe5b602002602001015160066000888581518110610eca57fe5b6020026020010151815260200190815260200160002054611da090919063ffffffff16565b60066000878481518110610eff57fe5b602090810291909101810151825281019190915260400160002055600101610e9a565b50600195945050505050565b8151835114610f6e5760405162461bcd60e51b8152600401808060200182810382526028815260200180612be16028913960400191505060405180910390fd5b6001600160a01b038416610fb35760405162461bcd60e51b8152600401808060200182810382526025815260200180612abc6025913960400191505060405180910390fd5b610fbb611e01565b6001600160a01b0316856001600160a01b03161480610fe65750610fe685610fe1611e01565b61181d565b6110215760405162461bcd60e51b8152600401808060200182810382526032815260200180612ae16032913960400191505060405180910390fd5b600061102b611e01565b905061103b818787878787611e05565b60005b845181101561113c57600085828151811061105557fe5b60200260200101519050600085838151811061106d57fe5b602002602001015190506110da816040518060600160405280602a8152602001612b65602a91396001600086815260200190815260200160002060008d6001600160a01b03166001600160a01b0316815260200190815260200160002054611e579092919063ffffffff16565b60008381526001602090815260408083206001600160a01b038e811685529252808320939093558a16815220546111119082611da0565b60009283526001602081815260408086206001600160a01b038d16875290915290932055500161103e565b50846001600160a01b0316866001600160a01b0316826001600160a01b03167f4a39dc06d4c0dbc64b70af90fd698a233a518aa5d07e595d983b8c0526c8f7fb8787604051808060200180602001838103835285818151815260200191508051906020019060200280838360005b838110156111c25781810151838201526020016111aa565b50505050905001838103825284818151815260200191508051906020019060200280838360005b838110156112015781810151838201526020016111e9565b5050505090500194505050505060405180910390a4611224818787878787611eee565b505050505050565b6060815183511461126e5760405162461bcd60e51b8152600401808060200182810382526029815260200180612bb86029913960400191505060405180910390fd5b6060835167ffffffffffffffff8111801561128857600080fd5b506040519080825280602002602001820160405280156112b2578160200160208202803683370190505b50905060005b8451811015611310576112f18582815181106112d057fe5b60200260200101518583815181106112e457fe5b6020026020010151610c9a565b8282815181106112fd57fe5b60209081029190910101526001016112b8565b509392505050565b6005546001600160a01b031681565b60045460ff165b90565b600061133b611e01565b6001600160a01b0316846001600160a01b03161480611361575061136184610fe1611e01565b61139c5760405162461bcd60e51b8152600401808060200182810382526029815260200180612a936029913960400191505060405180910390fd5b6113a784848461216d565b60005b8351811015611432576113ff8382815181106113c257fe5b6020026020010151600660008785815181106113da57fe5b60200260200101518152602001908152602001600020546123db90919063ffffffff16565b6006600086848151811061140f57fe5b6020908102919091018101518252810191909152604001600020556001016113aa565b506001949350505050565b6000611447611b25565b611498576040805162461bcd60e51b815260206004820152601f60248201527f63616c6c6572206973206e6f74207468652047616d6520636f6e747261637400604482015290519081900360640190fd5b6114a485858585612438565b6000848152600660205260409020546114bd9084611da0565b600085815260066020526040902055506001949350505050565b60006114e1611abe565b50600880546001600160a01b0383166001600160a01b03199091161790556001919050565b6005546001600160a01b0316331461154f5760405162461bcd60e51b81526004018080602001828103825260358152602001806129e36035913960400191505060405180910390fd5b600454600554604080516101009093046001600160a01b039081168452909116602083015280517fb532073b38c83145e3e5135377a08bf9aab55bc0fd7c1179cd4fb995d2a5159c9281900390910190a16005805460048054610100600160a81b0319166101006001600160a01b038416021790556001600160a01b0319169055565b60045461010090046001600160a01b031681565b816001600160a01b03166115f8611e01565b6001600160a01b0316141561163e5760405162461bcd60e51b8152600401808060200182810382526029815260200180612b8f6029913960400191505060405180910390fd5b806002600061164b611e01565b6001600160a01b03908116825260208083019390935260409182016000908120918716808252919093529120805460ff19169215159290921790915561168f611e01565b6001600160a01b03167f17307eab39ab6107e8899845ad3d59bd9653f200f220920489ca2b5937696c318360405180821515815260200191505060405180910390a35050565b60009081526006602052604090205490565b60006116f1611b25565b611742576040805162461bcd60e51b815260206004820152601f60248201527f63616c6c6572206973206e6f74207468652047616d6520636f6e747261637400604482015290519081900360640190fd5b600061174c612539565b905061175661254f565b84156117be57807f6bb7ff708619ba0610cba295a58592e0451dee2622938c8755667688daf3529b878760405180806020018281038252848482818152602001925080828437600083820152604051601f909101601f19169092018290039550909350505050a25b61180088828987878080601f01602080910402602001604051908101604052809392919081815260200183838082843760009201919091525061243892505050565b600081815260066020526040902087905590509695505050505050565b6001600160a01b03918216600090815260026020908152604080832093909416825291909152205460ff1690565b6001600160a01b0384166118905760405162461bcd60e51b8152600401808060200182810382526025815260200180612abc6025913960400191505060405180910390fd5b611898611e01565b6001600160a01b0316856001600160a01b031614806118be57506118be85610fe1611e01565b6118f95760405162461bcd60e51b8152600401808060200182810382526029815260200180612a936029913960400191505060405180910390fd5b6000611903611e01565b90506119238187876119148861255a565b61191d8861255a565b87611e05565b61196a836040518060600160405280602a8152602001612b65602a913960008781526001602090815260408083206001600160a01b038d1684529091529020549190611e57565b60008581526001602090815260408083206001600160a01b038b811685529252808320939093558716815220546119a19084611da0565b60008581526001602090815260408083206001600160a01b03808b168086529184529382902094909455805188815291820187905280518a8416938616927fc3d58168c5ae7397731d063d5bbf3d657854427343f4c083240f7aacaa2d0f6292908290030190a461122481878787878761259e565b6000611a20611e01565b6001600160a01b0316846001600160a01b03161480611a465750611a4684610fe1611e01565b611a815760405162461bcd60e51b8152600401808060200182810382526029815260200180612a936029913960400191505060405180910390fd5b611a8c84848461270f565b600083815260066020526040902054611aa590836123db565b6000848152600660205260409020555060019392505050565b60045461010090046001600160a01b03163314611b0c5760405162461bcd60e51b815260040180806020018281038252602f815260200180612b13602f913960400191505060405180910390fd5b565b8051611b21906003906020840190612848565b5050565b6008546000906001600160a01b0316611b3c611e01565b6001600160a01b031614905090565b6001600160a01b038416611b905760405162461bcd60e51b8152600401808060200182810382526021815260200180612c096021913960400191505060405180910390fd5b8151835114611bd05760405162461bcd60e51b8152600401808060200182810382526028815260200180612be16028913960400191505060405180910390fd5b6000611bda611e01565b9050611beb81600087878787611e05565b60005b8451811015611caf57611c6660016000878481518110611c0a57fe5b602002602001015181526020019081526020016000206000886001600160a01b03166001600160a01b0316815260200190815260200160002054858381518110611c5057fe5b6020026020010151611da090919063ffffffff16565b60016000878481518110611c7657fe5b602090810291909101810151825281810192909252604090810160009081206001600160a01b038b168252909252902055600101611bee565b50846001600160a01b031660006001600160a01b0316826001600160a01b03167f4a39dc06d4c0dbc64b70af90fd698a233a518aa5d07e595d983b8c0526c8f7fb8787604051808060200180602001838103835285818151815260200191508051906020019060200280838360005b83811015611d36578181015183820152602001611d1e565b50505050905001838103825284818151815260200191508051906020019060200280838360005b83811015611d75578181015183820152602001611d5d565b5050505090500194505050505060405180910390a4611d9981600087878787611eee565b5050505050565b600082820183811015611dfa576040805162461bcd60e51b815260206004820152601b60248201527f536166654d6174683a206164646974696f6e206f766572666c6f770000000000604482015290519081900360640190fd5b9392505050565b3390565b611e13868686868686611224565b611e1b611327565b156112245760405162461bcd60e51b815260040180806020018281038252602c815260200180612a67602c913960400191505060405180910390fd5b60008184841115611ee65760405162461bcd60e51b81526004018080602001828103825283818151815260200191508051906020019080838360005b83811015611eab578181015183820152602001611e93565b50505050905090810190601f168015611ed85780820380516001836020036101000a031916815260200191505b509250505060405180910390fd5b505050900390565b611f00846001600160a01b0316612842565b1561122457836001600160a01b031663bc197c8187878686866040518663ffffffff1660e01b815260040180866001600160a01b03168152602001856001600160a01b03168152602001806020018060200180602001848103845287818151815260200191508051906020019060200280838360005b83811015611f8e578181015183820152602001611f76565b50505050905001848103835286818151815260200191508051906020019060200280838360005b83811015611fcd578181015183820152602001611fb5565b50505050905001848103825285818151815260200191508051906020019080838360005b83811015612009578181015183820152602001611ff1565b50505050905090810190601f1680156120365780820380516001836020036101000a031916815260200191505b5098505050505050505050602060405180830381600087803b15801561205b57600080fd5b505af192505050801561208057506040513d602081101561207b57600080fd5b505160015b6121155761208c6128e1565b8061209757506120de565b60405162461bcd60e51b8152602060048201818152835160248401528351849391928392604401919085019080838360008315611eab578181015183820152602001611e93565b60405162461bcd60e51b81526004018080602001828103825260348152602001806129876034913960400191505060405180910390fd5b6001600160e01b0319811663bc197c8160e01b146121645760405162461bcd60e51b81526004018080602001828103825260288152602001806129bb6028913960400191505060405180910390fd5b50505050505050565b6001600160a01b0383166121b25760405162461bcd60e51b8152600401808060200182810382526023815260200180612b426023913960400191505060405180910390fd5b80518251146121f25760405162461bcd60e51b8152600401808060200182810382526028815260200180612be16028913960400191505060405180910390fd5b60006121fc611e01565b905061221c81856000868660405180602001604052806000815250611e05565b60005b83518110156122fa576122b183828151811061223757fe5b6020026020010151604051806060016040528060248152602001612a43602491396001600088868151811061226857fe5b602002602001015181526020019081526020016000206000896001600160a01b03166001600160a01b0316815260200190815260200160002054611e579092919063ffffffff16565b600160008684815181106122c157fe5b602090810291909101810151825281810192909252604090810160009081206001600160a01b038a16825290925290205560010161221f565b5060006001600160a01b0316846001600160a01b0316826001600160a01b03167f4a39dc06d4c0dbc64b70af90fd698a233a518aa5d07e595d983b8c0526c8f7fb8686604051808060200180602001838103835285818151815260200191508051906020019060200280838360005b83811015612381578181015183820152602001612369565b50505050905001838103825284818151815260200191508051906020019060200280838360005b838110156123c05781810151838201526020016123a8565b5050505090500194505050505060405180910390a450505050565b600082821115612432576040805162461bcd60e51b815260206004820152601e60248201527f536166654d6174683a207375627472616374696f6e206f766572666c6f770000604482015290519081900360640190fd5b50900390565b6001600160a01b03841661247d5760405162461bcd60e51b8152600401808060200182810382526021815260200180612c096021913960400191505060405180910390fd5b6000612487611e01565b9050612499816000876119148861255a565b60008481526001602090815260408083206001600160a01b03891684529091529020546124c69084611da0565b60008581526001602090815260408083206001600160a01b03808b16808652918452828520959095558151898152928301889052815190948616927fc3d58168c5ae7397731d063d5bbf3d657854427343f4c083240f7aacaa2d0f6292908290030190a4611d998160008787878761259e565b60075460009061254a906001611da0565b905090565b600780546001019055565b60408051600180825281830190925260609182919060208083019080368337019050509050828160008151811061258d57fe5b602090810291909101015292915050565b6125b0846001600160a01b0316612842565b1561122457836001600160a01b031663f23a6e6187878686866040518663ffffffff1660e01b815260040180866001600160a01b03168152602001856001600160a01b0316815260200184815260200183815260200180602001828103825283818151815260200191508051906020019080838360005b8381101561263f578181015183820152602001612627565b50505050905090810190601f16801561266c5780820380516001836020036101000a031916815260200191505b509650505050505050602060405180830381600087803b15801561268f57600080fd5b505af19250505080156126b457506040513d60208110156126af57600080fd5b505160015b6126c05761208c6128e1565b6001600160e01b0319811663f23a6e6160e01b146121645760405162461bcd60e51b81526004018080602001828103825260288152602001806129bb6028913960400191505060405180910390fd5b6001600160a01b0383166127545760405162461bcd60e51b8152600401808060200182810382526023815260200180612b426023913960400191505060405180910390fd5b600061275e611e01565b905061278e818560006127708761255a565b6127798761255a565b60405180602001604052806000815250611e05565b6127d582604051806060016040528060248152602001612a436024913960008681526001602090815260408083206001600160a01b038b1684529091529020549190611e57565b60008481526001602090815260408083206001600160a01b03808a16808652918452828520959095558151888152928301879052815193949093908616927fc3d58168c5ae7397731d063d5bbf3d657854427343f4c083240f7aacaa2d0f6292908290030190a450505050565b3b151590565b828054600181600116156101000203166002900490600052602060002090601f016020900481019282601f1061288957805160ff19168380011785556128b6565b828001600101855582156128b6579182015b828111156128b657825182559160200191906001019061289b565b506128c29291506128c6565b5090565b5b808211156128c257600081556001016128c7565b60e01c90565b600060443d10156128f15761132e565b600481823e6308c379a061290582516128db565b1461290f5761132e565b6040513d600319016004823e80513d67ffffffffffffffff816024840111818411171561293f575050505061132e565b82840192508251915080821115612959575050505061132e565b503d830160208284010111156129715750505061132e565b601f01601f191681016020016040529150509056fe455243313135353a207472616e7366657220746f206e6f6e2045524331313535526563656976657220696d706c656d656e746572455243313135353a204552433131353552656365697665722072656a656374656420746f6b656e73596f75206d757374206265206e6f6d696e61746564206265666f726520796f752063616e20616363657074206f776e657273686970455243313135353a2062616c616e636520717565727920666f7220746865207a65726f2061646472657373455243313135353a206275726e20616d6f756e7420657863656564732062616c616e6365455243313135355061757361626c653a20746f6b656e207472616e73666572207768696c6520706175736564455243313135353a2063616c6c6572206973206e6f74206f776e6572206e6f7220617070726f766564455243313135353a207472616e7366657220746f20746865207a65726f2061646472657373455243313135353a207472616e736665722063616c6c6572206973206e6f74206f776e6572206e6f7220617070726f7665644f6e6c792074686520636f6e7472616374206f776e6572206d617920706572666f726d207468697320616374696f6e455243313135353a206275726e2066726f6d20746865207a65726f2061646472657373455243313135353a20696e73756666696369656e742062616c616e636520666f72207472616e73666572455243313135353a2073657474696e6720617070726f76616c2073746174757320666f722073656c66455243313135353a206163636f756e747320616e6420696473206c656e677468206d69736d61746368455243313135353a2069647320616e6420616d6f756e7473206c656e677468206d69736d61746368455243313135353a206d696e7420746f20746865207a65726f2061646472657373a264697066735822122062fb0d22eda471c341595ad5c0b10c39501379223294ff0fea645debba79e60764736f6c63430007000033",
  "linkReferences": {},
  "deployedLinkReferences": {}
}