{
  "_format": "hh-sol-artifact-1",
  "contractName": "RefundEscrowUpgradeable",
  "sourceName": "contracts/upgradablecontracts/payment/escrow/RefundEscrowUpgradeable.sol",
  "abi": [
    {
      "anonymous": false,
      "inputs": [
        {
          "indexed": true,
          "internalType": "address",
          "name": "payee",
          "type": "address"
        },
        {
          "indexed": false,
          "internalType": "uint256",
          "name": "weiAmount",
          "type": "uint256"
        }
      ],
      "name": "Deposited",
      "type": "event"
    },
    {
      "anonymous": false,
      "inputs": [
        {
          "indexed": true,
          "internalType": "address",
          "name": "previousOwner",
          "type": "address"
        },
        {
          "indexed": true,
          "internalType": "address",
          "name": "newOwner",
          "type": "address"
        }
      ],
      "name": "OwnershipTransferred",
      "type": "event"
    },
    {
      "anonymous": false,
      "inputs": [],
      "name": "RefundsClosed",
      "type": "event"
    },
    {
      "anonymous": false,
      "inputs": [],
      "name": "RefundsEnabled",
      "type": "event"
    },
    {
      "anonymous": false,
      "inputs": [
        {
          "indexed": true,
          "internalType": "address",
          "name": "payee",
          "type": "address"
        },
        {
          "indexed": false,
          "internalType": "uint256",
          "name": "weiAmount",
          "type": "uint256"
        }
      ],
      "name": "Withdrawn",
      "type": "event"
    },
    {
      "inputs": [],
      "name": "beneficiary",
      "outputs": [
        {
          "internalType": "address payable",
          "name": "",
          "type": "address"
        }
      ],
      "stateMutability": "view",
      "type": "function"
    },
    {
      "inputs": [],
      "name": "beneficiaryWithdraw",
      "outputs": [],
      "stateMutability": "nonpayable",
      "type": "function"
    },
    {
      "inputs": [],
      "name": "close",
      "outputs": [],
      "stateMutability": "nonpayable",
      "type": "function"
    },
    {
      "inputs": [
        {
          "internalType": "address",
          "name": "refundee",
          "type": "address"
        }
      ],
      "name": "deposit",
      "outputs": [],
      "stateMutability": "payable",
      "type": "function"
    },
    {
      "inputs": [
        {
          "internalType": "address",
          "name": "payee",
          "type": "address"
        }
      ],
      "name": "depositsOf",
      "outputs": [
        {
          "internalType": "uint256",
          "name": "",
          "type": "uint256"
        }
      ],
      "stateMutability": "view",
      "type": "function"
    },
    {
      "inputs": [],
      "name": "enableRefunds",
      "outputs": [],
      "stateMutability": "nonpayable",
      "type": "function"
    },
    {
      "inputs": [],
      "name": "initialize",
      "outputs": [],
      "stateMutability": "nonpayable",
      "type": "function"
    },
    {
      "inputs": [],
      "name": "owner",
      "outputs": [
        {
          "internalType": "address",
          "name": "",
          "type": "address"
        }
      ],
      "stateMutability": "view",
      "type": "function"
    },
    {
      "inputs": [],
      "name": "renounceOwnership",
      "outputs": [],
      "stateMutability": "nonpayable",
      "type": "function"
    },
    {
      "inputs": [],
      "name": "state",
      "outputs": [
        {
          "internalType": "enum RefundEscrowUpgradeable.State",
          "name": "",
          "type": "uint8"
        }
      ],
      "stateMutability": "view",
      "type": "function"
    },
    {
      "inputs": [
        {
          "internalType": "address",
          "name": "newOwner",
          "type": "address"
        }
      ],
      "name": "transferOwnership",
      "outputs": [],
      "stateMutability": "nonpayable",
      "type": "function"
    },
    {
      "inputs": [
        {
          "internalType": "address payable",
          "name": "payee",
          "type": "address"
        }
      ],
      "name": "withdraw",
      "outputs": [],
      "stateMutability": "nonpayable",
      "type": "function"
    },
    {
      "inputs": [
        {
          "internalType": "address",
          "name": "",
          "type": "address"
        }
      ],
      "name": "withdrawalAllowed",
      "outputs": [
        {
          "internalType": "bool",
          "name": "",
          "type": "bool"
        }
      ],
      "stateMutability": "view",
      "type": "function"
    }
  ],
  "bytecode": "0x608060405234801561001057600080fd5b50610fb7806100206000396000f3fe6080604052600436106100c25760003560e01c80638c52dc411161007f578063c19d93fb11610059578063c19d93fb146101f2578063e3a9db1a14610228578063f2fde38b1461026d578063f340fa01146102a0576100c2565b80638c52dc41146101b35780638da5cb5b146101c85780639af6549a146101dd576100c2565b806338af3eed146100c757806343d726d6146100f857806351cff8d91461010f578063685ca19414610142578063715018a6146101895780638129fc1c1461019e575b600080fd5b3480156100d357600080fd5b506100dc6102c6565b604080516001600160a01b039092168252519081900360200190f35b34801561010457600080fd5b5061010d6102da565b005b34801561011b57600080fd5b5061010d6004803603602081101561013257600080fd5b50356001600160a01b03166103c5565b34801561014e57600080fd5b506101756004803603602081101561016557600080fd5b50356001600160a01b0316610415565b604080519115158252519081900360200190f35b34801561019557600080fd5b5061010d610433565b3480156101aa57600080fd5b5061010d6104df565b3480156101bf57600080fd5b5061010d610588565b3480156101d457600080fd5b506100dc610673565b3480156101e957600080fd5b5061010d610682565b3480156101fe57600080fd5b50610207610713565b6040518082600281111561021757fe5b815260200191505060405180910390f35b34801561023457600080fd5b5061025b6004803603602081101561024b57600080fd5b50356001600160a01b031661071c565b60408051918252519081900360200190f35b34801561027957600080fd5b5061010d6004803603602081101561029057600080fd5b50356001600160a01b0316610737565b61010d600480360360208110156102b657600080fd5b50356001600160a01b031661083a565b60c95461010090046001600160a01b031690565b6102e2610894565b6001600160a01b03166102f3610673565b6001600160a01b03161461033c576040805162461bcd60e51b81526020600482018190526024820152600080516020610f30833981519152604482015290519081900360640190fd5b6000610346610713565b600281111561035157fe5b1461038d5760405162461bcd60e51b8152600401808060200182810382526029815260200180610f076029913960400191505060405180910390fd5b60c9805460ff191660021790556040517f088672c3a6e342f7cd94a65ba63b79df24a8973927b4d05d803c44bbf787d12f90600090a1565b6103ce81610415565b6104095760405162461bcd60e51b8152600401808060200182810382526033815260200180610ed46033913960400191505060405180910390fd5b61041281610898565b50565b60006001610421610713565b600281111561042c57fe5b1492915050565b61043b610894565b6001600160a01b031661044c610673565b6001600160a01b031614610495576040805162461bcd60e51b81526020600482018190526024820152600080516020610f30833981519152604482015290519081900360640190fd5b6033546040516000916001600160a01b0316907f8be0079c531659141344cd1fd0a4f28419497f9722a3daafe3b4186f6b6457e0908390a3603380546001600160a01b0319169055565b600054610100900460ff16806104f857506104f8610965565b80610506575060005460ff16155b6105415760405162461bcd60e51b815260040180806020018281038252602e815260200180610ea6602e913960400191505060405180910390fd5b600054610100900460ff1615801561056c576000805460ff1961ff0019909116610100171660011790555b610574610976565b8015610412576000805461ff001916905550565b610590610894565b6001600160a01b03166105a1610673565b6001600160a01b0316146105ea576040805162461bcd60e51b81526020600482018190526024820152600080516020610f30833981519152604482015290519081900360640190fd5b60006105f4610713565b60028111156105ff57fe5b1461063b5760405162461bcd60e51b8152600401808060200182810382526032815260200180610f506032913960400191505060405180910390fd5b60c9805460ff191660011790556040517f599d8e5a83cffb867d051598c4d70e805d59802d8081c1c7d6dffc5b6aca2b8990600090a1565b6033546001600160a01b031690565b600261068c610713565b600281111561069757fe5b146106d35760405162461bcd60e51b8152600401808060200182810382526038815260200180610de36038913960400191505060405180910390fd5b6106db6102c6565b6001600160a01b03166108fc479081150290604051600060405180830381858888f19350505050158015610412573d6000803e3d6000fd5b60c95460ff1690565b6001600160a01b031660009081526065602052604090205490565b61073f610894565b6001600160a01b0316610750610673565b6001600160a01b031614610799576040805162461bcd60e51b81526020600482018190526024820152600080516020610f30833981519152604482015290519081900360640190fd5b6001600160a01b0381166107de5760405162461bcd60e51b8152600401808060200182810382526026815260200180610e1b6026913960400191505060405180910390fd5b6033546040516001600160a01b038084169216907f8be0079c531659141344cd1fd0a4f28419497f9722a3daafe3b4186f6b6457e090600090a3603380546001600160a01b0319166001600160a01b0392909216919091179055565b6000610844610713565b600281111561084f57fe5b1461088b5760405162461bcd60e51b815260040180806020018281038252602b815260200180610e7b602b913960400191505060405180910390fd5b61041281610a1b565b3390565b6108a0610894565b6001600160a01b03166108b1610673565b6001600160a01b0316146108fa576040805162461bcd60e51b81526020600482018190526024820152600080516020610f30833981519152604482015290519081900360640190fd5b6001600160a01b03811660008181526065602052604081208054919055906109229082610af8565b6040805182815290516001600160a01b038416917f7084f5476618d8e60b11ef0d7d3f06914655adb8793e28ff7f018d4c76d505d5919081900360200190a25050565b600061097030610be2565b15905090565b600054610100900460ff168061098f575061098f610965565b8061099d575060005460ff16155b6109d85760405162461bcd60e51b815260040180806020018281038252602e815260200180610ea6602e913960400191505060405180910390fd5b600054610100900460ff16158015610a03576000805460ff1961ff0019909116610100171660011790555b610a0b610be8565b610a13610c88565b610574610be8565b610a23610894565b6001600160a01b0316610a34610673565b6001600160a01b031614610a7d576040805162461bcd60e51b81526020600482018190526024820152600080516020610f30833981519152604482015290519081900360640190fd5b6001600160a01b0381166000908152606560205260409020543490610aa29082610d81565b6001600160a01b038316600081815260656020908152604091829020939093558051848152905191927f2da466a7b24304f47e87fa2e1e5a81b9831ce54fec19055ce277ca2f39ba42c492918290030190a25050565b80471015610b4d576040805162461bcd60e51b815260206004820152601d60248201527f416464726573733a20696e73756666696369656e742062616c616e6365000000604482015290519081900360640190fd5b6040516000906001600160a01b0384169083908381818185875af1925050503d8060008114610b98576040519150601f19603f3d011682016040523d82523d6000602084013e610b9d565b606091505b5050905080610bdd5760405162461bcd60e51b815260040180806020018281038252603a815260200180610e41603a913960400191505060405180910390fd5b505050565b3b151590565b600054610100900460ff1680610c015750610c01610965565b80610c0f575060005460ff16155b610c4a5760405162461bcd60e51b815260040180806020018281038252602e815260200180610ea6602e913960400191505060405180910390fd5b600054610100900460ff16158015610574576000805460ff1961ff0019909116610100171660011790558015610412576000805461ff001916905550565b600054610100900460ff1680610ca15750610ca1610965565b80610caf575060005460ff16155b610cea5760405162461bcd60e51b815260040180806020018281038252602e815260200180610ea6602e913960400191505060405180910390fd5b600054610100900460ff16158015610d15576000805460ff1961ff0019909116610100171660011790555b6000610d1f610894565b603380546001600160a01b0319166001600160a01b038316908117909155604051919250906000907f8be0079c531659141344cd1fd0a4f28419497f9722a3daafe3b4186f6b6457e0908290a3508015610412576000805461ff001916905550565b600082820183811015610ddb576040805162461bcd60e51b815260206004820152601b60248201527f536166654d6174683a206164646974696f6e206f766572666c6f770000000000604482015290519081900360640190fd5b939250505056fe526566756e64457363726f773a2062656e65666963696172792063616e206f6e6c79207769746864726177207768696c6520636c6f7365644f776e61626c653a206e6577206f776e657220697320746865207a65726f2061646472657373416464726573733a20756e61626c6520746f2073656e642076616c75652c20726563697069656e74206d61792068617665207265766572746564526566756e64457363726f773a2063616e206f6e6c79206465706f736974207768696c6520616374697665496e697469616c697a61626c653a20636f6e747261637420697320616c726561647920696e697469616c697a6564436f6e646974696f6e616c457363726f773a207061796565206973206e6f7420616c6c6f77656420746f207769746864726177526566756e64457363726f773a2063616e206f6e6c7920636c6f7365207768696c65206163746976654f776e61626c653a2063616c6c6572206973206e6f7420746865206f776e6572526566756e64457363726f773a2063616e206f6e6c7920656e61626c6520726566756e6473207768696c6520616374697665a264697066735822122072390833f4b76a13fce39ad20fbd46daa6211156c5f6b21266ed31a5f34c2ca264736f6c63430007000033",
  "linkReferences": {},
  "deployedLinkReferences": {}
}